{"contracts/ERC8004Core.sol":{"ERC8004Core":{"abi":[{"inputs":[{"internalType":"address","name":"_token","type":"address"},{"internalType":"address","name":"_nft","type":"address"},{"internalType":"address","name":"_treasury","type":"address"}],"stateMutability":"nonpayable","type":"constructor"},{"inputs":[{"internalType":"uint256","name":"ratio","type":"uint256"},{"internalType":"uint256","name":"max","type":"uint256"}],"name":"BurnRatioTooHigh","type":"error"},{"inputs":[],"name":"CorePaused","type":"error"},{"inputs":[{"internalType":"uint256","name":"sent","type":"uint256"},{"internalType":"uint256","name":"required","type":"uint256"}],"name":"InsufficientPayment","type":"error"},{"inputs":[],"name":"InvalidTier","type":"error"},{"inputs":[{"internalType":"enum IServiceNFT.Tier","name":"current","type":"uint8"},{"internalType":"enum IServiceNFT.Tier","name":"target","type":"uint8"}],"name":"InvalidUpgradePath","type":"error"},{"inputs":[{"internalType":"address","name":"caller","type":"address"},{"internalType":"uint256","name":"tokenId","type":"uint256"}],"name":"NotTokenOwner","type":"error"},{"inputs":[],"name":"ReentrancyGuard","type":"error"},{"inputs":[{"internalType":"enum IServiceNFT.Tier","name":"tier","type":"uint8"}],"name":"TierPriceNotSet","type":"error"},{"inputs":[],"name":"TransferFailed","type":"error"},{"inputs":[{"internalType":"address","name":"caller","type":"address"},{"internalType":"bytes32","name":"role","type":"bytes32"}],"name":"Unauthorized","type":"error"},{"inputs":[],"name":"ZeroAddress","type":"error"},{"inputs":[],"name":"ZeroAmount","type":"error"},{"anonymous":false,"inputs":[{"indexed":false,"internalType":"uint256","name":"oldRatio","type":"uint256"},{"indexed":false,"internalType":"uint256","name":"newRatio","type":"uint256"}],"name":"BurnRatioUpdated","type":"event"},{"anonymous":false,"inputs":[{"indexed":true,"internalType":"address","name":"account","type":"address"},{"indexed":false,"internalType":"bool","name":"exempt","type":"bool"}],"name":"FeeExemptionSet","type":"event"},{"anonymous":false,"inputs":[{"indexed":true,"internalType":"address","name":"by","type":"address"}],"name":"Paused","type":"event"},{"anonymous":false,"inputs":[{"indexed":true,"internalType":"bytes32","name":"role","type":"bytes32"},{"indexed":true,"internalType":"address","name":"account","type":"address"}],"name":"RoleGranted","type":"event"},{"anonymous":false,"inputs":[{"indexed":true,"internalType":"bytes32","name":"role","type":"bytes32"},{"indexed":true,"internalType":"address","name":"account","type":"address"}],"name":"RoleRevoked","type":"event"},{"anonymous":false,"inputs":[{"indexed":true,"internalType":"address","name":"user","type":"address"},{"indexed":true,"internalType":"uint256","name":"tokenId","type":"uint256"},{"indexed":false,"internalType":"enum IServiceNFT.Tier","name":"tier","type":"uint8"},{"indexed":false,"internalType":"uint256","name":"amountPaid","type":"uint256"}],"name":"Subscribed","type":"event"},{"anonymous":false,"inputs":[{"indexed":true,"internalType":"enum IServiceNFT.Tier","name":"tier","type":"uint8"},{"indexed":false,"internalType":"uint256","name":"price","type":"uint256"}],"name":"TierPriceUpdated","type":"event"},{"anonymous":false,"inputs":[{"indexed":true,"internalType":"address","name":"user","type":"address"},{"indexed":true,"internalType":"uint256","name":"tokenId","type":"uint256"},{"indexed":false,"internalType":"enum IServiceNFT.Tier","name":"oldTier","type":"uint8"},{"indexed":false,"internalType":"enum IServiceNFT.Tier","name":"newTier","type":"uint8"},{"indexed":false,"internalType":"uint256","name":"amountPaid","type":"uint256"}],"name":"TierUpgraded","type":"event"},{"anonymous":false,"inputs":[{"indexed":true,"internalType":"address","name":"by","type":"address"}],"name":"Unpaused","type":"event"},{"inputs":[],"name":"ADMIN_ROLE","outputs":[{"internalType":"bytes32","name":"","type":"bytes32"}],"stateMutability":"view","type":"function"},{"inputs":[],"name":"BPS_DENOM","outputs":[{"internalType":"uint256","name":"","type":"uint256"}],"stateMutability":"view","type":"function"},{"inputs":[],"name":"GUARDIAN_ROLE","outputs":[{"internalType":"bytes32","name":"","type":"bytes32"}],"stateMutability":"view","type":"function"},{"inputs":[],"name":"MAX_BURN_BPS","outputs":[{"internalType":"uint256","name":"","type":"uint256"}],"stateMutability":"view","type":"function"},{"inputs":[],"name":"OPERATOR_ROLE","outputs":[{"internalType":"bytes32","name":"","type":"bytes32"}],"stateMutability":"view","type":"function"},{"inputs":[],"name":"burnRatioBps","outputs":[{"internalType":"uint256","name":"","type":"uint256"}],"stateMutability":"view","type":"function"},{"inputs":[{"internalType":"bytes32","name":"role","type":"bytes32"},{"internalType":"address","name":"account","type":"address"}],"name":"grantRole","outputs":[],"stateMutability":"nonpayable","type":"function"},{"inputs":[{"internalType":"bytes32","name":"role","type":"bytes32"},{"internalType":"address","name":"account","type":"address"}],"name":"hasRole","outputs":[{"internalType":"bool","name":"","type":"bool"}],"stateMutability":"view","type":"function"},{"inputs":[],"name":"nft","outputs":[{"internalType":"contract IServiceNFT","name":"","type":"address"}],"stateMutability":"view","type":"function"},{"inputs":[],"name":"pause","outputs":[],"stateMutability":"nonpayable","type":"function"},{"inputs":[],"name":"paused","outputs":[{"internalType":"bool","name":"","type":"bool"}],"stateMutability":"view","type":"function"},{"inputs":[{"internalType":"uint256","name":"amount","type":"uint256"}],"name":"previewPaymentSplit","outputs":[{"internalType":"uint256","name":"burnAmount","type":"uint256"},{"internalType":"uint256","name":"treasuryAmount","type":"uint256"}],"stateMutability":"view","type":"function"},{"inputs":[{"internalType":"bytes32","name":"role","type":"bytes32"},{"internalType":"address","name":"account","type":"address"}],"name":"revokeRole","outputs":[],"stateMutability":"nonpayable","type":"function"},{"inputs":[{"internalType":"uint256","name":"newRatioBps","type":"uint256"}],"name":"setBurnRatio","outputs":[],"stateMutability":"nonpayable","type":"function"},{"inputs":[{"internalType":"enum IServiceNFT.Tier","name":"tier","type":"uint8"},{"internalType":"uint256","name":"price","type":"uint256"}],"name":"setTierPrice","outputs":[],"stateMutability":"nonpayable","type":"function"},{"inputs":[{"internalType":"address","name":"newTreasury","type":"address"}],"name":"setTreasury","outputs":[],"stateMutability":"nonpayable","type":"function"},{"inputs":[{"internalType":"enum IServiceNFT.Tier","name":"tier","type":"uint8"}],"name":"subscribe","outputs":[{"internalType":"uint256","name":"tokenId","type":"uint256"}],"stateMutability":"nonpayable","type":"function"},{"inputs":[{"internalType":"enum IServiceNFT.Tier","name":"tier","type":"uint8"},{"internalType":"uint256","name":"deadline","type":"uint256"},{"internalType":"uint8","name":"v","type":"uint8"},{"internalType":"bytes32","name":"r","type":"bytes32"},{"internalType":"bytes32","name":"s","type":"bytes32"}],"name":"subscribeWithPermit","outputs":[{"internalType":"uint256","name":"tokenId","type":"uint256"}],"stateMutability":"nonpayable","type":"function"},{"inputs":[{"internalType":"enum IServiceNFT.Tier","name":"","type":"uint8"}],"name":"tierPrice","outputs":[{"internalType":"uint256","name":"","type":"uint256"}],"stateMutability":"view","type":"function"},{"inputs":[],"name":"token","outputs":[{"internalType":"contract IERC8004Token","name":"","type":"address"}],"stateMutability":"view","type":"function"},{"inputs":[],"name":"totalBurned","outputs":[{"internalType":"uint256","name":"","type":"uint256"}],"stateMutability":"view","type":"function"},{"inputs":[],"name":"totalRevenue","outputs":[{"internalType":"uint256","name":"","type":"uint256"}],"stateMutability":"view","type":"function"},{"inputs":[],"name":"totalSubscriptions","outputs":[{"internalType":"uint256","name":"","type":"uint256"}],"stateMutability":"view","type":"function"},{"inputs":[],"name":"totalUpgrades","outputs":[{"internalType":"uint256","name":"","type":"uint256"}],"stateMutability":"view","type":"function"},{"inputs":[],"name":"treasury","outputs":[{"internalType":"address","name":"","type":"address"}],"stateMutability":"view","type":"function"},{"inputs":[],"name":"unpause","outputs":[],"stateMutability":"nonpayable","type":"function"},{"inputs":[{"internalType":"uint256","name":"tokenId","type":"uint256"},{"internalType":"enum IServiceNFT.Tier","name":"newTier","type":"uint8"}],"name":"upgradeTier","outputs":[],"stateMutability":"nonpayable","type":"function"},{"inputs":[{"internalType":"uint256","name":"tokenId","type":"uint256"},{"internalType":"enum IServiceNFT.Tier","name":"newTier","type":"uint8"},{"internalType":"uint256","name":"deadline","type":"uint256"},{"internalType":"uint8","name":"v","type":"uint8"},{"internalType":"bytes32","name":"r","type":"bytes32"},{"internalType":"bytes32","name":"s","type":"bytes32"}],"name":"upgradeTierWithPermit","outputs":[],"stateMutability":"nonpayable","type":"function"},{"inputs":[{"internalType":"address","name":"user","type":"address"}],"name":"userTokens","outputs":[{"internalType":"uint256[]","name":"","type":"uint256[]"}],"stateMutability":"view","type":"function"}],"evm":{"bytecode":{"linkReferences":{},"object":"60c06040523480156200001157600080fd5b506040516200348f3803806200348f83398181016040528101906200003791906200050e565b600073ffffffffffffffffffffffffffffffffffffffff168373ffffffffffffffffffffffffffffffffffffffff16036200009e576040517fd92e233d00000000000000000000000000000000000000000000000000000000815260040160405180910390fd5b600073ffffffffffffffffffffffffffffffffffffffff168273ffffffffffffffffffffffffffffffffffffffff160362000105576040517fd92e233d00000000000000000000000000000000000000000000000000000000815260040160405180910390fd5b600073ffffffffffffffffffffffffffffffffffffffff168173ffffffffffffffffffffffffffffffffffffffff16036200016c576040517fd92e233d00000000000000000000000000000000000000000000000000000000815260040160405180910390fd5b8273ffffffffffffffffffffffffffffffffffffffff1660808173ffffffffffffffffffffffffffffffffffffffff16815250508173ffffffffffffffffffffffffffffffffffffffff1660a08173ffffffffffffffffffffffffffffffffffffffff168152505080600160006101000a81548173ffffffffffffffffffffffffffffffffffffffff021916908373ffffffffffffffffffffffffffffffffffffffff1602179055506107d0600381905550620002507fa49807205ce4d355092ef5a8a18f56e8913cf4a201fbe287825b095693c2177533620003f460201b60201c565b620002827f97667070c54ef182b0f5858b034beac1b6f3089aa2d3188bb1e8929f4fa9b92933620003f460201b60201c565b620002b47f55435dd261a4b9b3364963f7738a7a662ad9c84396d64be3365284bb7f0a504133620003f460201b60201c565b6001600a8190555068056bc75e2d6310000060026000806003811115620002e057620002df6200056a565b5b6003811115620002f557620002f46200056a565b5b815260200190815260200160002081905550681b1ae4d6e2ef50000060026000600160038111156200032c576200032b6200056a565b5b60038111156200034157620003406200056a565b5b815260200190815260200160002081905550686c6b935b8bbd40000060026000600260038111156200037857620003776200056a565b5b60038111156200038d576200038c6200056a565b5b81526020019081526020016000208190555069021e19e0c9bab240000060026000600380811115620003c457620003c36200056a565b5b6003811115620003d957620003d86200056a565b5b81526020019081526020016000208190555050505062000599565b600160008084815260200190815260200160002060008373ffffffffffffffffffffffffffffffffffffffff1673ffffffffffffffffffffffffffffffffffffffff16815260200190815260200160002060006101000a81548160ff0219169083151502179055508073ffffffffffffffffffffffffffffffffffffffff16827f2ae6a113c0ed5b78a53413ffbb7679881f11145ccfba4fb92e863dfcd5a1d2f360405160405180910390a35050565b600080fd5b600073ffffffffffffffffffffffffffffffffffffffff82169050919050565b6000620004d682620004a9565b9050919050565b620004e881620004c9565b8114620004f457600080fd5b50565b6000815190506200050881620004dd565b92915050565b6000806000606084860312156200052a5762000529620004a4565b5b60006200053a86828701620004f7565b93505060206200054d86828701620004f7565b92505060406200056086828701620004f7565b9150509250925092565b7f4e487b7100000000000000000000000000000000000000000000000000000000600052602160045260246000fd5b60805160a051612e756200061a6000396000818161070f0152818161080501528181610a1c01528181610c3f01528181610d840152818161124d015281816117d5015281816118cb0152611b1b0152600081816111a301528181611a6001528181611fc301528181612099015281816121af01526122560152612e756000f3fe608060405234801561001057600080fd5b50600436106101cf5760003560e01c80638456cb5911610104578063c731cd4d116100a2578063ed498fa811610071578063ed498fa8146104e9578063f0f4426014610519578063f5b541a614610535578063fc0c546a14610553576101cf565b8063c731cd4d14610475578063d547741f14610491578063d89135cd146104ad578063e4786a5e146104cb576101cf565b80639370131f116100de5780639370131f146103ec578063a7d6ef6814610408578063bf2d9e0b14610426578063c2af1a6b14610444576101cf565b80638456cb59146103825780638b5425261461038c57806391d14854146103bc576101cf565b80634a5c6f8c116101715780636637e38c1161014b5780636637e38c146102f8578063712affe11461031657806375b238fc146103465780637c8cdc0014610364576101cf565b80634a5c6f8c146102a05780635c975abb146102bc57806361d027b3146102da576101cf565b806336f005aa116101ad57806336f005aa1461022c5780633f4ba83a1461024857806347ccca021461025257806349c7e63914610270576101cf565b80631328b870146101d457806324ea54f4146101f25780632f2ff15d14610210575b600080fd5b6101dc610571565b6040516101e9919061236d565b60405180910390f35b6101fa610577565b60405161020791906123a1565b60405180910390f35b61022a6004803603810190610225919061244b565b61059b565b005b610246600480360381019061024191906124dc565b61066b565b005b610250610b1b565b005b61025a610c3d565b604051610267919061257b565b60405180910390f35b61028a60048036038101906102859190612596565b610c61565b604051610297919061236d565b60405180910390f35b6102ba60048036038101906102b591906125c3565b610f08565b005b6102c4611054565b6040516102d1919061261e565b60405180910390f35b6102e2611067565b6040516102ef9190612648565b60405180910390f35b61030061108d565b60405161030d919061236d565b60405180910390f35b610330600480360381019061032b919061269c565b611093565b60405161033d919061236d565b60405180910390f35b61034e6113d5565b60405161035b91906123a1565b60405180910390f35b61036c6113f9565b604051610379919061236d565b60405180910390f35b61038a6113ff565b005b6103a660048036038101906103a19190612596565b611521565b6040516103b3919061236d565b60405180910390f35b6103d660048036038101906103d1919061244b565b611539565b6040516103e3919061261e565b60405180910390f35b61040660048036038101906104019190612717565b6115a0565b005b6104106116f2565b60405161041d919061236d565b60405180910390f35b61042e6116f8565b60405161043b919061236d565b60405180910390f35b61045e60048036038101906104599190612717565b6116fe565b60405161046c929190612744565b60405180910390f35b61048f600480360381019061048a919061276d565b611731565b005b6104ab60048036038101906104a6919061244b565b611c1c565b005b6104b5611d8e565b6040516104c2919061236d565b60405180910390f35b6104d3611d94565b6040516104e0919061236d565b60405180910390f35b61050360048036038101906104fe91906127fa565b611d9a565b60405161051091906128e5565b60405180910390f35b610533600480360381019061052e91906127fa565b611e31565b005b61053d611f9d565b60405161054a91906123a1565b60405180910390f35b61055b611fc1565b6040516105689190612928565b60405180910390f35b60065481565b7f55435dd261a4b9b3364963f7738a7a662ad9c84396d64be3365284bb7f0a504181565b7fa49807205ce4d355092ef5a8a18f56e8913cf4a201fbe287825b095693c2177560008082815260200190815260200160002060003373ffffffffffffffffffffffffffffffffffffffff1673ffffffffffffffffffffffffffffffffffffffff16815260200190815260200160002060009054906101000a900460ff1661065c5733816040517f245329c6000000000000000000000000000000000000000000000000000000008152600401610653929190612943565b60405180910390fd5b6106668383611fe5565b505050565b600960009054906101000a900460ff16156106b2576040517f8ae7acea00000000000000000000000000000000000000000000000000000000815260040160405180910390fd5b6002600a54036106ee576040517f8beb9d1600000000000000000000000000000000000000000000000000000000815260040160405180910390fd5b6002600a819055503373ffffffffffffffffffffffffffffffffffffffff167f000000000000000000000000000000000000000000000000000000000000000073ffffffffffffffffffffffffffffffffffffffff16636352211e846040518263ffffffff1660e01b8152600401610766919061236d565b602060405180830381865afa158015610783573d6000803e3d6000fd5b505050506040513d601f19601f820116820180604052508101906107a79190612981565b73ffffffffffffffffffffffffffffffffffffffff16146108015733826040517f58a5e2220000000000000000000000000000000000000000000000000000000081526004016107f89291906129ae565b60405180910390fd5b60007f000000000000000000000000000000000000000000000000000000000000000073ffffffffffffffffffffffffffffffffffffffff1663b4b5b48f846040518263ffffffff1660e01b815260040161085c919061236d565b606060405180830381865afa158015610879573d6000803e3d6000fd5b505050506040513d601f19601f8201168201806040525081019061089d9190612a2a565b505090508060038111156108b4576108b3612a7d565b5b60ff168260038111156108ca576108c9612a7d565b5b60ff16116109115780826040517f1d174623000000000000000000000000000000000000000000000000000000008152600401610908929190612af4565b60405180910390fd5b60006002600083600381111561092a57610929612a7d565b5b600381111561093c5761093b612a7d565b5b815260200190815260200160002054905060006002600085600381111561096657610965612a7d565b5b600381111561097857610977612a7d565b5b8152602001908152602001600020549050600081036109ce57836040517fe997a2d10000000000000000000000000000000000000000000000000000000081526004016109c59190612b1d565b60405180910390fd5b60008282116109de5760006109eb565b82826109ea9190612b67565b5b90506000811115610a1a57610a003382612095565b610a0981612175565b806004600082825401925050819055505b7f000000000000000000000000000000000000000000000000000000000000000073ffffffffffffffffffffffffffffffffffffffff166336f005aa87876040518363ffffffff1660e01b8152600401610a75929190612b9b565b600060405180830381600087803b158015610a8f57600080fd5b505af1158015610aa3573d6000803e3d6000fd5b505050506001600760008282540192505081905550853373ffffffffffffffffffffffffffffffffffffffff167f5ee94686aa32f355e68922c1056e700853c34eb0344c03b99473fdb747216c97868885604051610b0393929190612bc4565b60405180910390a3505050506001600a819055505050565b7f55435dd261a4b9b3364963f7738a7a662ad9c84396d64be3365284bb7f0a504160008082815260200190815260200160002060003373ffffffffffffffffffffffffffffffffffffffff1673ffffffffffffffffffffffffffffffffffffffff16815260200190815260200160002060009054906101000a900460ff16610bdc5733816040517f245329c6000000000000000000000000000000000000000000000000000000008152600401610bd3929190612943565b60405180910390fd5b6000600960006101000a81548160ff0219169083151502179055503373ffffffffffffffffffffffffffffffffffffffff167f5db9ee0a495bf2e6ff9c91a7834c1ba4fdd244a5e8aa4e537bd38aeae4b073aa60405160405180910390a250565b7f000000000000000000000000000000000000000000000000000000000000000081565b6000600960009054906101000a900460ff1615610caa576040517f8ae7acea00000000000000000000000000000000000000000000000000000000815260040160405180910390fd5b6002600a5403610ce6576040517f8beb9d1600000000000000000000000000000000000000000000000000000000815260040160405180910390fd5b6002600a81905550600060026000846003811115610d0757610d06612a7d565b5b6003811115610d1957610d18612a7d565b5b815260200190815260200160002054905060008103610d6f57826040517fe997a2d1000000000000000000000000000000000000000000000000000000008152600401610d669190612b1d565b60405180910390fd5b610d793382612095565b610d8281612175565b7f000000000000000000000000000000000000000000000000000000000000000073ffffffffffffffffffffffffffffffffffffffff1663691562a033856040518363ffffffff1660e01b8152600401610ddd929190612bfb565b6020604051808303816000875af1158015610dfc573d6000803e3d6000fd5b505050506040513d601f19601f82011682018060405250810190610e209190612c39565b9150600860003373ffffffffffffffffffffffffffffffffffffffff1673ffffffffffffffffffffffffffffffffffffffff168152602001908152602001600020829080600181540180825580915050600190039060005260206000200160009091909190915055806004600082825401925050819055506001600660008282540192505081905550813373ffffffffffffffffffffffffffffffffffffffff167fa49559c9bed52fe950333ebaa425e474da1e08ff964d4069204db0d40f2eb3638584604051610ef2929190612c66565b60405180910390a3506001600a81905550919050565b7f97667070c54ef182b0f5858b034beac1b6f3089aa2d3188bb1e8929f4fa9b92960008082815260200190815260200160002060003373ffffffffffffffffffffffffffffffffffffffff1673ffffffffffffffffffffffffffffffffffffffff16815260200190815260200160002060009054906101000a900460ff16610fc95733816040517f245329c6000000000000000000000000000000000000000000000000000000008152600401610fc0929190612943565b60405180910390fd5b8160026000856003811115610fe157610fe0612a7d565b5b6003811115610ff357610ff2612a7d565b5b81526020019081526020016000208190555082600381111561101857611017612a7d565b5b7f9b2aeac57e3bc4cc557619887fe04fb4a5d6a7198dc9d52d71c288115f3bf7c783604051611047919061236d565b60405180910390a2505050565b600960009054906101000a900460ff1681565b600160009054906101000a900473ffffffffffffffffffffffffffffffffffffffff1681565b61271081565b6000600960009054906101000a900460ff16156110dc576040517f8ae7acea00000000000000000000000000000000000000000000000000000000815260040160405180910390fd5b6002600a5403611118576040517f8beb9d1600000000000000000000000000000000000000000000000000000000815260040160405180910390fd5b6002600a8190555060006002600088600381111561113957611138612a7d565b5b600381111561114b5761114a612a7d565b5b8152602001908152602001600020549050600081036111a157866040517fe997a2d10000000000000000000000000000000000000000000000000000000081526004016111989190612b1d565b60405180910390fd5b7f000000000000000000000000000000000000000000000000000000000000000073ffffffffffffffffffffffffffffffffffffffff1663d505accf3330848a8a8a8a6040518863ffffffff1660e01b81526004016112069796959493929190612c9e565b600060405180830381600087803b15801561122057600080fd5b505af1158015611234573d6000803e3d6000fd5b505050506112423382612095565b61124b81612175565b7f000000000000000000000000000000000000000000000000000000000000000073ffffffffffffffffffffffffffffffffffffffff1663691562a033896040518363ffffffff1660e01b81526004016112a6929190612bfb565b6020604051808303816000875af11580156112c5573d6000803e3d6000fd5b505050506040513d601f19601f820116820180604052508101906112e99190612c39565b9150600860003373ffffffffffffffffffffffffffffffffffffffff1673ffffffffffffffffffffffffffffffffffffffff168152602001908152602001600020829080600181540180825580915050600190039060005260206000200160009091909190915055806004600082825401925050819055506001600660008282540192505081905550813373ffffffffffffffffffffffffffffffffffffffff167fa49559c9bed52fe950333ebaa425e474da1e08ff964d4069204db0d40f2eb36389846040516113bb929190612c66565b60405180910390a3506001600a8190555095945050505050565b7fa49807205ce4d355092ef5a8a18f56e8913cf4a201fbe287825b095693c2177581565b60075481565b7f55435dd261a4b9b3364963f7738a7a662ad9c84396d64be3365284bb7f0a504160008082815260200190815260200160002060003373ffffffffffffffffffffffffffffffffffffffff1673ffffffffffffffffffffffffffffffffffffffff16815260200190815260200160002060009054906101000a900460ff166114c05733816040517f245329c60000000000000000000000000000000000000000000000000000000081526004016114b7929190612943565b60405180910390fd5b6001600960006101000a81548160ff0219169083151502179055503373ffffffffffffffffffffffffffffffffffffffff167f62e78cea01bee320cd4e420270b5ea74000d11b0c9f74754ebdbfc544b05a25860405160405180910390a250565b60026020528060005260406000206000915090505481565b600080600084815260200190815260200160002060008373ffffffffffffffffffffffffffffffffffffffff1673ffffffffffffffffffffffffffffffffffffffff16815260200190815260200160002060009054906101000a900460ff16905092915050565b7fa49807205ce4d355092ef5a8a18f56e8913cf4a201fbe287825b095693c2177560008082815260200190815260200160002060003373ffffffffffffffffffffffffffffffffffffffff1673ffffffffffffffffffffffffffffffffffffffff16815260200190815260200160002060009054906101000a900460ff166116615733816040517f245329c6000000000000000000000000000000000000000000000000000000008152600401611658929190612943565b60405180910390fd5b6123288211156116ac57816123286040517fa79f43800000000000000000000000000000000000000000000000000000000081526004016116a3929190612744565b60405180910390fd5b7fb324f1c28a670c5be62829cd6784a101a1c506b0d48a857663db143957c0100b600354836040516116df929190612744565b60405180910390a1816003819055505050565b60035481565b60045481565b600080612710600354846117129190612d0d565b61171c9190612d7e565b9150818361172a9190612b67565b9050915091565b600960009054906101000a900460ff1615611778576040517f8ae7acea00000000000000000000000000000000000000000000000000000000815260040160405180910390fd5b6002600a54036117b4576040517f8beb9d1600000000000000000000000000000000000000000000000000000000815260040160405180910390fd5b6002600a819055503373ffffffffffffffffffffffffffffffffffffffff167f000000000000000000000000000000000000000000000000000000000000000073ffffffffffffffffffffffffffffffffffffffff16636352211e886040518263ffffffff1660e01b815260040161182c919061236d565b602060405180830381865afa158015611849573d6000803e3d6000fd5b505050506040513d601f19601f8201168201806040525081019061186d9190612981565b73ffffffffffffffffffffffffffffffffffffffff16146118c75733866040517f58a5e2220000000000000000000000000000000000000000000000000000000081526004016118be9291906129ae565b60405180910390fd5b60007f000000000000000000000000000000000000000000000000000000000000000073ffffffffffffffffffffffffffffffffffffffff1663b4b5b48f886040518263ffffffff1660e01b8152600401611922919061236d565b606060405180830381865afa15801561193f573d6000803e3d6000fd5b505050506040513d601f19601f820116820180604052508101906119639190612a2a565b5050905080600381111561197a57611979612a7d565b5b60ff168660038111156119905761198f612a7d565b5b60ff16116119d75780866040517f1d1746230000000000000000000000000000000000000000000000000000000081526004016119ce929190612af4565b60405180910390fd5b6000600260008360038111156119f0576119ef612a7d565b5b6003811115611a0257611a01612a7d565b5b81526020019081526020016000205460026000896003811115611a2857611a27612a7d565b5b6003811115611a3a57611a39612a7d565b5b815260200190815260200160002054611a539190612b67565b90506000811115611b19577f000000000000000000000000000000000000000000000000000000000000000073ffffffffffffffffffffffffffffffffffffffff1663d505accf3330848a8a8a8a6040518863ffffffff1660e01b8152600401611ac39796959493929190612c9e565b600060405180830381600087803b158015611add57600080fd5b505af1158015611af1573d6000803e3d6000fd5b50505050611aff3382612095565b611b0881612175565b806004600082825401925050819055505b7f000000000000000000000000000000000000000000000000000000000000000073ffffffffffffffffffffffffffffffffffffffff166336f005aa89896040518363ffffffff1660e01b8152600401611b74929190612b9b565b600060405180830381600087803b158015611b8e57600080fd5b505af1158015611ba2573d6000803e3d6000fd5b505050506001600760008282540192505081905550873373ffffffffffffffffffffffffffffffffffffffff167f5ee94686aa32f355e68922c1056e700853c34eb0344c03b99473fdb747216c97848a85604051611c0293929190612bc4565b60405180910390a350506001600a81905550505050505050565b7fa49807205ce4d355092ef5a8a18f56e8913cf4a201fbe287825b095693c2177560008082815260200190815260200160002060003373ffffffffffffffffffffffffffffffffffffffff1673ffffffffffffffffffffffffffffffffffffffff16815260200190815260200160002060009054906101000a900460ff16611cdd5733816040517f245329c6000000000000000000000000000000000000000000000000000000008152600401611cd4929190612943565b60405180910390fd5b600080600085815260200190815260200160002060008473ffffffffffffffffffffffffffffffffffffffff1673ffffffffffffffffffffffffffffffffffffffff16815260200190815260200160002060006101000a81548160ff0219169083151502179055508173ffffffffffffffffffffffffffffffffffffffff16837f155aaafb6329a2098580462df33ec4b7441b19729b9601c5fc17ae1cf99a8a5260405160405180910390a3505050565b60055481565b61232881565b6060600860008373ffffffffffffffffffffffffffffffffffffffff1673ffffffffffffffffffffffffffffffffffffffff168152602001908152602001600020805480602002602001604051908101604052809291908181526020018280548015611e2557602002820191906000526020600020905b815481526020019060010190808311611e11575b50505050509050919050565b7fa49807205ce4d355092ef5a8a18f56e8913cf4a201fbe287825b095693c2177560008082815260200190815260200160002060003373ffffffffffffffffffffffffffffffffffffffff1673ffffffffffffffffffffffffffffffffffffffff16815260200190815260200160002060009054906101000a900460ff16611ef25733816040517f245329c6000000000000000000000000000000000000000000000000000000008152600401611ee9929190612943565b60405180910390fd5b600073ffffffffffffffffffffffffffffffffffffffff168273ffffffffffffffffffffffffffffffffffffffff1603611f58576040517fd92e233d00000000000000000000000000000000000000000000000000000000815260040160405180910390fd5b81600160006101000a81548173ffffffffffffffffffffffffffffffffffffffff021916908373ffffffffffffffffffffffffffffffffffffffff1602179055505050565b7f97667070c54ef182b0f5858b034beac1b6f3089aa2d3188bb1e8929f4fa9b92981565b7f000000000000000000000000000000000000000000000000000000000000000081565b600160008084815260200190815260200160002060008373ffffffffffffffffffffffffffffffffffffffff1673ffffffffffffffffffffffffffffffffffffffff16815260200190815260200160002060006101000a81548160ff0219169083151502179055508073ffffffffffffffffffffffffffffffffffffffff16827f2ae6a113c0ed5b78a53413ffbb7679881f11145ccfba4fb92e863dfcd5a1d2f360405160405180910390a35050565b60007f000000000000000000000000000000000000000000000000000000000000000073ffffffffffffffffffffffffffffffffffffffff166323b872dd8430856040518463ffffffff1660e01b81526004016120f493929190612daf565b6020604051808303816000875af1158015612113573d6000803e3d6000fd5b505050506040513d601f19601f820116820180604052508101906121379190612e12565b905080612170576040517f90b8ec1800000000000000000000000000000000000000000000000000000000815260040160405180910390fd5b505050565b6000612710600354836121889190612d0d565b6121929190612d7e565b9050600081836121a29190612b67565b90506000821115612249577f000000000000000000000000000000000000000000000000000000000000000073ffffffffffffffffffffffffffffffffffffffff166342966c68836040518263ffffffff1660e01b8152600401612206919061236d565b600060405180830381600087803b15801561222057600080fd5b505af1158015612234573d6000803e3d6000fd5b50505050816005600082825401925050819055505b600081111561234f5760007f000000000000000000000000000000000000000000000000000000000000000073ffffffffffffffffffffffffffffffffffffffff1663a9059cbb600160009054906101000a900473ffffffffffffffffffffffffffffffffffffffff16846040518363ffffffff1660e01b81526004016122d19291906129ae565b6020604051808303816000875af11580156122f0573d6000803e3d6000fd5b505050506040513d601f19601f820116820180604052508101906123149190612e12565b90508061234d576040517f90b8ec1800000000000000000000000000000000000000000000000000000000815260040160405180910390fd5b505b505050565b6000819050919050565b61236781612354565b82525050565b6000602082019050612382600083018461235e565b92915050565b6000819050919050565b61239b81612388565b82525050565b60006020820190506123b66000830184612392565b92915050565b600080fd5b6123ca81612388565b81146123d557600080fd5b50565b6000813590506123e7816123c1565b92915050565b600073ffffffffffffffffffffffffffffffffffffffff82169050919050565b6000612418826123ed565b9050919050565b6124288161240d565b811461243357600080fd5b50565b6000813590506124458161241f565b92915050565b60008060408385031215612462576124616123bc565b5b6000612470858286016123d8565b925050602061248185828601612436565b9150509250929050565b61249481612354565b811461249f57600080fd5b50565b6000813590506124b18161248b565b92915050565b600481106124c457600080fd5b50565b6000813590506124d6816124b7565b92915050565b600080604083850312156124f3576124f26123bc565b5b6000612501858286016124a2565b9250506020612512858286016124c7565b9150509250929050565b6000819050919050565b600061254161253c612537846123ed565b61251c565b6123ed565b9050919050565b600061255382612526565b9050919050565b600061256582612548565b9050919050565b6125758161255a565b82525050565b6000602082019050612590600083018461256c565b92915050565b6000602082840312156125ac576125ab6123bc565b5b60006125ba848285016124c7565b91505092915050565b600080604083850312156125da576125d96123bc565b5b60006125e8858286016124c7565b92505060206125f9858286016124a2565b9150509250929050565b60008115159050919050565b61261881612603565b82525050565b6000602082019050612633600083018461260f565b92915050565b6126428161240d565b82525050565b600060208201905061265d6000830184612639565b92915050565b600060ff82169050919050565b61267981612663565b811461268457600080fd5b50565b60008135905061269681612670565b92915050565b600080600080600060a086880312156126b8576126b76123bc565b5b60006126c6888289016124c7565b95505060206126d7888289016124a2565b94505060406126e888828901612687565b93505060606126f9888289016123d8565b925050608061270a888289016123d8565b9150509295509295909350565b60006020828403121561272d5761272c6123bc565b5b600061273b848285016124a2565b91505092915050565b6000604082019050612759600083018561235e565b612766602083018461235e565b9392505050565b60008060008060008060c0878903121561278a576127896123bc565b5b600061279889828a016124a2565b96505060206127a989828a016124c7565b95505060406127ba89828a016124a2565b94505060606127cb89828a01612687565b93505060806127dc89828a016123d8565b92505060a06127ed89828a016123d8565b9150509295509295509295565b6000602082840312156128105761280f6123bc565b5b600061281e84828501612436565b91505092915050565b600081519050919050565b600082825260208201905092915050565b6000819050602082019050919050565b61285c81612354565b82525050565b600061286e8383612853565b60208301905092915050565b6000602082019050919050565b600061289282612827565b61289c8185612832565b93506128a783612843565b8060005b838110156128d85781516128bf8882612862565b97506128ca8361287a565b9250506001810190506128ab565b5085935050505092915050565b600060208201905081810360008301526128ff8184612887565b905092915050565b600061291282612548565b9050919050565b61292281612907565b82525050565b600060208201905061293d6000830184612919565b92915050565b60006040820190506129586000830185612639565b6129656020830184612392565b9392505050565b60008151905061297b8161241f565b92915050565b600060208284031215612997576129966123bc565b5b60006129a58482850161296c565b91505092915050565b60006040820190506129c36000830185612639565b6129d0602083018461235e565b9392505050565b6000815190506129e6816124b7565b92915050565b600065ffffffffffff82169050919050565b612a07816129ec565b8114612a1257600080fd5b50565b600081519050612a24816129fe565b92915050565b600080600060608486031215612a4357612a426123bc565b5b6000612a51868287016129d7565b9350506020612a628682870161296c565b9250506040612a7386828701612a15565b9150509250925092565b7f4e487b7100000000000000000000000000000000000000000000000000000000600052602160045260246000fd5b60048110612abd57612abc612a7d565b5b50565b6000819050612ace82612aac565b919050565b6000612ade82612ac0565b9050919050565b612aee81612ad3565b82525050565b6000604082019050612b096000830185612ae5565b612b166020830184612ae5565b9392505050565b6000602082019050612b326000830184612ae5565b92915050565b7f4e487b7100000000000000000000000000000000000000000000000000000000600052601160045260246000fd5b6000612b7282612354565b9150612b7d83612354565b9250828203905081811115612b9557612b94612b38565b5b92915050565b6000604082019050612bb0600083018561235e565b612bbd6020830184612ae5565b9392505050565b6000606082019050612bd96000830186612ae5565b612be66020830185612ae5565b612bf3604083018461235e565b949350505050565b6000604082019050612c106000830185612639565b612c1d6020830184612ae5565b9392505050565b600081519050612c338161248b565b92915050565b600060208284031215612c4f57612c4e6123bc565b5b6000612c5d84828501612c24565b91505092915050565b6000604082019050612c7b6000830185612ae5565b612c88602083018461235e565b9392505050565b612c9881612663565b82525050565b600060e082019050612cb3600083018a612639565b612cc06020830189612639565b612ccd604083018861235e565b612cda606083018761235e565b612ce76080830186612c8f565b612cf460a0830185612392565b612d0160c0830184612392565b98975050505050505050565b6000612d1882612354565b9150612d2383612354565b9250828202612d3181612354565b91508282048414831517612d4857612d47612b38565b5b5092915050565b7f4e487b7100000000000000000000000000000000000000000000000000000000600052601260045260246000fd5b6000612d8982612354565b9150612d9483612354565b925082612da457612da3612d4f565b5b828204905092915050565b6000606082019050612dc46000830186612639565b612dd16020830185612639565b612dde604083018461235e565b949350505050565b612def81612603565b8114612dfa57600080fd5b50565b600081519050612e0c81612de6565b92915050565b600060208284031215612e2857612e276123bc565b5b6000612e3684828501612dfd565b9150509291505056fea264697066735822122035e68d2d05e229bf41b24696cfacda6d7a310057c20b6bc3e3176c64cb9b10a564736f6c63430008180033","opcodes":"PUSH1 0xC0 PUSH1 0x40 MSTORE CALLVALUE DUP1 ISZERO PUSH3 0x11 JUMPI PUSH1 0x0 DUP1 REVERT JUMPDEST POP PUSH1 0x40 MLOAD PUSH3 0x348F CODESIZE SUB DUP1 PUSH3 0x348F DUP4 CODECOPY DUP2 DUP2 ADD PUSH1 0x40 MSTORE DUP2 ADD SWAP1 PUSH3 0x37 SWAP2 SWAP1 PUSH3 0x50E JUMP JUMPDEST PUSH1 0x0 PUSH20 0xFFFFFFFFFFFFFFFFFFFFFFFFFFFFFFFFFFFFFFFF AND DUP4 PUSH20 0xFFFFFFFFFFFFFFFFFFFFFFFFFFFFFFFFFFFFFFFF AND SUB PUSH3 0x9E JUMPI PUSH1 0x40 MLOAD PUSH32 0xD92E233D00000000000000000000000000000000000000000000000000000000 DUP2 MSTORE PUSH1 0x4 ADD PUSH1 0x40 MLOAD DUP1 SWAP2 SUB SWAP1 REVERT JUMPDEST PUSH1 0x0 PUSH20 0xFFFFFFFFFFFFFFFFFFFFFFFFFFFFFFFFFFFFFFFF AND DUP3 PUSH20 0xFFFFFFFFFFFFFFFFFFFFFFFFFFFFFFFFFFFFFFFF AND SUB PUSH3 0x105 JUMPI PUSH1 0x40 MLOAD PUSH32 0xD92E233D00000000000000000000000000000000000000000000000000000000 DUP2 MSTORE PUSH1 0x4 ADD PUSH1 0x40 MLOAD DUP1 SWAP2 SUB SWAP1 REVERT JUMPDEST PUSH1 0x0 PUSH20 0xFFFFFFFFFFFFFFFFFFFFFFFFFFFFFFFFFFFFFFFF AND DUP2 PUSH20 0xFFFFFFFFFFFFFFFFFFFFFFFFFFFFFFFFFFFFFFFF AND SUB PUSH3 0x16C JUMPI PUSH1 0x40 MLOAD PUSH32 0xD92E233D00000000000000000000000000000000000000000000000000000000 DUP2 MSTORE PUSH1 0x4 ADD PUSH1 0x40 MLOAD DUP1 SWAP2 SUB SWAP1 REVERT JUMPDEST DUP3 PUSH20 0xFFFFFFFFFFFFFFFFFFFFFFFFFFFFFFFFFFFFFFFF AND PUSH1 0x80 DUP2 PUSH20 0xFFFFFFFFFFFFFFFFFFFFFFFFFFFFFFFFFFFFFFFF AND DUP2 MSTORE POP POP DUP2 PUSH20 0xFFFFFFFFFFFFFFFFFFFFFFFFFFFFFFFFFFFFFFFF AND PUSH1 0xA0 DUP2 PUSH20 0xFFFFFFFFFFFFFFFFFFFFFFFFFFFFFFFFFFFFFFFF AND DUP2 MSTORE POP POP DUP1 PUSH1 0x1 PUSH1 0x0 PUSH2 0x100 EXP DUP2 SLOAD DUP2 PUSH20 0xFFFFFFFFFFFFFFFFFFFFFFFFFFFFFFFFFFFFFFFF MUL NOT AND SWAP1 DUP4 PUSH20 0xFFFFFFFFFFFFFFFFFFFFFFFFFFFFFFFFFFFFFFFF AND MUL OR SWAP1 SSTORE POP PUSH2 0x7D0 PUSH1 0x3 DUP2 SWAP1 SSTORE POP PUSH3 0x250 PUSH32 0xA49807205CE4D355092EF5A8A18F56E8913CF4A201FBE287825B095693C21775 CALLER PUSH3 0x3F4 PUSH1 0x20 SHL PUSH1 0x20 SHR JUMP JUMPDEST PUSH3 0x282 PUSH32 0x97667070C54EF182B0F5858B034BEAC1B6F3089AA2D3188BB1E8929F4FA9B929 CALLER PUSH3 0x3F4 PUSH1 0x20 SHL PUSH1 0x20 SHR JUMP JUMPDEST PUSH3 0x2B4 PUSH32 0x55435DD261A4B9B3364963F7738A7A662AD9C84396D64BE3365284BB7F0A5041 CALLER PUSH3 0x3F4 PUSH1 0x20 SHL PUSH1 0x20 SHR JUMP JUMPDEST PUSH1 0x1 PUSH1 0xA DUP2 SWAP1 SSTORE POP PUSH9 0x56BC75E2D63100000 PUSH1 0x2 PUSH1 0x0 DUP1 PUSH1 0x3 DUP2 GT ISZERO PUSH3 0x2E0 JUMPI PUSH3 0x2DF PUSH3 0x56A JUMP JUMPDEST JUMPDEST PUSH1 0x3 DUP2 GT ISZERO PUSH3 0x2F5 JUMPI PUSH3 0x2F4 PUSH3 0x56A JUMP JUMPDEST JUMPDEST DUP2 MSTORE PUSH1 0x20 ADD SWAP1 DUP2 MSTORE PUSH1 0x20 ADD PUSH1 0x0 KECCAK256 DUP2 SWAP1 SSTORE POP PUSH9 0x1B1AE4D6E2EF500000 PUSH1 0x2 PUSH1 0x0 PUSH1 0x1 PUSH1 0x3 DUP2 GT ISZERO PUSH3 0x32C JUMPI PUSH3 0x32B PUSH3 0x56A JUMP JUMPDEST JUMPDEST PUSH1 0x3 DUP2 GT ISZERO PUSH3 0x341 JUMPI PUSH3 0x340 PUSH3 0x56A JUMP JUMPDEST JUMPDEST DUP2 MSTORE PUSH1 0x20 ADD SWAP1 DUP2 MSTORE PUSH1 0x20 ADD PUSH1 0x0 KECCAK256 DUP2 SWAP1 SSTORE POP PUSH9 0x6C6B935B8BBD400000 PUSH1 0x2 PUSH1 0x0 PUSH1 0x2 PUSH1 0x3 DUP2 GT ISZERO PUSH3 0x378 JUMPI PUSH3 0x377 PUSH3 0x56A JUMP JUMPDEST JUMPDEST PUSH1 0x3 DUP2 GT ISZERO PUSH3 0x38D JUMPI PUSH3 0x38C PUSH3 0x56A JUMP JUMPDEST JUMPDEST DUP2 MSTORE PUSH1 0x20 ADD SWAP1 DUP2 MSTORE PUSH1 0x20 ADD PUSH1 0x0 KECCAK256 DUP2 SWAP1 SSTORE POP PUSH10 0x21E19E0C9BAB2400000 PUSH1 0x2 PUSH1 0x0 PUSH1 0x3 DUP1 DUP2 GT ISZERO PUSH3 0x3C4 JUMPI PUSH3 0x3C3 PUSH3 0x56A JUMP JUMPDEST JUMPDEST PUSH1 0x3 DUP2 GT ISZERO PUSH3 0x3D9 JUMPI PUSH3 0x3D8 PUSH3 0x56A JUMP JUMPDEST JUMPDEST DUP2 MSTORE PUSH1 0x20 ADD SWAP1 DUP2 MSTORE PUSH1 0x20 ADD PUSH1 0x0 KECCAK256 DUP2 SWAP1 SSTORE POP POP POP POP PUSH3 0x599 JUMP JUMPDEST PUSH1 0x1 PUSH1 0x0 DUP1 DUP5 DUP2 MSTORE PUSH1 0x20 ADD SWAP1 DUP2 MSTORE PUSH1 0x20 ADD PUSH1 0x0 KECCAK256 PUSH1 0x0 DUP4 PUSH20 0xFFFFFFFFFFFFFFFFFFFFFFFFFFFFFFFFFFFFFFFF AND PUSH20 0xFFFFFFFFFFFFFFFFFFFFFFFFFFFFFFFFFFFFFFFF AND DUP2 MSTORE PUSH1 0x20 ADD SWAP1 DUP2 MSTORE PUSH1 0x20 ADD PUSH1 0x0 KECCAK256 PUSH1 0x0 PUSH2 0x100 EXP DUP2 SLOAD DUP2 PUSH1 0xFF MUL NOT AND SWAP1 DUP4 ISZERO ISZERO MUL OR SWAP1 SSTORE POP DUP1 PUSH20 0xFFFFFFFFFFFFFFFFFFFFFFFFFFFFFFFFFFFFFFFF AND DUP3 PUSH32 0x2AE6A113C0ED5B78A53413FFBB7679881F11145CCFBA4FB92E863DFCD5A1D2F3 PUSH1 0x40 MLOAD PUSH1 0x40 MLOAD DUP1 SWAP2 SUB SWAP1 LOG3 POP POP JUMP JUMPDEST PUSH1 0x0 DUP1 REVERT JUMPDEST PUSH1 0x0 PUSH20 0xFFFFFFFFFFFFFFFFFFFFFFFFFFFFFFFFFFFFFFFF DUP3 AND SWAP1 POP SWAP2 SWAP1 POP JUMP JUMPDEST PUSH1 0x0 PUSH3 0x4D6 DUP3 PUSH3 0x4A9 JUMP JUMPDEST SWAP1 POP SWAP2 SWAP1 POP JUMP JUMPDEST PUSH3 0x4E8 DUP2 PUSH3 0x4C9 JUMP JUMPDEST DUP2 EQ PUSH3 0x4F4 JUMPI PUSH1 0x0 DUP1 REVERT JUMPDEST POP JUMP JUMPDEST PUSH1 0x0 DUP2 MLOAD SWAP1 POP PUSH3 0x508 DUP2 PUSH3 0x4DD JUMP JUMPDEST SWAP3 SWAP2 POP POP JUMP JUMPDEST PUSH1 0x0 DUP1 PUSH1 0x0 PUSH1 0x60 DUP5 DUP7 SUB SLT ISZERO PUSH3 0x52A JUMPI PUSH3 0x529 PUSH3 0x4A4 JUMP JUMPDEST JUMPDEST PUSH1 0x0 PUSH3 0x53A DUP7 DUP3 DUP8 ADD PUSH3 0x4F7 JUMP JUMPDEST SWAP4 POP POP PUSH1 0x20 PUSH3 0x54D DUP7 DUP3 DUP8 ADD PUSH3 0x4F7 JUMP JUMPDEST SWAP3 POP POP PUSH1 0x40 PUSH3 0x560 DUP7 DUP3 DUP8 ADD PUSH3 0x4F7 JUMP JUMPDEST SWAP2 POP POP SWAP3 POP SWAP3 POP SWAP3 JUMP JUMPDEST PUSH32 0x4E487B7100000000000000000000000000000000000000000000000000000000 PUSH1 0x0 MSTORE PUSH1 0x21 PUSH1 0x4 MSTORE PUSH1 0x24 PUSH1 0x0 REVERT JUMPDEST PUSH1 0x80 MLOAD PUSH1 0xA0 MLOAD PUSH2 0x2E75 PUSH3 0x61A PUSH1 0x0 CODECOPY PUSH1 0x0 DUP2 DUP2 PUSH2 0x70F ADD MSTORE DUP2 DUP2 PUSH2 0x805 ADD MSTORE DUP2 DUP2 PUSH2 0xA1C ADD MSTORE DUP2 DUP2 PUSH2 0xC3F ADD MSTORE DUP2 DUP2 PUSH2 0xD84 ADD MSTORE DUP2 DUP2 PUSH2 0x124D ADD MSTORE DUP2 DUP2 PUSH2 0x17D5 ADD MSTORE DUP2 DUP2 PUSH2 0x18CB ADD MSTORE PUSH2 0x1B1B ADD MSTORE PUSH1 0x0 DUP2 DUP2 PUSH2 0x11A3 ADD MSTORE DUP2 DUP2 PUSH2 0x1A60 ADD MSTORE DUP2 DUP2 PUSH2 0x1FC3 ADD MSTORE DUP2 DUP2 PUSH2 0x2099 ADD MSTORE DUP2 DUP2 PUSH2 0x21AF ADD MSTORE PUSH2 0x2256 ADD MSTORE PUSH2 0x2E75 PUSH1 0x0 RETURN INVALID PUSH1 0x80 PUSH1 0x40 MSTORE CALLVALUE DUP1 ISZERO PUSH2 0x10 JUMPI PUSH1 0x0 DUP1 REVERT JUMPDEST POP PUSH1 0x4 CALLDATASIZE LT PUSH2 0x1CF JUMPI PUSH1 0x0 CALLDATALOAD PUSH1 0xE0 SHR DUP1 PUSH4 0x8456CB59 GT PUSH2 0x104 JUMPI DUP1 PUSH4 0xC731CD4D GT PUSH2 0xA2 JUMPI DUP1 PUSH4 0xED498FA8 GT PUSH2 0x71 JUMPI DUP1 PUSH4 0xED498FA8 EQ PUSH2 0x4E9 JUMPI DUP1 PUSH4 0xF0F44260 EQ PUSH2 0x519 JUMPI DUP1 PUSH4 0xF5B541A6 EQ PUSH2 0x535 JUMPI DUP1 PUSH4 0xFC0C546A EQ PUSH2 0x553 JUMPI PUSH2 0x1CF JUMP JUMPDEST DUP1 PUSH4 0xC731CD4D EQ PUSH2 0x475 JUMPI DUP1 PUSH4 0xD547741F EQ PUSH2 0x491 JUMPI DUP1 PUSH4 0xD89135CD EQ PUSH2 0x4AD JUMPI DUP1 PUSH4 0xE4786A5E EQ PUSH2 0x4CB JUMPI PUSH2 0x1CF JUMP JUMPDEST DUP1 PUSH4 0x9370131F GT PUSH2 0xDE JUMPI DUP1 PUSH4 0x9370131F EQ PUSH2 0x3EC JUMPI DUP1 PUSH4 0xA7D6EF68 EQ PUSH2 0x408 JUMPI DUP1 PUSH4 0xBF2D9E0B EQ PUSH2 0x426 JUMPI DUP1 PUSH4 0xC2AF1A6B EQ PUSH2 0x444 JUMPI PUSH2 0x1CF JUMP JUMPDEST DUP1 PUSH4 0x8456CB59 EQ PUSH2 0x382 JUMPI DUP1 PUSH4 0x8B542526 EQ PUSH2 0x38C JUMPI DUP1 PUSH4 0x91D14854 EQ PUSH2 0x3BC JUMPI PUSH2 0x1CF JUMP JUMPDEST DUP1 PUSH4 0x4A5C6F8C GT PUSH2 0x171 JUMPI DUP1 PUSH4 0x6637E38C GT PUSH2 0x14B JUMPI DUP1 PUSH4 0x6637E38C EQ PUSH2 0x2F8 JUMPI DUP1 PUSH4 0x712AFFE1 EQ PUSH2 0x316 JUMPI DUP1 PUSH4 0x75B238FC EQ PUSH2 0x346 JUMPI DUP1 PUSH4 0x7C8CDC00 EQ PUSH2 0x364 JUMPI PUSH2 0x1CF JUMP JUMPDEST DUP1 PUSH4 0x4A5C6F8C EQ PUSH2 0x2A0 JUMPI DUP1 PUSH4 0x5C975ABB EQ PUSH2 0x2BC JUMPI DUP1 PUSH4 0x61D027B3 EQ PUSH2 0x2DA JUMPI PUSH2 0x1CF JUMP JUMPDEST DUP1 PUSH4 0x36F005AA GT PUSH2 0x1AD JUMPI DUP1 PUSH4 0x36F005AA EQ PUSH2 0x22C JUMPI DUP1 PUSH4 0x3F4BA83A EQ PUSH2 0x248 JUMPI DUP1 PUSH4 0x47CCCA02 EQ PUSH2 0x252 JUMPI DUP1 PUSH4 0x49C7E639 EQ PUSH2 0x270 JUMPI PUSH2 0x1CF JUMP JUMPDEST DUP1 PUSH4 0x1328B870 EQ PUSH2 0x1D4 JUMPI DUP1 PUSH4 0x24EA54F4 EQ PUSH2 0x1F2 JUMPI DUP1 PUSH4 0x2F2FF15D EQ PUSH2 0x210 JUMPI JUMPDEST PUSH1 0x0 DUP1 REVERT JUMPDEST PUSH2 0x1DC PUSH2 0x571 JUMP JUMPDEST PUSH1 0x40 MLOAD PUSH2 0x1E9 SWAP2 SWAP1 PUSH2 0x236D JUMP JUMPDEST PUSH1 0x40 MLOAD DUP1 SWAP2 SUB SWAP1 RETURN JUMPDEST PUSH2 0x1FA PUSH2 0x577 JUMP JUMPDEST PUSH1 0x40 MLOAD PUSH2 0x207 SWAP2 SWAP1 PUSH2 0x23A1 JUMP JUMPDEST PUSH1 0x40 MLOAD DUP1 SWAP2 SUB SWAP1 RETURN JUMPDEST PUSH2 0x22A PUSH1 0x4 DUP1 CALLDATASIZE SUB DUP2 ADD SWAP1 PUSH2 0x225 SWAP2 SWAP1 PUSH2 0x244B JUMP JUMPDEST PUSH2 0x59B JUMP JUMPDEST STOP JUMPDEST PUSH2 0x246 PUSH1 0x4 DUP1 CALLDATASIZE SUB DUP2 ADD SWAP1 PUSH2 0x241 SWAP2 SWAP1 PUSH2 0x24DC JUMP JUMPDEST PUSH2 0x66B JUMP JUMPDEST STOP JUMPDEST PUSH2 0x250 PUSH2 0xB1B JUMP JUMPDEST STOP JUMPDEST PUSH2 0x25A PUSH2 0xC3D JUMP JUMPDEST PUSH1 0x40 MLOAD PUSH2 0x267 SWAP2 SWAP1 PUSH2 0x257B JUMP JUMPDEST PUSH1 0x40 MLOAD DUP1 SWAP2 SUB SWAP1 RETURN JUMPDEST PUSH2 0x28A PUSH1 0x4 DUP1 CALLDATASIZE SUB DUP2 ADD SWAP1 PUSH2 0x285 SWAP2 SWAP1 PUSH2 0x2596 JUMP JUMPDEST PUSH2 0xC61 JUMP JUMPDEST PUSH1 0x40 MLOAD PUSH2 0x297 SWAP2 SWAP1 PUSH2 0x236D JUMP JUMPDEST PUSH1 0x40 MLOAD DUP1 SWAP2 SUB SWAP1 RETURN JUMPDEST PUSH2 0x2BA PUSH1 0x4 DUP1 CALLDATASIZE SUB DUP2 ADD SWAP1 PUSH2 0x2B5 SWAP2 SWAP1 PUSH2 0x25C3 JUMP JUMPDEST PUSH2 0xF08 JUMP JUMPDEST STOP JUMPDEST PUSH2 0x2C4 PUSH2 0x1054 JUMP JUMPDEST PUSH1 0x40 MLOAD PUSH2 0x2D1 SWAP2 SWAP1 PUSH2 0x261E JUMP JUMPDEST PUSH1 0x40 MLOAD DUP1 SWAP2 SUB SWAP1 RETURN JUMPDEST PUSH2 0x2E2 PUSH2 0x1067 JUMP JUMPDEST PUSH1 0x40 MLOAD PUSH2 0x2EF SWAP2 SWAP1 PUSH2 0x2648 JUMP JUMPDEST PUSH1 0x40 MLOAD DUP1 SWAP2 SUB SWAP1 RETURN JUMPDEST PUSH2 0x300 PUSH2 0x108D JUMP JUMPDEST PUSH1 0x40 MLOAD PUSH2 0x30D SWAP2 SWAP1 PUSH2 0x236D JUMP JUMPDEST PUSH1 0x40 MLOAD DUP1 SWAP2 SUB SWAP1 RETURN JUMPDEST PUSH2 0x330 PUSH1 0x4 DUP1 CALLDATASIZE SUB DUP2 ADD SWAP1 PUSH2 0x32B SWAP2 SWAP1 PUSH2 0x269C JUMP JUMPDEST PUSH2 0x1093 JUMP JUMPDEST PUSH1 0x40 MLOAD PUSH2 0x33D SWAP2 SWAP1 PUSH2 0x236D JUMP JUMPDEST PUSH1 0x40 MLOAD DUP1 SWAP2 SUB SWAP1 RETURN JUMPDEST PUSH2 0x34E PUSH2 0x13D5 JUMP JUMPDEST PUSH1 0x40 MLOAD PUSH2 0x35B SWAP2 SWAP1 PUSH2 0x23A1 JUMP JUMPDEST PUSH1 0x40 MLOAD DUP1 SWAP2 SUB SWAP1 RETURN JUMPDEST PUSH2 0x36C PUSH2 0x13F9 JUMP JUMPDEST PUSH1 0x40 MLOAD PUSH2 0x379 SWAP2 SWAP1 PUSH2 0x236D JUMP JUMPDEST PUSH1 0x40 MLOAD DUP1 SWAP2 SUB SWAP1 RETURN JUMPDEST PUSH2 0x38A PUSH2 0x13FF JUMP JUMPDEST STOP JUMPDEST PUSH2 0x3A6 PUSH1 0x4 DUP1 CALLDATASIZE SUB DUP2 ADD SWAP1 PUSH2 0x3A1 SWAP2 SWAP1 PUSH2 0x2596 JUMP JUMPDEST PUSH2 0x1521 JUMP JUMPDEST PUSH1 0x40 MLOAD PUSH2 0x3B3 SWAP2 SWAP1 PUSH2 0x236D JUMP JUMPDEST PUSH1 0x40 MLOAD DUP1 SWAP2 SUB SWAP1 RETURN JUMPDEST PUSH2 0x3D6 PUSH1 0x4 DUP1 CALLDATASIZE SUB DUP2 ADD SWAP1 PUSH2 0x3D1 SWAP2 SWAP1 PUSH2 0x244B JUMP JUMPDEST PUSH2 0x1539 JUMP JUMPDEST PUSH1 0x40 MLOAD PUSH2 0x3E3 SWAP2 SWAP1 PUSH2 0x261E JUMP JUMPDEST PUSH1 0x40 MLOAD DUP1 SWAP2 SUB SWAP1 RETURN JUMPDEST PUSH2 0x406 PUSH1 0x4 DUP1 CALLDATASIZE SUB DUP2 ADD SWAP1 PUSH2 0x401 SWAP2 SWAP1 PUSH2 0x2717 JUMP JUMPDEST PUSH2 0x15A0 JUMP JUMPDEST STOP JUMPDEST PUSH2 0x410 PUSH2 0x16F2 JUMP JUMPDEST PUSH1 0x40 MLOAD PUSH2 0x41D SWAP2 SWAP1 PUSH2 0x236D JUMP JUMPDEST PUSH1 0x40 MLOAD DUP1 SWAP2 SUB SWAP1 RETURN JUMPDEST PUSH2 0x42E PUSH2 0x16F8 JUMP JUMPDEST PUSH1 0x40 MLOAD PUSH2 0x43B SWAP2 SWAP1 PUSH2 0x236D JUMP JUMPDEST PUSH1 0x40 MLOAD DUP1 SWAP2 SUB SWAP1 RETURN JUMPDEST PUSH2 0x45E PUSH1 0x4 DUP1 CALLDATASIZE SUB DUP2 ADD SWAP1 PUSH2 0x459 SWAP2 SWAP1 PUSH2 0x2717 JUMP JUMPDEST PUSH2 0x16FE JUMP JUMPDEST PUSH1 0x40 MLOAD PUSH2 0x46C SWAP3 SWAP2 SWAP1 PUSH2 0x2744 JUMP JUMPDEST PUSH1 0x40 MLOAD DUP1 SWAP2 SUB SWAP1 RETURN JUMPDEST PUSH2 0x48F PUSH1 0x4 DUP1 CALLDATASIZE SUB DUP2 ADD SWAP1 PUSH2 0x48A SWAP2 SWAP1 PUSH2 0x276D JUMP JUMPDEST PUSH2 0x1731 JUMP JUMPDEST STOP JUMPDEST PUSH2 0x4AB PUSH1 0x4 DUP1 CALLDATASIZE SUB DUP2 ADD SWAP1 PUSH2 0x4A6 SWAP2 SWAP1 PUSH2 0x244B JUMP JUMPDEST PUSH2 0x1C1C JUMP JUMPDEST STOP JUMPDEST PUSH2 0x4B5 PUSH2 0x1D8E JUMP JUMPDEST PUSH1 0x40 MLOAD PUSH2 0x4C2 SWAP2 SWAP1 PUSH2 0x236D JUMP JUMPDEST PUSH1 0x40 MLOAD DUP1 SWAP2 SUB SWAP1 RETURN JUMPDEST PUSH2 0x4D3 PUSH2 0x1D94 JUMP JUMPDEST PUSH1 0x40 MLOAD PUSH2 0x4E0 SWAP2 SWAP1 PUSH2 0x236D JUMP JUMPDEST PUSH1 0x40 MLOAD DUP1 SWAP2 SUB SWAP1 RETURN JUMPDEST PUSH2 0x503 PUSH1 0x4 DUP1 CALLDATASIZE SUB DUP2 ADD SWAP1 PUSH2 0x4FE SWAP2 SWAP1 PUSH2 0x27FA JUMP JUMPDEST PUSH2 0x1D9A JUMP JUMPDEST PUSH1 0x40 MLOAD PUSH2 0x510 SWAP2 SWAP1 PUSH2 0x28E5 JUMP JUMPDEST PUSH1 0x40 MLOAD DUP1 SWAP2 SUB SWAP1 RETURN JUMPDEST PUSH2 0x533 PUSH1 0x4 DUP1 CALLDATASIZE SUB DUP2 ADD SWAP1 PUSH2 0x52E SWAP2 SWAP1 PUSH2 0x27FA JUMP JUMPDEST PUSH2 0x1E31 JUMP JUMPDEST STOP JUMPDEST PUSH2 0x53D PUSH2 0x1F9D JUMP JUMPDEST PUSH1 0x40 MLOAD PUSH2 0x54A SWAP2 SWAP1 PUSH2 0x23A1 JUMP JUMPDEST PUSH1 0x40 MLOAD DUP1 SWAP2 SUB SWAP1 RETURN JUMPDEST PUSH2 0x55B PUSH2 0x1FC1 JUMP JUMPDEST PUSH1 0x40 MLOAD PUSH2 0x568 SWAP2 SWAP1 PUSH2 0x2928 JUMP JUMPDEST PUSH1 0x40 MLOAD DUP1 SWAP2 SUB SWAP1 RETURN JUMPDEST PUSH1 0x6 SLOAD DUP2 JUMP JUMPDEST PUSH32 0x55435DD261A4B9B3364963F7738A7A662AD9C84396D64BE3365284BB7F0A5041 DUP2 JUMP JUMPDEST PUSH32 0xA49807205CE4D355092EF5A8A18F56E8913CF4A201FBE287825B095693C21775 PUSH1 0x0 DUP1 DUP3 DUP2 MSTORE PUSH1 0x20 ADD SWAP1 DUP2 MSTORE PUSH1 0x20 ADD PUSH1 0x0 KECCAK256 PUSH1 0x0 CALLER PUSH20 0xFFFFFFFFFFFFFFFFFFFFFFFFFFFFFFFFFFFFFFFF AND PUSH20 0xFFFFFFFFFFFFFFFFFFFFFFFFFFFFFFFFFFFFFFFF AND DUP2 MSTORE PUSH1 0x20 ADD SWAP1 DUP2 MSTORE PUSH1 0x20 ADD PUSH1 0x0 KECCAK256 PUSH1 0x0 SWAP1 SLOAD SWAP1 PUSH2 0x100 EXP SWAP1 DIV PUSH1 0xFF AND PUSH2 0x65C JUMPI CALLER DUP2 PUSH1 0x40 MLOAD PUSH32 0x245329C600000000000000000000000000000000000000000000000000000000 DUP2 MSTORE PUSH1 0x4 ADD PUSH2 0x653 SWAP3 SWAP2 SWAP1 PUSH2 0x2943 JUMP JUMPDEST PUSH1 0x40 MLOAD DUP1 SWAP2 SUB SWAP1 REVERT JUMPDEST PUSH2 0x666 DUP4 DUP4 PUSH2 0x1FE5 JUMP JUMPDEST POP POP POP JUMP JUMPDEST PUSH1 0x9 PUSH1 0x0 SWAP1 SLOAD SWAP1 PUSH2 0x100 EXP SWAP1 DIV PUSH1 0xFF AND ISZERO PUSH2 0x6B2 JUMPI PUSH1 0x40 MLOAD PUSH32 0x8AE7ACEA00000000000000000000000000000000000000000000000000000000 DUP2 MSTORE PUSH1 0x4 ADD PUSH1 0x40 MLOAD DUP1 SWAP2 SUB SWAP1 REVERT JUMPDEST PUSH1 0x2 PUSH1 0xA SLOAD SUB PUSH2 0x6EE JUMPI PUSH1 0x40 MLOAD PUSH32 0x8BEB9D1600000000000000000000000000000000000000000000000000000000 DUP2 MSTORE PUSH1 0x4 ADD PUSH1 0x40 MLOAD DUP1 SWAP2 SUB SWAP1 REVERT JUMPDEST PUSH1 0x2 PUSH1 0xA DUP2 SWAP1 SSTORE POP CALLER PUSH20 0xFFFFFFFFFFFFFFFFFFFFFFFFFFFFFFFFFFFFFFFF AND PUSH32 0x0 PUSH20 0xFFFFFFFFFFFFFFFFFFFFFFFFFFFFFFFFFFFFFFFF AND PUSH4 0x6352211E DUP5 PUSH1 0x40 MLOAD DUP3 PUSH4 0xFFFFFFFF AND PUSH1 0xE0 SHL DUP2 MSTORE PUSH1 0x4 ADD PUSH2 0x766 SWAP2 SWAP1 PUSH2 0x236D JUMP JUMPDEST PUSH1 0x20 PUSH1 0x40 MLOAD DUP1 DUP4 SUB DUP2 DUP7 GAS STATICCALL ISZERO DUP1 ISZERO PUSH2 0x783 JUMPI RETURNDATASIZE PUSH1 0x0 DUP1 RETURNDATACOPY RETURNDATASIZE PUSH1 0x0 REVERT JUMPDEST POP POP POP POP PUSH1 0x40 MLOAD RETURNDATASIZE PUSH1 0x1F NOT PUSH1 0x1F DUP3 ADD AND DUP3 ADD DUP1 PUSH1 0x40 MSTORE POP DUP2 ADD SWAP1 PUSH2 0x7A7 SWAP2 SWAP1 PUSH2 0x2981 JUMP JUMPDEST PUSH20 0xFFFFFFFFFFFFFFFFFFFFFFFFFFFFFFFFFFFFFFFF AND EQ PUSH2 0x801 JUMPI CALLER DUP3 PUSH1 0x40 MLOAD PUSH32 0x58A5E22200000000000000000000000000000000000000000000000000000000 DUP2 MSTORE PUSH1 0x4 ADD PUSH2 0x7F8 SWAP3 SWAP2 SWAP1 PUSH2 0x29AE JUMP JUMPDEST PUSH1 0x40 MLOAD DUP1 SWAP2 SUB SWAP1 REVERT JUMPDEST PUSH1 0x0 PUSH32 0x0 PUSH20 0xFFFFFFFFFFFFFFFFFFFFFFFFFFFFFFFFFFFFFFFF AND PUSH4 0xB4B5B48F DUP5 PUSH1 0x40 MLOAD DUP3 PUSH4 0xFFFFFFFF AND PUSH1 0xE0 SHL DUP2 MSTORE PUSH1 0x4 ADD PUSH2 0x85C SWAP2 SWAP1 PUSH2 0x236D JUMP JUMPDEST PUSH1 0x60 PUSH1 0x40 MLOAD DUP1 DUP4 SUB DUP2 DUP7 GAS STATICCALL ISZERO DUP1 ISZERO PUSH2 0x879 JUMPI RETURNDATASIZE PUSH1 0x0 DUP1 RETURNDATACOPY RETURNDATASIZE PUSH1 0x0 REVERT JUMPDEST POP POP POP POP PUSH1 0x40 MLOAD RETURNDATASIZE PUSH1 0x1F NOT PUSH1 0x1F DUP3 ADD AND DUP3 ADD DUP1 PUSH1 0x40 MSTORE POP DUP2 ADD SWAP1 PUSH2 0x89D SWAP2 SWAP1 PUSH2 0x2A2A JUMP JUMPDEST POP POP SWAP1 POP DUP1 PUSH1 0x3 DUP2 GT ISZERO PUSH2 0x8B4 JUMPI PUSH2 0x8B3 PUSH2 0x2A7D JUMP JUMPDEST JUMPDEST PUSH1 0xFF AND DUP3 PUSH1 0x3 DUP2 GT ISZERO PUSH2 0x8CA JUMPI PUSH2 0x8C9 PUSH2 0x2A7D JUMP JUMPDEST JUMPDEST PUSH1 0xFF AND GT PUSH2 0x911 JUMPI DUP1 DUP3 PUSH1 0x40 MLOAD PUSH32 0x1D17462300000000000000000000000000000000000000000000000000000000 DUP2 MSTORE PUSH1 0x4 ADD PUSH2 0x908 SWAP3 SWAP2 SWAP1 PUSH2 0x2AF4 JUMP JUMPDEST PUSH1 0x40 MLOAD DUP1 SWAP2 SUB SWAP1 REVERT JUMPDEST PUSH1 0x0 PUSH1 0x2 PUSH1 0x0 DUP4 PUSH1 0x3 DUP2 GT ISZERO PUSH2 0x92A JUMPI PUSH2 0x929 PUSH2 0x2A7D JUMP JUMPDEST JUMPDEST PUSH1 0x3 DUP2 GT ISZERO PUSH2 0x93C JUMPI PUSH2 0x93B PUSH2 0x2A7D JUMP JUMPDEST JUMPDEST DUP2 MSTORE PUSH1 0x20 ADD SWAP1 DUP2 MSTORE PUSH1 0x20 ADD PUSH1 0x0 KECCAK256 SLOAD SWAP1 POP PUSH1 0x0 PUSH1 0x2 PUSH1 0x0 DUP6 PUSH1 0x3 DUP2 GT ISZERO PUSH2 0x966 JUMPI PUSH2 0x965 PUSH2 0x2A7D JUMP JUMPDEST JUMPDEST PUSH1 0x3 DUP2 GT ISZERO PUSH2 0x978 JUMPI PUSH2 0x977 PUSH2 0x2A7D JUMP JUMPDEST JUMPDEST DUP2 MSTORE PUSH1 0x20 ADD SWAP1 DUP2 MSTORE PUSH1 0x20 ADD PUSH1 0x0 KECCAK256 SLOAD SWAP1 POP PUSH1 0x0 DUP2 SUB PUSH2 0x9CE JUMPI DUP4 PUSH1 0x40 MLOAD PUSH32 0xE997A2D100000000000000000000000000000000000000000000000000000000 DUP2 MSTORE PUSH1 0x4 ADD PUSH2 0x9C5 SWAP2 SWAP1 PUSH2 0x2B1D JUMP JUMPDEST PUSH1 0x40 MLOAD DUP1 SWAP2 SUB SWAP1 REVERT JUMPDEST PUSH1 0x0 DUP3 DUP3 GT PUSH2 0x9DE JUMPI PUSH1 0x0 PUSH2 0x9EB JUMP JUMPDEST DUP3 DUP3 PUSH2 0x9EA SWAP2 SWAP1 PUSH2 0x2B67 JUMP JUMPDEST JUMPDEST SWAP1 POP PUSH1 0x0 DUP2 GT ISZERO PUSH2 0xA1A JUMPI PUSH2 0xA00 CALLER DUP3 PUSH2 0x2095 JUMP JUMPDEST PUSH2 0xA09 DUP2 PUSH2 0x2175 JUMP JUMPDEST DUP1 PUSH1 0x4 PUSH1 0x0 DUP3 DUP3 SLOAD ADD SWAP3 POP POP DUP2 SWAP1 SSTORE POP JUMPDEST PUSH32 0x0 PUSH20 0xFFFFFFFFFFFFFFFFFFFFFFFFFFFFFFFFFFFFFFFF AND PUSH4 0x36F005AA DUP8 DUP8 PUSH1 0x40 MLOAD DUP4 PUSH4 0xFFFFFFFF AND PUSH1 0xE0 SHL DUP2 MSTORE PUSH1 0x4 ADD PUSH2 0xA75 SWAP3 SWAP2 SWAP1 PUSH2 0x2B9B JUMP JUMPDEST PUSH1 0x0 PUSH1 0x40 MLOAD DUP1 DUP4 SUB DUP2 PUSH1 0x0 DUP8 DUP1 EXTCODESIZE ISZERO DUP1 ISZERO PUSH2 0xA8F JUMPI PUSH1 0x0 DUP1 REVERT JUMPDEST POP GAS CALL ISZERO DUP1 ISZERO PUSH2 0xAA3 JUMPI RETURNDATASIZE PUSH1 0x0 DUP1 RETURNDATACOPY RETURNDATASIZE PUSH1 0x0 REVERT JUMPDEST POP POP POP POP PUSH1 0x1 PUSH1 0x7 PUSH1 0x0 DUP3 DUP3 SLOAD ADD SWAP3 POP POP DUP2 SWAP1 SSTORE POP DUP6 CALLER PUSH20 0xFFFFFFFFFFFFFFFFFFFFFFFFFFFFFFFFFFFFFFFF AND PUSH32 0x5EE94686AA32F355E68922C1056E700853C34EB0344C03B99473FDB747216C97 DUP7 DUP9 DUP6 PUSH1 0x40 MLOAD PUSH2 0xB03 SWAP4 SWAP3 SWAP2 SWAP1 PUSH2 0x2BC4 JUMP JUMPDEST PUSH1 0x40 MLOAD DUP1 SWAP2 SUB SWAP1 LOG3 POP POP POP POP PUSH1 0x1 PUSH1 0xA DUP2 SWAP1 SSTORE POP POP POP JUMP JUMPDEST PUSH32 0x55435DD261A4B9B3364963F7738A7A662AD9C84396D64BE3365284BB7F0A5041 PUSH1 0x0 DUP1 DUP3 DUP2 MSTORE PUSH1 0x20 ADD SWAP1 DUP2 MSTORE PUSH1 0x20 ADD PUSH1 0x0 KECCAK256 PUSH1 0x0 CALLER PUSH20 0xFFFFFFFFFFFFFFFFFFFFFFFFFFFFFFFFFFFFFFFF AND PUSH20 0xFFFFFFFFFFFFFFFFFFFFFFFFFFFFFFFFFFFFFFFF AND DUP2 MSTORE PUSH1 0x20 ADD SWAP1 DUP2 MSTORE PUSH1 0x20 ADD PUSH1 0x0 KECCAK256 PUSH1 0x0 SWAP1 SLOAD SWAP1 PUSH2 0x100 EXP SWAP1 DIV PUSH1 0xFF AND PUSH2 0xBDC JUMPI CALLER DUP2 PUSH1 0x40 MLOAD PUSH32 0x245329C600000000000000000000000000000000000000000000000000000000 DUP2 MSTORE PUSH1 0x4 ADD PUSH2 0xBD3 SWAP3 SWAP2 SWAP1 PUSH2 0x2943 JUMP JUMPDEST PUSH1 0x40 MLOAD DUP1 SWAP2 SUB SWAP1 REVERT JUMPDEST PUSH1 0x0 PUSH1 0x9 PUSH1 0x0 PUSH2 0x100 EXP DUP2 SLOAD DUP2 PUSH1 0xFF MUL NOT AND SWAP1 DUP4 ISZERO ISZERO MUL OR SWAP1 SSTORE POP CALLER PUSH20 0xFFFFFFFFFFFFFFFFFFFFFFFFFFFFFFFFFFFFFFFF AND PUSH32 0x5DB9EE0A495BF2E6FF9C91A7834C1BA4FDD244A5E8AA4E537BD38AEAE4B073AA PUSH1 0x40 MLOAD PUSH1 0x40 MLOAD DUP1 SWAP2 SUB SWAP1 LOG2 POP JUMP JUMPDEST PUSH32 0x0 DUP2 JUMP JUMPDEST PUSH1 0x0 PUSH1 0x9 PUSH1 0x0 SWAP1 SLOAD SWAP1 PUSH2 0x100 EXP SWAP1 DIV PUSH1 0xFF AND ISZERO PUSH2 0xCAA JUMPI PUSH1 0x40 MLOAD PUSH32 0x8AE7ACEA00000000000000000000000000000000000000000000000000000000 DUP2 MSTORE PUSH1 0x4 ADD PUSH1 0x40 MLOAD DUP1 SWAP2 SUB SWAP1 REVERT JUMPDEST PUSH1 0x2 PUSH1 0xA SLOAD SUB PUSH2 0xCE6 JUMPI PUSH1 0x40 MLOAD PUSH32 0x8BEB9D1600000000000000000000000000000000000000000000000000000000 DUP2 MSTORE PUSH1 0x4 ADD PUSH1 0x40 MLOAD DUP1 SWAP2 SUB SWAP1 REVERT JUMPDEST PUSH1 0x2 PUSH1 0xA DUP2 SWAP1 SSTORE POP PUSH1 0x0 PUSH1 0x2 PUSH1 0x0 DUP5 PUSH1 0x3 DUP2 GT ISZERO PUSH2 0xD07 JUMPI PUSH2 0xD06 PUSH2 0x2A7D JUMP JUMPDEST JUMPDEST PUSH1 0x3 DUP2 GT ISZERO PUSH2 0xD19 JUMPI PUSH2 0xD18 PUSH2 0x2A7D JUMP JUMPDEST JUMPDEST DUP2 MSTORE PUSH1 0x20 ADD SWAP1 DUP2 MSTORE PUSH1 0x20 ADD PUSH1 0x0 KECCAK256 SLOAD SWAP1 POP PUSH1 0x0 DUP2 SUB PUSH2 0xD6F JUMPI DUP3 PUSH1 0x40 MLOAD PUSH32 0xE997A2D100000000000000000000000000000000000000000000000000000000 DUP2 MSTORE PUSH1 0x4 ADD PUSH2 0xD66 SWAP2 SWAP1 PUSH2 0x2B1D JUMP JUMPDEST PUSH1 0x40 MLOAD DUP1 SWAP2 SUB SWAP1 REVERT JUMPDEST PUSH2 0xD79 CALLER DUP3 PUSH2 0x2095 JUMP JUMPDEST PUSH2 0xD82 DUP2 PUSH2 0x2175 JUMP JUMPDEST PUSH32 0x0 PUSH20 0xFFFFFFFFFFFFFFFFFFFFFFFFFFFFFFFFFFFFFFFF AND PUSH4 0x691562A0 CALLER DUP6 PUSH1 0x40 MLOAD DUP4 PUSH4 0xFFFFFFFF AND PUSH1 0xE0 SHL DUP2 MSTORE PUSH1 0x4 ADD PUSH2 0xDDD SWAP3 SWAP2 SWAP1 PUSH2 0x2BFB JUMP JUMPDEST PUSH1 0x20 PUSH1 0x40 MLOAD DUP1 DUP4 SUB DUP2 PUSH1 0x0 DUP8 GAS CALL ISZERO DUP1 ISZERO PUSH2 0xDFC JUMPI RETURNDATASIZE PUSH1 0x0 DUP1 RETURNDATACOPY RETURNDATASIZE PUSH1 0x0 REVERT JUMPDEST POP POP POP POP PUSH1 0x40 MLOAD RETURNDATASIZE PUSH1 0x1F NOT PUSH1 0x1F DUP3 ADD AND DUP3 ADD DUP1 PUSH1 0x40 MSTORE POP DUP2 ADD SWAP1 PUSH2 0xE20 SWAP2 SWAP1 PUSH2 0x2C39 JUMP JUMPDEST SWAP2 POP PUSH1 0x8 PUSH1 0x0 CALLER PUSH20 0xFFFFFFFFFFFFFFFFFFFFFFFFFFFFFFFFFFFFFFFF AND PUSH20 0xFFFFFFFFFFFFFFFFFFFFFFFFFFFFFFFFFFFFFFFF AND DUP2 MSTORE PUSH1 0x20 ADD SWAP1 DUP2 MSTORE PUSH1 0x20 ADD PUSH1 0x0 KECCAK256 DUP3 SWAP1 DUP1 PUSH1 0x1 DUP2 SLOAD ADD DUP1 DUP3 SSTORE DUP1 SWAP2 POP POP PUSH1 0x1 SWAP1 SUB SWAP1 PUSH1 0x0 MSTORE PUSH1 0x20 PUSH1 0x0 KECCAK256 ADD PUSH1 0x0 SWAP1 SWAP2 SWAP1 SWAP2 SWAP1 SWAP2 POP SSTORE DUP1 PUSH1 0x4 PUSH1 0x0 DUP3 DUP3 SLOAD ADD SWAP3 POP POP DUP2 SWAP1 SSTORE POP PUSH1 0x1 PUSH1 0x6 PUSH1 0x0 DUP3 DUP3 SLOAD ADD SWAP3 POP POP DUP2 SWAP1 SSTORE POP DUP2 CALLER PUSH20 0xFFFFFFFFFFFFFFFFFFFFFFFFFFFFFFFFFFFFFFFF AND PUSH32 0xA49559C9BED52FE950333EBAA425E474DA1E08FF964D4069204DB0D40F2EB363 DUP6 DUP5 PUSH1 0x40 MLOAD PUSH2 0xEF2 SWAP3 SWAP2 SWAP1 PUSH2 0x2C66 JUMP JUMPDEST PUSH1 0x40 MLOAD DUP1 SWAP2 SUB SWAP1 LOG3 POP PUSH1 0x1 PUSH1 0xA DUP2 SWAP1 SSTORE POP SWAP2 SWAP1 POP JUMP JUMPDEST PUSH32 0x97667070C54EF182B0F5858B034BEAC1B6F3089AA2D3188BB1E8929F4FA9B929 PUSH1 0x0 DUP1 DUP3 DUP2 MSTORE PUSH1 0x20 ADD SWAP1 DUP2 MSTORE PUSH1 0x20 ADD PUSH1 0x0 KECCAK256 PUSH1 0x0 CALLER PUSH20 0xFFFFFFFFFFFFFFFFFFFFFFFFFFFFFFFFFFFFFFFF AND PUSH20 0xFFFFFFFFFFFFFFFFFFFFFFFFFFFFFFFFFFFFFFFF AND DUP2 MSTORE PUSH1 0x20 ADD SWAP1 DUP2 MSTORE PUSH1 0x20 ADD PUSH1 0x0 KECCAK256 PUSH1 0x0 SWAP1 SLOAD SWAP1 PUSH2 0x100 EXP SWAP1 DIV PUSH1 0xFF AND PUSH2 0xFC9 JUMPI CALLER DUP2 PUSH1 0x40 MLOAD PUSH32 0x245329C600000000000000000000000000000000000000000000000000000000 DUP2 MSTORE PUSH1 0x4 ADD PUSH2 0xFC0 SWAP3 SWAP2 SWAP1 PUSH2 0x2943 JUMP JUMPDEST PUSH1 0x40 MLOAD DUP1 SWAP2 SUB SWAP1 REVERT JUMPDEST DUP2 PUSH1 0x2 PUSH1 0x0 DUP6 PUSH1 0x3 DUP2 GT ISZERO PUSH2 0xFE1 JUMPI PUSH2 0xFE0 PUSH2 0x2A7D JUMP JUMPDEST JUMPDEST PUSH1 0x3 DUP2 GT ISZERO PUSH2 0xFF3 JUMPI PUSH2 0xFF2 PUSH2 0x2A7D JUMP JUMPDEST JUMPDEST DUP2 MSTORE PUSH1 0x20 ADD SWAP1 DUP2 MSTORE PUSH1 0x20 ADD PUSH1 0x0 KECCAK256 DUP2 SWAP1 SSTORE POP DUP3 PUSH1 0x3 DUP2 GT ISZERO PUSH2 0x1018 JUMPI PUSH2 0x1017 PUSH2 0x2A7D JUMP JUMPDEST JUMPDEST PUSH32 0x9B2AEAC57E3BC4CC557619887FE04FB4A5D6A7198DC9D52D71C288115F3BF7C7 DUP4 PUSH1 0x40 MLOAD PUSH2 0x1047 SWAP2 SWAP1 PUSH2 0x236D JUMP JUMPDEST PUSH1 0x40 MLOAD DUP1 SWAP2 SUB SWAP1 LOG2 POP POP POP JUMP JUMPDEST PUSH1 0x9 PUSH1 0x0 SWAP1 SLOAD SWAP1 PUSH2 0x100 EXP SWAP1 DIV PUSH1 0xFF AND DUP2 JUMP JUMPDEST PUSH1 0x1 PUSH1 0x0 SWAP1 SLOAD SWAP1 PUSH2 0x100 EXP SWAP1 DIV PUSH20 0xFFFFFFFFFFFFFFFFFFFFFFFFFFFFFFFFFFFFFFFF AND DUP2 JUMP JUMPDEST PUSH2 0x2710 DUP2 JUMP JUMPDEST PUSH1 0x0 PUSH1 0x9 PUSH1 0x0 SWAP1 SLOAD SWAP1 PUSH2 0x100 EXP SWAP1 DIV PUSH1 0xFF AND ISZERO PUSH2 0x10DC JUMPI PUSH1 0x40 MLOAD PUSH32 0x8AE7ACEA00000000000000000000000000000000000000000000000000000000 DUP2 MSTORE PUSH1 0x4 ADD PUSH1 0x40 MLOAD DUP1 SWAP2 SUB SWAP1 REVERT JUMPDEST PUSH1 0x2 PUSH1 0xA SLOAD SUB PUSH2 0x1118 JUMPI PUSH1 0x40 MLOAD PUSH32 0x8BEB9D1600000000000000000000000000000000000000000000000000000000 DUP2 MSTORE PUSH1 0x4 ADD PUSH1 0x40 MLOAD DUP1 SWAP2 SUB SWAP1 REVERT JUMPDEST PUSH1 0x2 PUSH1 0xA DUP2 SWAP1 SSTORE POP PUSH1 0x0 PUSH1 0x2 PUSH1 0x0 DUP9 PUSH1 0x3 DUP2 GT ISZERO PUSH2 0x1139 JUMPI PUSH2 0x1138 PUSH2 0x2A7D JUMP JUMPDEST JUMPDEST PUSH1 0x3 DUP2 GT ISZERO PUSH2 0x114B JUMPI PUSH2 0x114A PUSH2 0x2A7D JUMP JUMPDEST JUMPDEST DUP2 MSTORE PUSH1 0x20 ADD SWAP1 DUP2 MSTORE PUSH1 0x20 ADD PUSH1 0x0 KECCAK256 SLOAD SWAP1 POP PUSH1 0x0 DUP2 SUB PUSH2 0x11A1 JUMPI DUP7 PUSH1 0x40 MLOAD PUSH32 0xE997A2D100000000000000000000000000000000000000000000000000000000 DUP2 MSTORE PUSH1 0x4 ADD PUSH2 0x1198 SWAP2 SWAP1 PUSH2 0x2B1D JUMP JUMPDEST PUSH1 0x40 MLOAD DUP1 SWAP2 SUB SWAP1 REVERT JUMPDEST PUSH32 0x0 PUSH20 0xFFFFFFFFFFFFFFFFFFFFFFFFFFFFFFFFFFFFFFFF AND PUSH4 0xD505ACCF CALLER ADDRESS DUP5 DUP11 DUP11 DUP11 DUP11 PUSH1 0x40 MLOAD DUP9 PUSH4 0xFFFFFFFF AND PUSH1 0xE0 SHL DUP2 MSTORE PUSH1 0x4 ADD PUSH2 0x1206 SWAP8 SWAP7 SWAP6 SWAP5 SWAP4 SWAP3 SWAP2 SWAP1 PUSH2 0x2C9E JUMP JUMPDEST PUSH1 0x0 PUSH1 0x40 MLOAD DUP1 DUP4 SUB DUP2 PUSH1 0x0 DUP8 DUP1 EXTCODESIZE ISZERO DUP1 ISZERO PUSH2 0x1220 JUMPI PUSH1 0x0 DUP1 REVERT JUMPDEST POP GAS CALL ISZERO DUP1 ISZERO PUSH2 0x1234 JUMPI RETURNDATASIZE PUSH1 0x0 DUP1 RETURNDATACOPY RETURNDATASIZE PUSH1 0x0 REVERT JUMPDEST POP POP POP POP PUSH2 0x1242 CALLER DUP3 PUSH2 0x2095 JUMP JUMPDEST PUSH2 0x124B DUP2 PUSH2 0x2175 JUMP JUMPDEST PUSH32 0x0 PUSH20 0xFFFFFFFFFFFFFFFFFFFFFFFFFFFFFFFFFFFFFFFF AND PUSH4 0x691562A0 CALLER DUP10 PUSH1 0x40 MLOAD DUP4 PUSH4 0xFFFFFFFF AND PUSH1 0xE0 SHL DUP2 MSTORE PUSH1 0x4 ADD PUSH2 0x12A6 SWAP3 SWAP2 SWAP1 PUSH2 0x2BFB JUMP JUMPDEST PUSH1 0x20 PUSH1 0x40 MLOAD DUP1 DUP4 SUB DUP2 PUSH1 0x0 DUP8 GAS CALL ISZERO DUP1 ISZERO PUSH2 0x12C5 JUMPI RETURNDATASIZE PUSH1 0x0 DUP1 RETURNDATACOPY RETURNDATASIZE PUSH1 0x0 REVERT JUMPDEST POP POP POP POP PUSH1 0x40 MLOAD RETURNDATASIZE PUSH1 0x1F NOT PUSH1 0x1F DUP3 ADD AND DUP3 ADD DUP1 PUSH1 0x40 MSTORE POP DUP2 ADD SWAP1 PUSH2 0x12E9 SWAP2 SWAP1 PUSH2 0x2C39 JUMP JUMPDEST SWAP2 POP PUSH1 0x8 PUSH1 0x0 CALLER PUSH20 0xFFFFFFFFFFFFFFFFFFFFFFFFFFFFFFFFFFFFFFFF AND PUSH20 0xFFFFFFFFFFFFFFFFFFFFFFFFFFFFFFFFFFFFFFFF AND DUP2 MSTORE PUSH1 0x20 ADD SWAP1 DUP2 MSTORE PUSH1 0x20 ADD PUSH1 0x0 KECCAK256 DUP3 SWAP1 DUP1 PUSH1 0x1 DUP2 SLOAD ADD DUP1 DUP3 SSTORE DUP1 SWAP2 POP POP PUSH1 0x1 SWAP1 SUB SWAP1 PUSH1 0x0 MSTORE PUSH1 0x20 PUSH1 0x0 KECCAK256 ADD PUSH1 0x0 SWAP1 SWAP2 SWAP1 SWAP2 SWAP1 SWAP2 POP SSTORE DUP1 PUSH1 0x4 PUSH1 0x0 DUP3 DUP3 SLOAD ADD SWAP3 POP POP DUP2 SWAP1 SSTORE POP PUSH1 0x1 PUSH1 0x6 PUSH1 0x0 DUP3 DUP3 SLOAD ADD SWAP3 POP POP DUP2 SWAP1 SSTORE POP DUP2 CALLER PUSH20 0xFFFFFFFFFFFFFFFFFFFFFFFFFFFFFFFFFFFFFFFF AND PUSH32 0xA49559C9BED52FE950333EBAA425E474DA1E08FF964D4069204DB0D40F2EB363 DUP10 DUP5 PUSH1 0x40 MLOAD PUSH2 0x13BB SWAP3 SWAP2 SWAP1 PUSH2 0x2C66 JUMP JUMPDEST PUSH1 0x40 MLOAD DUP1 SWAP2 SUB SWAP1 LOG3 POP PUSH1 0x1 PUSH1 0xA DUP2 SWAP1 SSTORE POP SWAP6 SWAP5 POP POP POP POP POP JUMP JUMPDEST PUSH32 0xA49807205CE4D355092EF5A8A18F56E8913CF4A201FBE287825B095693C21775 DUP2 JUMP JUMPDEST PUSH1 0x7 SLOAD DUP2 JUMP JUMPDEST PUSH32 0x55435DD261A4B9B3364963F7738A7A662AD9C84396D64BE3365284BB7F0A5041 PUSH1 0x0 DUP1 DUP3 DUP2 MSTORE PUSH1 0x20 ADD SWAP1 DUP2 MSTORE PUSH1 0x20 ADD PUSH1 0x0 KECCAK256 PUSH1 0x0 CALLER PUSH20 0xFFFFFFFFFFFFFFFFFFFFFFFFFFFFFFFFFFFFFFFF AND PUSH20 0xFFFFFFFFFFFFFFFFFFFFFFFFFFFFFFFFFFFFFFFF AND DUP2 MSTORE PUSH1 0x20 ADD SWAP1 DUP2 MSTORE PUSH1 0x20 ADD PUSH1 0x0 KECCAK256 PUSH1 0x0 SWAP1 SLOAD SWAP1 PUSH2 0x100 EXP SWAP1 DIV PUSH1 0xFF AND PUSH2 0x14C0 JUMPI CALLER DUP2 PUSH1 0x40 MLOAD PUSH32 0x245329C600000000000000000000000000000000000000000000000000000000 DUP2 MSTORE PUSH1 0x4 ADD PUSH2 0x14B7 SWAP3 SWAP2 SWAP1 PUSH2 0x2943 JUMP JUMPDEST PUSH1 0x40 MLOAD DUP1 SWAP2 SUB SWAP1 REVERT JUMPDEST PUSH1 0x1 PUSH1 0x9 PUSH1 0x0 PUSH2 0x100 EXP DUP2 SLOAD DUP2 PUSH1 0xFF MUL NOT AND SWAP1 DUP4 ISZERO ISZERO MUL OR SWAP1 SSTORE POP CALLER PUSH20 0xFFFFFFFFFFFFFFFFFFFFFFFFFFFFFFFFFFFFFFFF AND PUSH32 0x62E78CEA01BEE320CD4E420270B5EA74000D11B0C9F74754EBDBFC544B05A258 PUSH1 0x40 MLOAD PUSH1 0x40 MLOAD DUP1 SWAP2 SUB SWAP1 LOG2 POP JUMP JUMPDEST PUSH1 0x2 PUSH1 0x20 MSTORE DUP1 PUSH1 0x0 MSTORE PUSH1 0x40 PUSH1 0x0 KECCAK256 PUSH1 0x0 SWAP2 POP SWAP1 POP SLOAD DUP2 JUMP JUMPDEST PUSH1 0x0 DUP1 PUSH1 0x0 DUP5 DUP2 MSTORE PUSH1 0x20 ADD SWAP1 DUP2 MSTORE PUSH1 0x20 ADD PUSH1 0x0 KECCAK256 PUSH1 0x0 DUP4 PUSH20 0xFFFFFFFFFFFFFFFFFFFFFFFFFFFFFFFFFFFFFFFF AND PUSH20 0xFFFFFFFFFFFFFFFFFFFFFFFFFFFFFFFFFFFFFFFF AND DUP2 MSTORE PUSH1 0x20 ADD SWAP1 DUP2 MSTORE PUSH1 0x20 ADD PUSH1 0x0 KECCAK256 PUSH1 0x0 SWAP1 SLOAD SWAP1 PUSH2 0x100 EXP SWAP1 DIV PUSH1 0xFF AND SWAP1 POP SWAP3 SWAP2 POP POP JUMP JUMPDEST PUSH32 0xA49807205CE4D355092EF5A8A18F56E8913CF4A201FBE287825B095693C21775 PUSH1 0x0 DUP1 DUP3 DUP2 MSTORE PUSH1 0x20 ADD SWAP1 DUP2 MSTORE PUSH1 0x20 ADD PUSH1 0x0 KECCAK256 PUSH1 0x0 CALLER PUSH20 0xFFFFFFFFFFFFFFFFFFFFFFFFFFFFFFFFFFFFFFFF AND PUSH20 0xFFFFFFFFFFFFFFFFFFFFFFFFFFFFFFFFFFFFFFFF AND DUP2 MSTORE PUSH1 0x20 ADD SWAP1 DUP2 MSTORE PUSH1 0x20 ADD PUSH1 0x0 KECCAK256 PUSH1 0x0 SWAP1 SLOAD SWAP1 PUSH2 0x100 EXP SWAP1 DIV PUSH1 0xFF AND PUSH2 0x1661 JUMPI CALLER DUP2 PUSH1 0x40 MLOAD PUSH32 0x245329C600000000000000000000000000000000000000000000000000000000 DUP2 MSTORE PUSH1 0x4 ADD PUSH2 0x1658 SWAP3 SWAP2 SWAP1 PUSH2 0x2943 JUMP JUMPDEST PUSH1 0x40 MLOAD DUP1 SWAP2 SUB SWAP1 REVERT JUMPDEST PUSH2 0x2328 DUP3 GT ISZERO PUSH2 0x16AC JUMPI DUP2 PUSH2 0x2328 PUSH1 0x40 MLOAD PUSH32 0xA79F438000000000000000000000000000000000000000000000000000000000 DUP2 MSTORE PUSH1 0x4 ADD PUSH2 0x16A3 SWAP3 SWAP2 SWAP1 PUSH2 0x2744 JUMP JUMPDEST PUSH1 0x40 MLOAD DUP1 SWAP2 SUB SWAP1 REVERT JUMPDEST PUSH32 0xB324F1C28A670C5BE62829CD6784A101A1C506B0D48A857663DB143957C0100B PUSH1 0x3 SLOAD DUP4 PUSH1 0x40 MLOAD PUSH2 0x16DF SWAP3 SWAP2 SWAP1 PUSH2 0x2744 JUMP JUMPDEST PUSH1 0x40 MLOAD DUP1 SWAP2 SUB SWAP1 LOG1 DUP2 PUSH1 0x3 DUP2 SWAP1 SSTORE POP POP POP JUMP JUMPDEST PUSH1 0x3 SLOAD DUP2 JUMP JUMPDEST PUSH1 0x4 SLOAD DUP2 JUMP JUMPDEST PUSH1 0x0 DUP1 PUSH2 0x2710 PUSH1 0x3 SLOAD DUP5 PUSH2 0x1712 SWAP2 SWAP1 PUSH2 0x2D0D JUMP JUMPDEST PUSH2 0x171C SWAP2 SWAP1 PUSH2 0x2D7E JUMP JUMPDEST SWAP2 POP DUP2 DUP4 PUSH2 0x172A SWAP2 SWAP1 PUSH2 0x2B67 JUMP JUMPDEST SWAP1 POP SWAP2 POP SWAP2 JUMP JUMPDEST PUSH1 0x9 PUSH1 0x0 SWAP1 SLOAD SWAP1 PUSH2 0x100 EXP SWAP1 DIV PUSH1 0xFF AND ISZERO PUSH2 0x1778 JUMPI PUSH1 0x40 MLOAD PUSH32 0x8AE7ACEA00000000000000000000000000000000000000000000000000000000 DUP2 MSTORE PUSH1 0x4 ADD PUSH1 0x40 MLOAD DUP1 SWAP2 SUB SWAP1 REVERT JUMPDEST PUSH1 0x2 PUSH1 0xA SLOAD SUB PUSH2 0x17B4 JUMPI PUSH1 0x40 MLOAD PUSH32 0x8BEB9D1600000000000000000000000000000000000000000000000000000000 DUP2 MSTORE PUSH1 0x4 ADD PUSH1 0x40 MLOAD DUP1 SWAP2 SUB SWAP1 REVERT JUMPDEST PUSH1 0x2 PUSH1 0xA DUP2 SWAP1 SSTORE POP CALLER PUSH20 0xFFFFFFFFFFFFFFFFFFFFFFFFFFFFFFFFFFFFFFFF AND PUSH32 0x0 PUSH20 0xFFFFFFFFFFFFFFFFFFFFFFFFFFFFFFFFFFFFFFFF AND PUSH4 0x6352211E DUP9 PUSH1 0x40 MLOAD DUP3 PUSH4 0xFFFFFFFF AND PUSH1 0xE0 SHL DUP2 MSTORE PUSH1 0x4 ADD PUSH2 0x182C SWAP2 SWAP1 PUSH2 0x236D JUMP JUMPDEST PUSH1 0x20 PUSH1 0x40 MLOAD DUP1 DUP4 SUB DUP2 DUP7 GAS STATICCALL ISZERO DUP1 ISZERO PUSH2 0x1849 JUMPI RETURNDATASIZE PUSH1 0x0 DUP1 RETURNDATACOPY RETURNDATASIZE PUSH1 0x0 REVERT JUMPDEST POP POP POP POP PUSH1 0x40 MLOAD RETURNDATASIZE PUSH1 0x1F NOT PUSH1 0x1F DUP3 ADD AND DUP3 ADD DUP1 PUSH1 0x40 MSTORE POP DUP2 ADD SWAP1 PUSH2 0x186D SWAP2 SWAP1 PUSH2 0x2981 JUMP JUMPDEST PUSH20 0xFFFFFFFFFFFFFFFFFFFFFFFFFFFFFFFFFFFFFFFF AND EQ PUSH2 0x18C7 JUMPI CALLER DUP7 PUSH1 0x40 MLOAD PUSH32 0x58A5E22200000000000000000000000000000000000000000000000000000000 DUP2 MSTORE PUSH1 0x4 ADD PUSH2 0x18BE SWAP3 SWAP2 SWAP1 PUSH2 0x29AE JUMP JUMPDEST PUSH1 0x40 MLOAD DUP1 SWAP2 SUB SWAP1 REVERT JUMPDEST PUSH1 0x0 PUSH32 0x0 PUSH20 0xFFFFFFFFFFFFFFFFFFFFFFFFFFFFFFFFFFFFFFFF AND PUSH4 0xB4B5B48F DUP9 PUSH1 0x40 MLOAD DUP3 PUSH4 0xFFFFFFFF AND PUSH1 0xE0 SHL DUP2 MSTORE PUSH1 0x4 ADD PUSH2 0x1922 SWAP2 SWAP1 PUSH2 0x236D JUMP JUMPDEST PUSH1 0x60 PUSH1 0x40 MLOAD DUP1 DUP4 SUB DUP2 DUP7 GAS STATICCALL ISZERO DUP1 ISZERO PUSH2 0x193F JUMPI RETURNDATASIZE PUSH1 0x0 DUP1 RETURNDATACOPY RETURNDATASIZE PUSH1 0x0 REVERT JUMPDEST POP POP POP POP PUSH1 0x40 MLOAD RETURNDATASIZE PUSH1 0x1F NOT PUSH1 0x1F DUP3 ADD AND DUP3 ADD DUP1 PUSH1 0x40 MSTORE POP DUP2 ADD SWAP1 PUSH2 0x1963 SWAP2 SWAP1 PUSH2 0x2A2A JUMP JUMPDEST POP POP SWAP1 POP DUP1 PUSH1 0x3 DUP2 GT ISZERO PUSH2 0x197A JUMPI PUSH2 0x1979 PUSH2 0x2A7D JUMP JUMPDEST JUMPDEST PUSH1 0xFF AND DUP7 PUSH1 0x3 DUP2 GT ISZERO PUSH2 0x1990 JUMPI PUSH2 0x198F PUSH2 0x2A7D JUMP JUMPDEST JUMPDEST PUSH1 0xFF AND GT PUSH2 0x19D7 JUMPI DUP1 DUP7 PUSH1 0x40 MLOAD PUSH32 0x1D17462300000000000000000000000000000000000000000000000000000000 DUP2 MSTORE PUSH1 0x4 ADD PUSH2 0x19CE SWAP3 SWAP2 SWAP1 PUSH2 0x2AF4 JUMP JUMPDEST PUSH1 0x40 MLOAD DUP1 SWAP2 SUB SWAP1 REVERT JUMPDEST PUSH1 0x0 PUSH1 0x2 PUSH1 0x0 DUP4 PUSH1 0x3 DUP2 GT ISZERO PUSH2 0x19F0 JUMPI PUSH2 0x19EF PUSH2 0x2A7D JUMP JUMPDEST JUMPDEST PUSH1 0x3 DUP2 GT ISZERO PUSH2 0x1A02 JUMPI PUSH2 0x1A01 PUSH2 0x2A7D JUMP JUMPDEST JUMPDEST DUP2 MSTORE PUSH1 0x20 ADD SWAP1 DUP2 MSTORE PUSH1 0x20 ADD PUSH1 0x0 KECCAK256 SLOAD PUSH1 0x2 PUSH1 0x0 DUP10 PUSH1 0x3 DUP2 GT ISZERO PUSH2 0x1A28 JUMPI PUSH2 0x1A27 PUSH2 0x2A7D JUMP JUMPDEST JUMPDEST PUSH1 0x3 DUP2 GT ISZERO PUSH2 0x1A3A JUMPI PUSH2 0x1A39 PUSH2 0x2A7D JUMP JUMPDEST JUMPDEST DUP2 MSTORE PUSH1 0x20 ADD SWAP1 DUP2 MSTORE PUSH1 0x20 ADD PUSH1 0x0 KECCAK256 SLOAD PUSH2 0x1A53 SWAP2 SWAP1 PUSH2 0x2B67 JUMP JUMPDEST SWAP1 POP PUSH1 0x0 DUP2 GT ISZERO PUSH2 0x1B19 JUMPI PUSH32 0x0 PUSH20 0xFFFFFFFFFFFFFFFFFFFFFFFFFFFFFFFFFFFFFFFF AND PUSH4 0xD505ACCF CALLER ADDRESS DUP5 DUP11 DUP11 DUP11 DUP11 PUSH1 0x40 MLOAD DUP9 PUSH4 0xFFFFFFFF AND PUSH1 0xE0 SHL DUP2 MSTORE PUSH1 0x4 ADD PUSH2 0x1AC3 SWAP8 SWAP7 SWAP6 SWAP5 SWAP4 SWAP3 SWAP2 SWAP1 PUSH2 0x2C9E JUMP JUMPDEST PUSH1 0x0 PUSH1 0x40 MLOAD DUP1 DUP4 SUB DUP2 PUSH1 0x0 DUP8 DUP1 EXTCODESIZE ISZERO DUP1 ISZERO PUSH2 0x1ADD JUMPI PUSH1 0x0 DUP1 REVERT JUMPDEST POP GAS CALL ISZERO DUP1 ISZERO PUSH2 0x1AF1 JUMPI RETURNDATASIZE PUSH1 0x0 DUP1 RETURNDATACOPY RETURNDATASIZE PUSH1 0x0 REVERT JUMPDEST POP POP POP POP PUSH2 0x1AFF CALLER DUP3 PUSH2 0x2095 JUMP JUMPDEST PUSH2 0x1B08 DUP2 PUSH2 0x2175 JUMP JUMPDEST DUP1 PUSH1 0x4 PUSH1 0x0 DUP3 DUP3 SLOAD ADD SWAP3 POP POP DUP2 SWAP1 SSTORE POP JUMPDEST PUSH32 0x0 PUSH20 0xFFFFFFFFFFFFFFFFFFFFFFFFFFFFFFFFFFFFFFFF AND PUSH4 0x36F005AA DUP10 DUP10 PUSH1 0x40 MLOAD DUP4 PUSH4 0xFFFFFFFF AND PUSH1 0xE0 SHL DUP2 MSTORE PUSH1 0x4 ADD PUSH2 0x1B74 SWAP3 SWAP2 SWAP1 PUSH2 0x2B9B JUMP JUMPDEST PUSH1 0x0 PUSH1 0x40 MLOAD DUP1 DUP4 SUB DUP2 PUSH1 0x0 DUP8 DUP1 EXTCODESIZE ISZERO DUP1 ISZERO PUSH2 0x1B8E JUMPI PUSH1 0x0 DUP1 REVERT JUMPDEST POP GAS CALL ISZERO DUP1 ISZERO PUSH2 0x1BA2 JUMPI RETURNDATASIZE PUSH1 0x0 DUP1 RETURNDATACOPY RETURNDATASIZE PUSH1 0x0 REVERT JUMPDEST POP POP POP POP PUSH1 0x1 PUSH1 0x7 PUSH1 0x0 DUP3 DUP3 SLOAD ADD SWAP3 POP POP DUP2 SWAP1 SSTORE POP DUP8 CALLER PUSH20 0xFFFFFFFFFFFFFFFFFFFFFFFFFFFFFFFFFFFFFFFF AND PUSH32 0x5EE94686AA32F355E68922C1056E700853C34EB0344C03B99473FDB747216C97 DUP5 DUP11 DUP6 PUSH1 0x40 MLOAD PUSH2 0x1C02 SWAP4 SWAP3 SWAP2 SWAP1 PUSH2 0x2BC4 JUMP JUMPDEST PUSH1 0x40 MLOAD DUP1 SWAP2 SUB SWAP1 LOG3 POP POP PUSH1 0x1 PUSH1 0xA DUP2 SWAP1 SSTORE POP POP POP POP POP POP POP JUMP JUMPDEST PUSH32 0xA49807205CE4D355092EF5A8A18F56E8913CF4A201FBE287825B095693C21775 PUSH1 0x0 DUP1 DUP3 DUP2 MSTORE PUSH1 0x20 ADD SWAP1 DUP2 MSTORE PUSH1 0x20 ADD PUSH1 0x0 KECCAK256 PUSH1 0x0 CALLER PUSH20 0xFFFFFFFFFFFFFFFFFFFFFFFFFFFFFFFFFFFFFFFF AND PUSH20 0xFFFFFFFFFFFFFFFFFFFFFFFFFFFFFFFFFFFFFFFF AND DUP2 MSTORE PUSH1 0x20 ADD SWAP1 DUP2 MSTORE PUSH1 0x20 ADD PUSH1 0x0 KECCAK256 PUSH1 0x0 SWAP1 SLOAD SWAP1 PUSH2 0x100 EXP SWAP1 DIV PUSH1 0xFF AND PUSH2 0x1CDD JUMPI CALLER DUP2 PUSH1 0x40 MLOAD PUSH32 0x245329C600000000000000000000000000000000000000000000000000000000 DUP2 MSTORE PUSH1 0x4 ADD PUSH2 0x1CD4 SWAP3 SWAP2 SWAP1 PUSH2 0x2943 JUMP JUMPDEST PUSH1 0x40 MLOAD DUP1 SWAP2 SUB SWAP1 REVERT JUMPDEST PUSH1 0x0 DUP1 PUSH1 0x0 DUP6 DUP2 MSTORE PUSH1 0x20 ADD SWAP1 DUP2 MSTORE PUSH1 0x20 ADD PUSH1 0x0 KECCAK256 PUSH1 0x0 DUP5 PUSH20 0xFFFFFFFFFFFFFFFFFFFFFFFFFFFFFFFFFFFFFFFF AND PUSH20 0xFFFFFFFFFFFFFFFFFFFFFFFFFFFFFFFFFFFFFFFF AND DUP2 MSTORE PUSH1 0x20 ADD SWAP1 DUP2 MSTORE PUSH1 0x20 ADD PUSH1 0x0 KECCAK256 PUSH1 0x0 PUSH2 0x100 EXP DUP2 SLOAD DUP2 PUSH1 0xFF MUL NOT AND SWAP1 DUP4 ISZERO ISZERO MUL OR SWAP1 SSTORE POP DUP2 PUSH20 0xFFFFFFFFFFFFFFFFFFFFFFFFFFFFFFFFFFFFFFFF AND DUP4 PUSH32 0x155AAAFB6329A2098580462DF33EC4B7441B19729B9601C5FC17AE1CF99A8A52 PUSH1 0x40 MLOAD PUSH1 0x40 MLOAD DUP1 SWAP2 SUB SWAP1 LOG3 POP POP POP JUMP JUMPDEST PUSH1 0x5 SLOAD DUP2 JUMP JUMPDEST PUSH2 0x2328 DUP2 JUMP JUMPDEST PUSH1 0x60 PUSH1 0x8 PUSH1 0x0 DUP4 PUSH20 0xFFFFFFFFFFFFFFFFFFFFFFFFFFFFFFFFFFFFFFFF AND PUSH20 0xFFFFFFFFFFFFFFFFFFFFFFFFFFFFFFFFFFFFFFFF AND DUP2 MSTORE PUSH1 0x20 ADD SWAP1 DUP2 MSTORE PUSH1 0x20 ADD PUSH1 0x0 KECCAK256 DUP1 SLOAD DUP1 PUSH1 0x20 MUL PUSH1 0x20 ADD PUSH1 0x40 MLOAD SWAP1 DUP2 ADD PUSH1 0x40 MSTORE DUP1 SWAP3 SWAP2 SWAP1 DUP2 DUP2 MSTORE PUSH1 0x20 ADD DUP3 DUP1 SLOAD DUP1 ISZERO PUSH2 0x1E25 JUMPI PUSH1 0x20 MUL DUP3 ADD SWAP2 SWAP1 PUSH1 0x0 MSTORE PUSH1 0x20 PUSH1 0x0 KECCAK256 SWAP1 JUMPDEST DUP2 SLOAD DUP2 MSTORE PUSH1 0x20 ADD SWAP1 PUSH1 0x1 ADD SWAP1 DUP1 DUP4 GT PUSH2 0x1E11 JUMPI JUMPDEST POP POP POP POP POP SWAP1 POP SWAP2 SWAP1 POP JUMP JUMPDEST PUSH32 0xA49807205CE4D355092EF5A8A18F56E8913CF4A201FBE287825B095693C21775 PUSH1 0x0 DUP1 DUP3 DUP2 MSTORE PUSH1 0x20 ADD SWAP1 DUP2 MSTORE PUSH1 0x20 ADD PUSH1 0x0 KECCAK256 PUSH1 0x0 CALLER PUSH20 0xFFFFFFFFFFFFFFFFFFFFFFFFFFFFFFFFFFFFFFFF AND PUSH20 0xFFFFFFFFFFFFFFFFFFFFFFFFFFFFFFFFFFFFFFFF AND DUP2 MSTORE PUSH1 0x20 ADD SWAP1 DUP2 MSTORE PUSH1 0x20 ADD PUSH1 0x0 KECCAK256 PUSH1 0x0 SWAP1 SLOAD SWAP1 PUSH2 0x100 EXP SWAP1 DIV PUSH1 0xFF AND PUSH2 0x1EF2 JUMPI CALLER DUP2 PUSH1 0x40 MLOAD PUSH32 0x245329C600000000000000000000000000000000000000000000000000000000 DUP2 MSTORE PUSH1 0x4 ADD PUSH2 0x1EE9 SWAP3 SWAP2 SWAP1 PUSH2 0x2943 JUMP JUMPDEST PUSH1 0x40 MLOAD DUP1 SWAP2 SUB SWAP1 REVERT JUMPDEST PUSH1 0x0 PUSH20 0xFFFFFFFFFFFFFFFFFFFFFFFFFFFFFFFFFFFFFFFF AND DUP3 PUSH20 0xFFFFFFFFFFFFFFFFFFFFFFFFFFFFFFFFFFFFFFFF AND SUB PUSH2 0x1F58 JUMPI PUSH1 0x40 MLOAD PUSH32 0xD92E233D00000000000000000000000000000000000000000000000000000000 DUP2 MSTORE PUSH1 0x4 ADD PUSH1 0x40 MLOAD DUP1 SWAP2 SUB SWAP1 REVERT JUMPDEST DUP2 PUSH1 0x1 PUSH1 0x0 PUSH2 0x100 EXP DUP2 SLOAD DUP2 PUSH20 0xFFFFFFFFFFFFFFFFFFFFFFFFFFFFFFFFFFFFFFFF MUL NOT AND SWAP1 DUP4 PUSH20 0xFFFFFFFFFFFFFFFFFFFFFFFFFFFFFFFFFFFFFFFF AND MUL OR SWAP1 SSTORE POP POP POP JUMP JUMPDEST PUSH32 0x97667070C54EF182B0F5858B034BEAC1B6F3089AA2D3188BB1E8929F4FA9B929 DUP2 JUMP JUMPDEST PUSH32 0x0 DUP2 JUMP JUMPDEST PUSH1 0x1 PUSH1 0x0 DUP1 DUP5 DUP2 MSTORE PUSH1 0x20 ADD SWAP1 DUP2 MSTORE PUSH1 0x20 ADD PUSH1 0x0 KECCAK256 PUSH1 0x0 DUP4 PUSH20 0xFFFFFFFFFFFFFFFFFFFFFFFFFFFFFFFFFFFFFFFF AND PUSH20 0xFFFFFFFFFFFFFFFFFFFFFFFFFFFFFFFFFFFFFFFF AND DUP2 MSTORE PUSH1 0x20 ADD SWAP1 DUP2 MSTORE PUSH1 0x20 ADD PUSH1 0x0 KECCAK256 PUSH1 0x0 PUSH2 0x100 EXP DUP2 SLOAD DUP2 PUSH1 0xFF MUL NOT AND SWAP1 DUP4 ISZERO ISZERO MUL OR SWAP1 SSTORE POP DUP1 PUSH20 0xFFFFFFFFFFFFFFFFFFFFFFFFFFFFFFFFFFFFFFFF AND DUP3 PUSH32 0x2AE6A113C0ED5B78A53413FFBB7679881F11145CCFBA4FB92E863DFCD5A1D2F3 PUSH1 0x40 MLOAD PUSH1 0x40 MLOAD DUP1 SWAP2 SUB SWAP1 LOG3 POP POP JUMP JUMPDEST PUSH1 0x0 PUSH32 0x0 PUSH20 0xFFFFFFFFFFFFFFFFFFFFFFFFFFFFFFFFFFFFFFFF AND PUSH4 0x23B872DD DUP5 ADDRESS DUP6 PUSH1 0x40 MLOAD DUP5 PUSH4 0xFFFFFFFF AND PUSH1 0xE0 SHL DUP2 MSTORE PUSH1 0x4 ADD PUSH2 0x20F4 SWAP4 SWAP3 SWAP2 SWAP1 PUSH2 0x2DAF JUMP JUMPDEST PUSH1 0x20 PUSH1 0x40 MLOAD DUP1 DUP4 SUB DUP2 PUSH1 0x0 DUP8 GAS CALL ISZERO DUP1 ISZERO PUSH2 0x2113 JUMPI RETURNDATASIZE PUSH1 0x0 DUP1 RETURNDATACOPY RETURNDATASIZE PUSH1 0x0 REVERT JUMPDEST POP POP POP POP PUSH1 0x40 MLOAD RETURNDATASIZE PUSH1 0x1F NOT PUSH1 0x1F DUP3 ADD AND DUP3 ADD DUP1 PUSH1 0x40 MSTORE POP DUP2 ADD SWAP1 PUSH2 0x2137 SWAP2 SWAP1 PUSH2 0x2E12 JUMP JUMPDEST SWAP1 POP DUP1 PUSH2 0x2170 JUMPI PUSH1 0x40 MLOAD PUSH32 0x90B8EC1800000000000000000000000000000000000000000000000000000000 DUP2 MSTORE PUSH1 0x4 ADD PUSH1 0x40 MLOAD DUP1 SWAP2 SUB SWAP1 REVERT JUMPDEST POP POP POP JUMP JUMPDEST PUSH1 0x0 PUSH2 0x2710 PUSH1 0x3 SLOAD DUP4 PUSH2 0x2188 SWAP2 SWAP1 PUSH2 0x2D0D JUMP JUMPDEST PUSH2 0x2192 SWAP2 SWAP1 PUSH2 0x2D7E JUMP JUMPDEST SWAP1 POP PUSH1 0x0 DUP2 DUP4 PUSH2 0x21A2 SWAP2 SWAP1 PUSH2 0x2B67 JUMP JUMPDEST SWAP1 POP PUSH1 0x0 DUP3 GT ISZERO PUSH2 0x2249 JUMPI PUSH32 0x0 PUSH20 0xFFFFFFFFFFFFFFFFFFFFFFFFFFFFFFFFFFFFFFFF AND PUSH4 0x42966C68 DUP4 PUSH1 0x40 MLOAD DUP3 PUSH4 0xFFFFFFFF AND PUSH1 0xE0 SHL DUP2 MSTORE PUSH1 0x4 ADD PUSH2 0x2206 SWAP2 SWAP1 PUSH2 0x236D JUMP JUMPDEST PUSH1 0x0 PUSH1 0x40 MLOAD DUP1 DUP4 SUB DUP2 PUSH1 0x0 DUP8 DUP1 EXTCODESIZE ISZERO DUP1 ISZERO PUSH2 0x2220 JUMPI PUSH1 0x0 DUP1 REVERT JUMPDEST POP GAS CALL ISZERO DUP1 ISZERO PUSH2 0x2234 JUMPI RETURNDATASIZE PUSH1 0x0 DUP1 RETURNDATACOPY RETURNDATASIZE PUSH1 0x0 REVERT JUMPDEST POP POP POP POP DUP2 PUSH1 0x5 PUSH1 0x0 DUP3 DUP3 SLOAD ADD SWAP3 POP POP DUP2 SWAP1 SSTORE POP JUMPDEST PUSH1 0x0 DUP2 GT ISZERO PUSH2 0x234F JUMPI PUSH1 0x0 PUSH32 0x0 PUSH20 0xFFFFFFFFFFFFFFFFFFFFFFFFFFFFFFFFFFFFFFFF AND PUSH4 0xA9059CBB PUSH1 0x1 PUSH1 0x0 SWAP1 SLOAD SWAP1 PUSH2 0x100 EXP SWAP1 DIV PUSH20 0xFFFFFFFFFFFFFFFFFFFFFFFFFFFFFFFFFFFFFFFF AND DUP5 PUSH1 0x40 MLOAD DUP4 PUSH4 0xFFFFFFFF AND PUSH1 0xE0 SHL DUP2 MSTORE PUSH1 0x4 ADD PUSH2 0x22D1 SWAP3 SWAP2 SWAP1 PUSH2 0x29AE JUMP JUMPDEST PUSH1 0x20 PUSH1 0x40 MLOAD DUP1 DUP4 SUB DUP2 PUSH1 0x0 DUP8 GAS CALL ISZERO DUP1 ISZERO PUSH2 0x22F0 JUMPI RETURNDATASIZE PUSH1 0x0 DUP1 RETURNDATACOPY RETURNDATASIZE PUSH1 0x0 REVERT JUMPDEST POP POP POP POP PUSH1 0x40 MLOAD RETURNDATASIZE PUSH1 0x1F NOT PUSH1 0x1F DUP3 ADD AND DUP3 ADD DUP1 PUSH1 0x40 MSTORE POP DUP2 ADD SWAP1 PUSH2 0x2314 SWAP2 SWAP1 PUSH2 0x2E12 JUMP JUMPDEST SWAP1 POP DUP1 PUSH2 0x234D JUMPI PUSH1 0x40 MLOAD PUSH32 0x90B8EC1800000000000000000000000000000000000000000000000000000000 DUP2 MSTORE PUSH1 0x4 ADD PUSH1 0x40 MLOAD DUP1 SWAP2 SUB SWAP1 REVERT JUMPDEST POP JUMPDEST POP POP POP JUMP JUMPDEST PUSH1 0x0 DUP2 SWAP1 POP SWAP2 SWAP1 POP JUMP JUMPDEST PUSH2 0x2367 DUP2 PUSH2 0x2354 JUMP JUMPDEST DUP3 MSTORE POP POP JUMP JUMPDEST PUSH1 0x0 PUSH1 0x20 DUP3 ADD SWAP1 POP PUSH2 0x2382 PUSH1 0x0 DUP4 ADD DUP5 PUSH2 0x235E JUMP JUMPDEST SWAP3 SWAP2 POP POP JUMP JUMPDEST PUSH1 0x0 DUP2 SWAP1 POP SWAP2 SWAP1 POP JUMP JUMPDEST PUSH2 0x239B DUP2 PUSH2 0x2388 JUMP JUMPDEST DUP3 MSTORE POP POP JUMP JUMPDEST PUSH1 0x0 PUSH1 0x20 DUP3 ADD SWAP1 POP PUSH2 0x23B6 PUSH1 0x0 DUP4 ADD DUP5 PUSH2 0x2392 JUMP JUMPDEST SWAP3 SWAP2 POP POP JUMP JUMPDEST PUSH1 0x0 DUP1 REVERT JUMPDEST PUSH2 0x23CA DUP2 PUSH2 0x2388 JUMP JUMPDEST DUP2 EQ PUSH2 0x23D5 JUMPI PUSH1 0x0 DUP1 REVERT JUMPDEST POP JUMP JUMPDEST PUSH1 0x0 DUP2 CALLDATALOAD SWAP1 POP PUSH2 0x23E7 DUP2 PUSH2 0x23C1 JUMP JUMPDEST SWAP3 SWAP2 POP POP JUMP JUMPDEST PUSH1 0x0 PUSH20 0xFFFFFFFFFFFFFFFFFFFFFFFFFFFFFFFFFFFFFFFF DUP3 AND SWAP1 POP SWAP2 SWAP1 POP JUMP JUMPDEST PUSH1 0x0 PUSH2 0x2418 DUP3 PUSH2 0x23ED JUMP JUMPDEST SWAP1 POP SWAP2 SWAP1 POP JUMP JUMPDEST PUSH2 0x2428 DUP2 PUSH2 0x240D JUMP JUMPDEST DUP2 EQ PUSH2 0x2433 JUMPI PUSH1 0x0 DUP1 REVERT JUMPDEST POP JUMP JUMPDEST PUSH1 0x0 DUP2 CALLDATALOAD SWAP1 POP PUSH2 0x2445 DUP2 PUSH2 0x241F JUMP JUMPDEST SWAP3 SWAP2 POP POP JUMP JUMPDEST PUSH1 0x0 DUP1 PUSH1 0x40 DUP4 DUP6 SUB SLT ISZERO PUSH2 0x2462 JUMPI PUSH2 0x2461 PUSH2 0x23BC JUMP JUMPDEST JUMPDEST PUSH1 0x0 PUSH2 0x2470 DUP6 DUP3 DUP7 ADD PUSH2 0x23D8 JUMP JUMPDEST SWAP3 POP POP PUSH1 0x20 PUSH2 0x2481 DUP6 DUP3 DUP7 ADD PUSH2 0x2436 JUMP JUMPDEST SWAP2 POP POP SWAP3 POP SWAP3 SWAP1 POP JUMP JUMPDEST PUSH2 0x2494 DUP2 PUSH2 0x2354 JUMP JUMPDEST DUP2 EQ PUSH2 0x249F JUMPI PUSH1 0x0 DUP1 REVERT JUMPDEST POP JUMP JUMPDEST PUSH1 0x0 DUP2 CALLDATALOAD SWAP1 POP PUSH2 0x24B1 DUP2 PUSH2 0x248B JUMP JUMPDEST SWAP3 SWAP2 POP POP JUMP JUMPDEST PUSH1 0x4 DUP2 LT PUSH2 0x24C4 JUMPI PUSH1 0x0 DUP1 REVERT JUMPDEST POP JUMP JUMPDEST PUSH1 0x0 DUP2 CALLDATALOAD SWAP1 POP PUSH2 0x24D6 DUP2 PUSH2 0x24B7 JUMP JUMPDEST SWAP3 SWAP2 POP POP JUMP JUMPDEST PUSH1 0x0 DUP1 PUSH1 0x40 DUP4 DUP6 SUB SLT ISZERO PUSH2 0x24F3 JUMPI PUSH2 0x24F2 PUSH2 0x23BC JUMP JUMPDEST JUMPDEST PUSH1 0x0 PUSH2 0x2501 DUP6 DUP3 DUP7 ADD PUSH2 0x24A2 JUMP JUMPDEST SWAP3 POP POP PUSH1 0x20 PUSH2 0x2512 DUP6 DUP3 DUP7 ADD PUSH2 0x24C7 JUMP JUMPDEST SWAP2 POP POP SWAP3 POP SWAP3 SWAP1 POP JUMP JUMPDEST PUSH1 0x0 DUP2 SWAP1 POP SWAP2 SWAP1 POP JUMP JUMPDEST PUSH1 0x0 PUSH2 0x2541 PUSH2 0x253C PUSH2 0x2537 DUP5 PUSH2 0x23ED JUMP JUMPDEST PUSH2 0x251C JUMP JUMPDEST PUSH2 0x23ED JUMP JUMPDEST SWAP1 POP SWAP2 SWAP1 POP JUMP JUMPDEST PUSH1 0x0 PUSH2 0x2553 DUP3 PUSH2 0x2526 JUMP JUMPDEST SWAP1 POP SWAP2 SWAP1 POP JUMP JUMPDEST PUSH1 0x0 PUSH2 0x2565 DUP3 PUSH2 0x2548 JUMP JUMPDEST SWAP1 POP SWAP2 SWAP1 POP JUMP JUMPDEST PUSH2 0x2575 DUP2 PUSH2 0x255A JUMP JUMPDEST DUP3 MSTORE POP POP JUMP JUMPDEST PUSH1 0x0 PUSH1 0x20 DUP3 ADD SWAP1 POP PUSH2 0x2590 PUSH1 0x0 DUP4 ADD DUP5 PUSH2 0x256C JUMP JUMPDEST SWAP3 SWAP2 POP POP JUMP JUMPDEST PUSH1 0x0 PUSH1 0x20 DUP3 DUP5 SUB SLT ISZERO PUSH2 0x25AC JUMPI PUSH2 0x25AB PUSH2 0x23BC JUMP JUMPDEST JUMPDEST PUSH1 0x0 PUSH2 0x25BA DUP5 DUP3 DUP6 ADD PUSH2 0x24C7 JUMP JUMPDEST SWAP2 POP POP SWAP3 SWAP2 POP POP JUMP JUMPDEST PUSH1 0x0 DUP1 PUSH1 0x40 DUP4 DUP6 SUB SLT ISZERO PUSH2 0x25DA JUMPI PUSH2 0x25D9 PUSH2 0x23BC JUMP JUMPDEST JUMPDEST PUSH1 0x0 PUSH2 0x25E8 DUP6 DUP3 DUP7 ADD PUSH2 0x24C7 JUMP JUMPDEST SWAP3 POP POP PUSH1 0x20 PUSH2 0x25F9 DUP6 DUP3 DUP7 ADD PUSH2 0x24A2 JUMP JUMPDEST SWAP2 POP POP SWAP3 POP SWAP3 SWAP1 POP JUMP JUMPDEST PUSH1 0x0 DUP2 ISZERO ISZERO SWAP1 POP SWAP2 SWAP1 POP JUMP JUMPDEST PUSH2 0x2618 DUP2 PUSH2 0x2603 JUMP JUMPDEST DUP3 MSTORE POP POP JUMP JUMPDEST PUSH1 0x0 PUSH1 0x20 DUP3 ADD SWAP1 POP PUSH2 0x2633 PUSH1 0x0 DUP4 ADD DUP5 PUSH2 0x260F JUMP JUMPDEST SWAP3 SWAP2 POP POP JUMP JUMPDEST PUSH2 0x2642 DUP2 PUSH2 0x240D JUMP JUMPDEST DUP3 MSTORE POP POP JUMP JUMPDEST PUSH1 0x0 PUSH1 0x20 DUP3 ADD SWAP1 POP PUSH2 0x265D PUSH1 0x0 DUP4 ADD DUP5 PUSH2 0x2639 JUMP JUMPDEST SWAP3 SWAP2 POP POP JUMP JUMPDEST PUSH1 0x0 PUSH1 0xFF DUP3 AND SWAP1 POP SWAP2 SWAP1 POP JUMP JUMPDEST PUSH2 0x2679 DUP2 PUSH2 0x2663 JUMP JUMPDEST DUP2 EQ PUSH2 0x2684 JUMPI PUSH1 0x0 DUP1 REVERT JUMPDEST POP JUMP JUMPDEST PUSH1 0x0 DUP2 CALLDATALOAD SWAP1 POP PUSH2 0x2696 DUP2 PUSH2 0x2670 JUMP JUMPDEST SWAP3 SWAP2 POP POP JUMP JUMPDEST PUSH1 0x0 DUP1 PUSH1 0x0 DUP1 PUSH1 0x0 PUSH1 0xA0 DUP7 DUP9 SUB SLT ISZERO PUSH2 0x26B8 JUMPI PUSH2 0x26B7 PUSH2 0x23BC JUMP JUMPDEST JUMPDEST PUSH1 0x0 PUSH2 0x26C6 DUP9 DUP3 DUP10 ADD PUSH2 0x24C7 JUMP JUMPDEST SWAP6 POP POP PUSH1 0x20 PUSH2 0x26D7 DUP9 DUP3 DUP10 ADD PUSH2 0x24A2 JUMP JUMPDEST SWAP5 POP POP PUSH1 0x40 PUSH2 0x26E8 DUP9 DUP3 DUP10 ADD PUSH2 0x2687 JUMP JUMPDEST SWAP4 POP POP PUSH1 0x60 PUSH2 0x26F9 DUP9 DUP3 DUP10 ADD PUSH2 0x23D8 JUMP JUMPDEST SWAP3 POP POP PUSH1 0x80 PUSH2 0x270A DUP9 DUP3 DUP10 ADD PUSH2 0x23D8 JUMP JUMPDEST SWAP2 POP POP SWAP3 SWAP6 POP SWAP3 SWAP6 SWAP1 SWAP4 POP JUMP JUMPDEST PUSH1 0x0 PUSH1 0x20 DUP3 DUP5 SUB SLT ISZERO PUSH2 0x272D JUMPI PUSH2 0x272C PUSH2 0x23BC JUMP JUMPDEST JUMPDEST PUSH1 0x0 PUSH2 0x273B DUP5 DUP3 DUP6 ADD PUSH2 0x24A2 JUMP JUMPDEST SWAP2 POP POP SWAP3 SWAP2 POP POP JUMP JUMPDEST PUSH1 0x0 PUSH1 0x40 DUP3 ADD SWAP1 POP PUSH2 0x2759 PUSH1 0x0 DUP4 ADD DUP6 PUSH2 0x235E JUMP JUMPDEST PUSH2 0x2766 PUSH1 0x20 DUP4 ADD DUP5 PUSH2 0x235E JUMP JUMPDEST SWAP4 SWAP3 POP POP POP JUMP JUMPDEST PUSH1 0x0 DUP1 PUSH1 0x0 DUP1 PUSH1 0x0 DUP1 PUSH1 0xC0 DUP8 DUP10 SUB SLT ISZERO PUSH2 0x278A JUMPI PUSH2 0x2789 PUSH2 0x23BC JUMP JUMPDEST JUMPDEST PUSH1 0x0 PUSH2 0x2798 DUP10 DUP3 DUP11 ADD PUSH2 0x24A2 JUMP JUMPDEST SWAP7 POP POP PUSH1 0x20 PUSH2 0x27A9 DUP10 DUP3 DUP11 ADD PUSH2 0x24C7 JUMP JUMPDEST SWAP6 POP POP PUSH1 0x40 PUSH2 0x27BA DUP10 DUP3 DUP11 ADD PUSH2 0x24A2 JUMP JUMPDEST SWAP5 POP POP PUSH1 0x60 PUSH2 0x27CB DUP10 DUP3 DUP11 ADD PUSH2 0x2687 JUMP JUMPDEST SWAP4 POP POP PUSH1 0x80 PUSH2 0x27DC DUP10 DUP3 DUP11 ADD PUSH2 0x23D8 JUMP JUMPDEST SWAP3 POP POP PUSH1 0xA0 PUSH2 0x27ED DUP10 DUP3 DUP11 ADD PUSH2 0x23D8 JUMP JUMPDEST SWAP2 POP POP SWAP3 SWAP6 POP SWAP3 SWAP6 POP SWAP3 SWAP6 JUMP JUMPDEST PUSH1 0x0 PUSH1 0x20 DUP3 DUP5 SUB SLT ISZERO PUSH2 0x2810 JUMPI PUSH2 0x280F PUSH2 0x23BC JUMP JUMPDEST JUMPDEST PUSH1 0x0 PUSH2 0x281E DUP5 DUP3 DUP6 ADD PUSH2 0x2436 JUMP JUMPDEST SWAP2 POP POP SWAP3 SWAP2 POP POP JUMP JUMPDEST PUSH1 0x0 DUP2 MLOAD SWAP1 POP SWAP2 SWAP1 POP JUMP JUMPDEST PUSH1 0x0 DUP3 DUP3 MSTORE PUSH1 0x20 DUP3 ADD SWAP1 POP SWAP3 SWAP2 POP POP JUMP JUMPDEST PUSH1 0x0 DUP2 SWAP1 POP PUSH1 0x20 DUP3 ADD SWAP1 POP SWAP2 SWAP1 POP JUMP JUMPDEST PUSH2 0x285C DUP2 PUSH2 0x2354 JUMP JUMPDEST DUP3 MSTORE POP POP JUMP JUMPDEST PUSH1 0x0 PUSH2 0x286E DUP4 DUP4 PUSH2 0x2853 JUMP JUMPDEST PUSH1 0x20 DUP4 ADD SWAP1 POP SWAP3 SWAP2 POP POP JUMP JUMPDEST PUSH1 0x0 PUSH1 0x20 DUP3 ADD SWAP1 POP SWAP2 SWAP1 POP JUMP JUMPDEST PUSH1 0x0 PUSH2 0x2892 DUP3 PUSH2 0x2827 JUMP JUMPDEST PUSH2 0x289C DUP2 DUP6 PUSH2 0x2832 JUMP JUMPDEST SWAP4 POP PUSH2 0x28A7 DUP4 PUSH2 0x2843 JUMP JUMPDEST DUP1 PUSH1 0x0 JUMPDEST DUP4 DUP2 LT ISZERO PUSH2 0x28D8 JUMPI DUP2 MLOAD PUSH2 0x28BF DUP9 DUP3 PUSH2 0x2862 JUMP JUMPDEST SWAP8 POP PUSH2 0x28CA DUP4 PUSH2 0x287A JUMP JUMPDEST SWAP3 POP POP PUSH1 0x1 DUP2 ADD SWAP1 POP PUSH2 0x28AB JUMP JUMPDEST POP DUP6 SWAP4 POP POP POP POP SWAP3 SWAP2 POP POP JUMP JUMPDEST PUSH1 0x0 PUSH1 0x20 DUP3 ADD SWAP1 POP DUP2 DUP2 SUB PUSH1 0x0 DUP4 ADD MSTORE PUSH2 0x28FF DUP2 DUP5 PUSH2 0x2887 JUMP JUMPDEST SWAP1 POP SWAP3 SWAP2 POP POP JUMP JUMPDEST PUSH1 0x0 PUSH2 0x2912 DUP3 PUSH2 0x2548 JUMP JUMPDEST SWAP1 POP SWAP2 SWAP1 POP JUMP JUMPDEST PUSH2 0x2922 DUP2 PUSH2 0x2907 JUMP JUMPDEST DUP3 MSTORE POP POP JUMP JUMPDEST PUSH1 0x0 PUSH1 0x20 DUP3 ADD SWAP1 POP PUSH2 0x293D PUSH1 0x0 DUP4 ADD DUP5 PUSH2 0x2919 JUMP JUMPDEST SWAP3 SWAP2 POP POP JUMP JUMPDEST PUSH1 0x0 PUSH1 0x40 DUP3 ADD SWAP1 POP PUSH2 0x2958 PUSH1 0x0 DUP4 ADD DUP6 PUSH2 0x2639 JUMP JUMPDEST PUSH2 0x2965 PUSH1 0x20 DUP4 ADD DUP5 PUSH2 0x2392 JUMP JUMPDEST SWAP4 SWAP3 POP POP POP JUMP JUMPDEST PUSH1 0x0 DUP2 MLOAD SWAP1 POP PUSH2 0x297B DUP2 PUSH2 0x241F JUMP JUMPDEST SWAP3 SWAP2 POP POP JUMP JUMPDEST PUSH1 0x0 PUSH1 0x20 DUP3 DUP5 SUB SLT ISZERO PUSH2 0x2997 JUMPI PUSH2 0x2996 PUSH2 0x23BC JUMP JUMPDEST JUMPDEST PUSH1 0x0 PUSH2 0x29A5 DUP5 DUP3 DUP6 ADD PUSH2 0x296C JUMP JUMPDEST SWAP2 POP POP SWAP3 SWAP2 POP POP JUMP JUMPDEST PUSH1 0x0 PUSH1 0x40 DUP3 ADD SWAP1 POP PUSH2 0x29C3 PUSH1 0x0 DUP4 ADD DUP6 PUSH2 0x2639 JUMP JUMPDEST PUSH2 0x29D0 PUSH1 0x20 DUP4 ADD DUP5 PUSH2 0x235E JUMP JUMPDEST SWAP4 SWAP3 POP POP POP JUMP JUMPDEST PUSH1 0x0 DUP2 MLOAD SWAP1 POP PUSH2 0x29E6 DUP2 PUSH2 0x24B7 JUMP JUMPDEST SWAP3 SWAP2 POP POP JUMP JUMPDEST PUSH1 0x0 PUSH6 0xFFFFFFFFFFFF DUP3 AND SWAP1 POP SWAP2 SWAP1 POP JUMP JUMPDEST PUSH2 0x2A07 DUP2 PUSH2 0x29EC JUMP JUMPDEST DUP2 EQ PUSH2 0x2A12 JUMPI PUSH1 0x0 DUP1 REVERT JUMPDEST POP JUMP JUMPDEST PUSH1 0x0 DUP2 MLOAD SWAP1 POP PUSH2 0x2A24 DUP2 PUSH2 0x29FE JUMP JUMPDEST SWAP3 SWAP2 POP POP JUMP JUMPDEST PUSH1 0x0 DUP1 PUSH1 0x0 PUSH1 0x60 DUP5 DUP7 SUB SLT ISZERO PUSH2 0x2A43 JUMPI PUSH2 0x2A42 PUSH2 0x23BC JUMP JUMPDEST JUMPDEST PUSH1 0x0 PUSH2 0x2A51 DUP7 DUP3 DUP8 ADD PUSH2 0x29D7 JUMP JUMPDEST SWAP4 POP POP PUSH1 0x20 PUSH2 0x2A62 DUP7 DUP3 DUP8 ADD PUSH2 0x296C JUMP JUMPDEST SWAP3 POP POP PUSH1 0x40 PUSH2 0x2A73 DUP7 DUP3 DUP8 ADD PUSH2 0x2A15 JUMP JUMPDEST SWAP2 POP POP SWAP3 POP SWAP3 POP SWAP3 JUMP JUMPDEST PUSH32 0x4E487B7100000000000000000000000000000000000000000000000000000000 PUSH1 0x0 MSTORE PUSH1 0x21 PUSH1 0x4 MSTORE PUSH1 0x24 PUSH1 0x0 REVERT JUMPDEST PUSH1 0x4 DUP2 LT PUSH2 0x2ABD JUMPI PUSH2 0x2ABC PUSH2 0x2A7D JUMP JUMPDEST JUMPDEST POP JUMP JUMPDEST PUSH1 0x0 DUP2 SWAP1 POP PUSH2 0x2ACE DUP3 PUSH2 0x2AAC JUMP JUMPDEST SWAP2 SWAP1 POP JUMP JUMPDEST PUSH1 0x0 PUSH2 0x2ADE DUP3 PUSH2 0x2AC0 JUMP JUMPDEST SWAP1 POP SWAP2 SWAP1 POP JUMP JUMPDEST PUSH2 0x2AEE DUP2 PUSH2 0x2AD3 JUMP JUMPDEST DUP3 MSTORE POP POP JUMP JUMPDEST PUSH1 0x0 PUSH1 0x40 DUP3 ADD SWAP1 POP PUSH2 0x2B09 PUSH1 0x0 DUP4 ADD DUP6 PUSH2 0x2AE5 JUMP JUMPDEST PUSH2 0x2B16 PUSH1 0x20 DUP4 ADD DUP5 PUSH2 0x2AE5 JUMP JUMPDEST SWAP4 SWAP3 POP POP POP JUMP JUMPDEST PUSH1 0x0 PUSH1 0x20 DUP3 ADD SWAP1 POP PUSH2 0x2B32 PUSH1 0x0 DUP4 ADD DUP5 PUSH2 0x2AE5 JUMP JUMPDEST SWAP3 SWAP2 POP POP JUMP JUMPDEST PUSH32 0x4E487B7100000000000000000000000000000000000000000000000000000000 PUSH1 0x0 MSTORE PUSH1 0x11 PUSH1 0x4 MSTORE PUSH1 0x24 PUSH1 0x0 REVERT JUMPDEST PUSH1 0x0 PUSH2 0x2B72 DUP3 PUSH2 0x2354 JUMP JUMPDEST SWAP2 POP PUSH2 0x2B7D DUP4 PUSH2 0x2354 JUMP JUMPDEST SWAP3 POP DUP3 DUP3 SUB SWAP1 POP DUP2 DUP2 GT ISZERO PUSH2 0x2B95 JUMPI PUSH2 0x2B94 PUSH2 0x2B38 JUMP JUMPDEST JUMPDEST SWAP3 SWAP2 POP POP JUMP JUMPDEST PUSH1 0x0 PUSH1 0x40 DUP3 ADD SWAP1 POP PUSH2 0x2BB0 PUSH1 0x0 DUP4 ADD DUP6 PUSH2 0x235E JUMP JUMPDEST PUSH2 0x2BBD PUSH1 0x20 DUP4 ADD DUP5 PUSH2 0x2AE5 JUMP JUMPDEST SWAP4 SWAP3 POP POP POP JUMP JUMPDEST PUSH1 0x0 PUSH1 0x60 DUP3 ADD SWAP1 POP PUSH2 0x2BD9 PUSH1 0x0 DUP4 ADD DUP7 PUSH2 0x2AE5 JUMP JUMPDEST PUSH2 0x2BE6 PUSH1 0x20 DUP4 ADD DUP6 PUSH2 0x2AE5 JUMP JUMPDEST PUSH2 0x2BF3 PUSH1 0x40 DUP4 ADD DUP5 PUSH2 0x235E JUMP JUMPDEST SWAP5 SWAP4 POP POP POP POP JUMP JUMPDEST PUSH1 0x0 PUSH1 0x40 DUP3 ADD SWAP1 POP PUSH2 0x2C10 PUSH1 0x0 DUP4 ADD DUP6 PUSH2 0x2639 JUMP JUMPDEST PUSH2 0x2C1D PUSH1 0x20 DUP4 ADD DUP5 PUSH2 0x2AE5 JUMP JUMPDEST SWAP4 SWAP3 POP POP POP JUMP JUMPDEST PUSH1 0x0 DUP2 MLOAD SWAP1 POP PUSH2 0x2C33 DUP2 PUSH2 0x248B JUMP JUMPDEST SWAP3 SWAP2 POP POP JUMP JUMPDEST PUSH1 0x0 PUSH1 0x20 DUP3 DUP5 SUB SLT ISZERO PUSH2 0x2C4F JUMPI PUSH2 0x2C4E PUSH2 0x23BC JUMP JUMPDEST JUMPDEST PUSH1 0x0 PUSH2 0x2C5D DUP5 DUP3 DUP6 ADD PUSH2 0x2C24 JUMP JUMPDEST SWAP2 POP POP SWAP3 SWAP2 POP POP JUMP JUMPDEST PUSH1 0x0 PUSH1 0x40 DUP3 ADD SWAP1 POP PUSH2 0x2C7B PUSH1 0x0 DUP4 ADD DUP6 PUSH2 0x2AE5 JUMP JUMPDEST PUSH2 0x2C88 PUSH1 0x20 DUP4 ADD DUP5 PUSH2 0x235E JUMP JUMPDEST SWAP4 SWAP3 POP POP POP JUMP JUMPDEST PUSH2 0x2C98 DUP2 PUSH2 0x2663 JUMP JUMPDEST DUP3 MSTORE POP POP JUMP JUMPDEST PUSH1 0x0 PUSH1 0xE0 DUP3 ADD SWAP1 POP PUSH2 0x2CB3 PUSH1 0x0 DUP4 ADD DUP11 PUSH2 0x2639 JUMP JUMPDEST PUSH2 0x2CC0 PUSH1 0x20 DUP4 ADD DUP10 PUSH2 0x2639 JUMP JUMPDEST PUSH2 0x2CCD PUSH1 0x40 DUP4 ADD DUP9 PUSH2 0x235E JUMP JUMPDEST PUSH2 0x2CDA PUSH1 0x60 DUP4 ADD DUP8 PUSH2 0x235E JUMP JUMPDEST PUSH2 0x2CE7 PUSH1 0x80 DUP4 ADD DUP7 PUSH2 0x2C8F JUMP JUMPDEST PUSH2 0x2CF4 PUSH1 0xA0 DUP4 ADD DUP6 PUSH2 0x2392 JUMP JUMPDEST PUSH2 0x2D01 PUSH1 0xC0 DUP4 ADD DUP5 PUSH2 0x2392 JUMP JUMPDEST SWAP9 SWAP8 POP POP POP POP POP POP POP POP JUMP JUMPDEST PUSH1 0x0 PUSH2 0x2D18 DUP3 PUSH2 0x2354 JUMP JUMPDEST SWAP2 POP PUSH2 0x2D23 DUP4 PUSH2 0x2354 JUMP JUMPDEST SWAP3 POP DUP3 DUP3 MUL PUSH2 0x2D31 DUP2 PUSH2 0x2354 JUMP JUMPDEST SWAP2 POP DUP3 DUP3 DIV DUP5 EQ DUP4 ISZERO OR PUSH2 0x2D48 JUMPI PUSH2 0x2D47 PUSH2 0x2B38 JUMP JUMPDEST JUMPDEST POP SWAP3 SWAP2 POP POP JUMP JUMPDEST PUSH32 0x4E487B7100000000000000000000000000000000000000000000000000000000 PUSH1 0x0 MSTORE PUSH1 0x12 PUSH1 0x4 MSTORE PUSH1 0x24 PUSH1 0x0 REVERT JUMPDEST PUSH1 0x0 PUSH2 0x2D89 DUP3 PUSH2 0x2354 JUMP JUMPDEST SWAP2 POP PUSH2 0x2D94 DUP4 PUSH2 0x2354 JUMP JUMPDEST SWAP3 POP DUP3 PUSH2 0x2DA4 JUMPI PUSH2 0x2DA3 PUSH2 0x2D4F JUMP JUMPDEST JUMPDEST DUP3 DUP3 DIV SWAP1 POP SWAP3 SWAP2 POP POP JUMP JUMPDEST PUSH1 0x0 PUSH1 0x60 DUP3 ADD SWAP1 POP PUSH2 0x2DC4 PUSH1 0x0 DUP4 ADD DUP7 PUSH2 0x2639 JUMP JUMPDEST PUSH2 0x2DD1 PUSH1 0x20 DUP4 ADD DUP6 PUSH2 0x2639 JUMP JUMPDEST PUSH2 0x2DDE PUSH1 0x40 DUP4 ADD DUP5 PUSH2 0x235E JUMP JUMPDEST SWAP5 SWAP4 POP POP POP POP JUMP JUMPDEST PUSH2 0x2DEF DUP2 PUSH2 0x2603 JUMP JUMPDEST DUP2 EQ PUSH2 0x2DFA JUMPI PUSH1 0x0 DUP1 REVERT JUMPDEST POP JUMP JUMPDEST PUSH1 0x0 DUP2 MLOAD SWAP1 POP PUSH2 0x2E0C DUP2 PUSH2 0x2DE6 JUMP JUMPDEST SWAP3 SWAP2 POP POP JUMP JUMPDEST PUSH1 0x0 PUSH1 0x20 DUP3 DUP5 SUB SLT ISZERO PUSH2 0x2E28 JUMPI PUSH2 0x2E27 PUSH2 0x23BC JUMP JUMPDEST JUMPDEST PUSH1 0x0 PUSH2 0x2E36 DUP5 DUP3 DUP6 ADD PUSH2 0x2DFD JUMP JUMPDEST SWAP2 POP POP SWAP3 SWAP2 POP POP JUMP INVALID LOG2 PUSH5 0x6970667358 0x22 SLT KECCAK256 CALLDATALOAD 0xE6 DUP14 0x2D SDIV 0xE2 0x29 0xBF COINBASE 0xB2 CHAINID SWAP7 0xCF 0xAC 0xDA PUSH14 0x7A310057C20B6BC3E3176C64CB9B LT 0xA5 PUSH5 0x736F6C6343 STOP ADDMOD XOR STOP CALLER "},"methodIdentifiers":{"ADMIN_ROLE()":"75b238fc","BPS_DENOM()":"6637e38c","GUARDIAN_ROLE()":"24ea54f4","MAX_BURN_BPS()":"e4786a5e","OPERATOR_ROLE()":"f5b541a6","burnRatioBps()":"a7d6ef68","grantRole(bytes32,address)":"2f2ff15d","hasRole(bytes32,address)":"91d14854","nft()":"47ccca02","pause()":"8456cb59","paused()":"5c975abb","previewPaymentSplit(uint256)":"c2af1a6b","revokeRole(bytes32,address)":"d547741f","setBurnRatio(uint256)":"9370131f","setTierPrice(uint8,uint256)":"4a5c6f8c","setTreasury(address)":"f0f44260","subscribe(uint8)":"49c7e639","subscribeWithPermit(uint8,uint256,uint8,bytes32,bytes32)":"712affe1","tierPrice(uint8)":"8b542526","token()":"fc0c546a","totalBurned()":"d89135cd","totalRevenue()":"bf2d9e0b","totalSubscriptions()":"1328b870","totalUpgrades()":"7c8cdc00","treasury()":"61d027b3","unpause()":"3f4ba83a","upgradeTier(uint256,uint8)":"36f005aa","upgradeTierWithPermit(uint256,uint8,uint256,uint8,bytes32,bytes32)":"c731cd4d","userTokens(address)":"ed498fa8"}}}}}