{
  "_format": "hh-sol-artifact-1",
  "contractName": "ERC8004ServiceNFT",
  "sourceName": "contracts/ERC8004ServiceNFT.sol",
  "abi": [
    {
      "inputs": [],
      "stateMutability": "nonpayable",
      "type": "constructor"
    },
    {
      "inputs": [],
      "name": "ERC721ReceiverRejected",
      "type": "error"
    },
    {
      "inputs": [
        {
          "internalType": "uint96",
          "name": "bps",
          "type": "uint96"
        }
      ],
      "name": "InvalidRoyaltyBps",
      "type": "error"
    },
    {
      "inputs": [
        {
          "internalType": "enum ERC8004ServiceNFT.Tier",
          "name": "current",
          "type": "uint8"
        },
        {
          "internalType": "enum ERC8004ServiceNFT.Tier",
          "name": "requested",
          "type": "uint8"
        }
      ],
      "name": "InvalidTierUpgrade",
      "type": "error"
    },
    {
      "inputs": [
        {
          "internalType": "address",
          "name": "caller",
          "type": "address"
        },
        {
          "internalType": "uint256",
          "name": "tokenId",
          "type": "uint256"
        }
      ],
      "name": "NotOwnerNorApproved",
      "type": "error"
    },
    {
      "inputs": [
        {
          "internalType": "enum ERC8004ServiceNFT.Tier",
          "name": "tier",
          "type": "uint8"
        },
        {
          "internalType": "uint256",
          "name": "cap",
          "type": "uint256"
        }
      ],
      "name": "TierCapReached",
      "type": "error"
    },
    {
      "inputs": [
        {
          "internalType": "uint256",
          "name": "tokenId",
          "type": "uint256"
        }
      ],
      "name": "TokenDoesNotExist",
      "type": "error"
    },
    {
      "inputs": [
        {
          "internalType": "uint256",
          "name": "tokenId",
          "type": "uint256"
        },
        {
          "internalType": "enum ERC8004ServiceNFT.Tier",
          "name": "tier",
          "type": "uint8"
        }
      ],
      "name": "TransferNotAllowed",
      "type": "error"
    },
    {
      "inputs": [
        {
          "internalType": "address",
          "name": "caller",
          "type": "address"
        },
        {
          "internalType": "bytes32",
          "name": "requiredRole",
          "type": "bytes32"
        }
      ],
      "name": "Unauthorized",
      "type": "error"
    },
    {
      "inputs": [],
      "name": "ZeroAddress",
      "type": "error"
    },
    {
      "anonymous": false,
      "inputs": [
        {
          "indexed": true,
          "internalType": "address",
          "name": "owner",
          "type": "address"
        },
        {
          "indexed": true,
          "internalType": "address",
          "name": "approved",
          "type": "address"
        },
        {
          "indexed": true,
          "internalType": "uint256",
          "name": "tokenId",
          "type": "uint256"
        }
      ],
      "name": "Approval",
      "type": "event"
    },
    {
      "anonymous": false,
      "inputs": [
        {
          "indexed": true,
          "internalType": "address",
          "name": "owner",
          "type": "address"
        },
        {
          "indexed": true,
          "internalType": "address",
          "name": "operator",
          "type": "address"
        },
        {
          "indexed": false,
          "internalType": "bool",
          "name": "approved",
          "type": "bool"
        }
      ],
      "name": "ApprovalForAll",
      "type": "event"
    },
    {
      "anonymous": false,
      "inputs": [
        {
          "indexed": false,
          "internalType": "string",
          "name": "newBaseURI",
          "type": "string"
        }
      ],
      "name": "BaseURIUpdated",
      "type": "event"
    },
    {
      "anonymous": false,
      "inputs": [
        {
          "indexed": true,
          "internalType": "bytes32",
          "name": "role",
          "type": "bytes32"
        },
        {
          "indexed": true,
          "internalType": "address",
          "name": "account",
          "type": "address"
        }
      ],
      "name": "RoleGranted",
      "type": "event"
    },
    {
      "anonymous": false,
      "inputs": [
        {
          "indexed": true,
          "internalType": "bytes32",
          "name": "role",
          "type": "bytes32"
        },
        {
          "indexed": true,
          "internalType": "address",
          "name": "account",
          "type": "address"
        }
      ],
      "name": "RoleRevoked",
      "type": "event"
    },
    {
      "anonymous": false,
      "inputs": [
        {
          "indexed": false,
          "internalType": "address",
          "name": "receiver",
          "type": "address"
        },
        {
          "indexed": false,
          "internalType": "uint96",
          "name": "feeBps",
          "type": "uint96"
        }
      ],
      "name": "RoyaltyUpdated",
      "type": "event"
    },
    {
      "anonymous": false,
      "inputs": [
        {
          "indexed": true,
          "internalType": "address",
          "name": "to",
          "type": "address"
        },
        {
          "indexed": true,
          "internalType": "uint256",
          "name": "tokenId",
          "type": "uint256"
        },
        {
          "indexed": false,
          "internalType": "enum ERC8004ServiceNFT.Tier",
          "name": "tier",
          "type": "uint8"
        }
      ],
      "name": "ServiceNFTMinted",
      "type": "event"
    },
    {
      "anonymous": false,
      "inputs": [
        {
          "indexed": true,
          "internalType": "enum ERC8004ServiceNFT.Tier",
          "name": "tier",
          "type": "uint8"
        },
        {
          "indexed": false,
          "internalType": "uint256",
          "name": "maxSupply",
          "type": "uint256"
        },
        {
          "indexed": false,
          "internalType": "bool",
          "name": "transferable",
          "type": "bool"
        }
      ],
      "name": "TierConfigUpdated",
      "type": "event"
    },
    {
      "anonymous": false,
      "inputs": [
        {
          "indexed": true,
          "internalType": "uint256",
          "name": "tokenId",
          "type": "uint256"
        },
        {
          "indexed": false,
          "internalType": "enum ERC8004ServiceNFT.Tier",
          "name": "oldTier",
          "type": "uint8"
        },
        {
          "indexed": false,
          "internalType": "enum ERC8004ServiceNFT.Tier",
          "name": "newTier",
          "type": "uint8"
        }
      ],
      "name": "TierUpgraded",
      "type": "event"
    },
    {
      "anonymous": false,
      "inputs": [
        {
          "indexed": true,
          "internalType": "uint256",
          "name": "tokenId",
          "type": "uint256"
        },
        {
          "indexed": false,
          "internalType": "string",
          "name": "uri",
          "type": "string"
        }
      ],
      "name": "TokenURISet",
      "type": "event"
    },
    {
      "anonymous": false,
      "inputs": [
        {
          "indexed": true,
          "internalType": "address",
          "name": "from",
          "type": "address"
        },
        {
          "indexed": true,
          "internalType": "address",
          "name": "to",
          "type": "address"
        },
        {
          "indexed": true,
          "internalType": "uint256",
          "name": "tokenId",
          "type": "uint256"
        }
      ],
      "name": "Transfer",
      "type": "event"
    },
    {
      "inputs": [],
      "name": "ADMIN_ROLE",
      "outputs": [
        {
          "internalType": "bytes32",
          "name": "",
          "type": "bytes32"
        }
      ],
      "stateMutability": "view",
      "type": "function"
    },
    {
      "inputs": [],
      "name": "MINTER_ROLE",
      "outputs": [
        {
          "internalType": "bytes32",
          "name": "",
          "type": "bytes32"
        }
      ],
      "stateMutability": "view",
      "type": "function"
    },
    {
      "inputs": [],
      "name": "URI_ROLE",
      "outputs": [
        {
          "internalType": "bytes32",
          "name": "",
          "type": "bytes32"
        }
      ],
      "stateMutability": "view",
      "type": "function"
    },
    {
      "inputs": [
        {
          "internalType": "address",
          "name": "to",
          "type": "address"
        },
        {
          "internalType": "uint256",
          "name": "tokenId",
          "type": "uint256"
        }
      ],
      "name": "approve",
      "outputs": [],
      "stateMutability": "nonpayable",
      "type": "function"
    },
    {
      "inputs": [
        {
          "internalType": "address",
          "name": "",
          "type": "address"
        }
      ],
      "name": "balanceOf",
      "outputs": [
        {
          "internalType": "uint256",
          "name": "",
          "type": "uint256"
        }
      ],
      "stateMutability": "view",
      "type": "function"
    },
    {
      "inputs": [],
      "name": "baseURI",
      "outputs": [
        {
          "internalType": "string",
          "name": "",
          "type": "string"
        }
      ],
      "stateMutability": "view",
      "type": "function"
    },
    {
      "inputs": [
        {
          "internalType": "uint256",
          "name": "tokenId",
          "type": "uint256"
        }
      ],
      "name": "getApproved",
      "outputs": [
        {
          "internalType": "address",
          "name": "",
          "type": "address"
        }
      ],
      "stateMutability": "view",
      "type": "function"
    },
    {
      "inputs": [
        {
          "internalType": "bytes32",
          "name": "role",
          "type": "bytes32"
        },
        {
          "internalType": "address",
          "name": "account",
          "type": "address"
        }
      ],
      "name": "grantRole",
      "outputs": [],
      "stateMutability": "nonpayable",
      "type": "function"
    },
    {
      "inputs": [
        {
          "internalType": "bytes32",
          "name": "role",
          "type": "bytes32"
        },
        {
          "internalType": "address",
          "name": "account",
          "type": "address"
        }
      ],
      "name": "hasRole",
      "outputs": [
        {
          "internalType": "bool",
          "name": "",
          "type": "bool"
        }
      ],
      "stateMutability": "view",
      "type": "function"
    },
    {
      "inputs": [
        {
          "internalType": "address",
          "name": "owner",
          "type": "address"
        },
        {
          "internalType": "address",
          "name": "operator",
          "type": "address"
        }
      ],
      "name": "isApprovedForAll",
      "outputs": [
        {
          "internalType": "bool",
          "name": "",
          "type": "bool"
        }
      ],
      "stateMutability": "view",
      "type": "function"
    },
    {
      "inputs": [
        {
          "internalType": "address",
          "name": "to",
          "type": "address"
        },
        {
          "internalType": "enum ERC8004ServiceNFT.Tier",
          "name": "tier",
          "type": "uint8"
        }
      ],
      "name": "mint",
      "outputs": [
        {
          "internalType": "uint256",
          "name": "tokenId",
          "type": "uint256"
        }
      ],
      "stateMutability": "nonpayable",
      "type": "function"
    },
    {
      "inputs": [
        {
          "internalType": "address",
          "name": "to",
          "type": "address"
        },
        {
          "internalType": "enum ERC8004ServiceNFT.Tier",
          "name": "tier",
          "type": "uint8"
        },
        {
          "internalType": "string",
          "name": "uri",
          "type": "string"
        }
      ],
      "name": "mintWithURI",
      "outputs": [
        {
          "internalType": "uint256",
          "name": "tokenId",
          "type": "uint256"
        }
      ],
      "stateMutability": "nonpayable",
      "type": "function"
    },
    {
      "inputs": [],
      "name": "name",
      "outputs": [
        {
          "internalType": "string",
          "name": "",
          "type": "string"
        }
      ],
      "stateMutability": "view",
      "type": "function"
    },
    {
      "inputs": [
        {
          "internalType": "uint256",
          "name": "tokenId",
          "type": "uint256"
        }
      ],
      "name": "ownerOf",
      "outputs": [
        {
          "internalType": "address",
          "name": "",
          "type": "address"
        }
      ],
      "stateMutability": "view",
      "type": "function"
    },
    {
      "inputs": [
        {
          "internalType": "bytes32",
          "name": "role",
          "type": "bytes32"
        },
        {
          "internalType": "address",
          "name": "account",
          "type": "address"
        }
      ],
      "name": "revokeRole",
      "outputs": [],
      "stateMutability": "nonpayable",
      "type": "function"
    },
    {
      "inputs": [],
      "name": "royaltyBps",
      "outputs": [
        {
          "internalType": "uint96",
          "name": "",
          "type": "uint96"
        }
      ],
      "stateMutability": "view",
      "type": "function"
    },
    {
      "inputs": [
        {
          "internalType": "uint256",
          "name": "",
          "type": "uint256"
        },
        {
          "internalType": "uint256",
          "name": "salePrice",
          "type": "uint256"
        }
      ],
      "name": "royaltyInfo",
      "outputs": [
        {
          "internalType": "address",
          "name": "receiver",
          "type": "address"
        },
        {
          "internalType": "uint256",
          "name": "royaltyAmount",
          "type": "uint256"
        }
      ],
      "stateMutability": "view",
      "type": "function"
    },
    {
      "inputs": [],
      "name": "royaltyReceiver",
      "outputs": [
        {
          "internalType": "address",
          "name": "",
          "type": "address"
        }
      ],
      "stateMutability": "view",
      "type": "function"
    },
    {
      "inputs": [
        {
          "internalType": "address",
          "name": "from",
          "type": "address"
        },
        {
          "internalType": "address",
          "name": "to",
          "type": "address"
        },
        {
          "internalType": "uint256",
          "name": "tokenId",
          "type": "uint256"
        }
      ],
      "name": "safeTransferFrom",
      "outputs": [],
      "stateMutability": "nonpayable",
      "type": "function"
    },
    {
      "inputs": [
        {
          "internalType": "address",
          "name": "from",
          "type": "address"
        },
        {
          "internalType": "address",
          "name": "to",
          "type": "address"
        },
        {
          "internalType": "uint256",
          "name": "tokenId",
          "type": "uint256"
        },
        {
          "internalType": "bytes",
          "name": "data",
          "type": "bytes"
        }
      ],
      "name": "safeTransferFrom",
      "outputs": [],
      "stateMutability": "nonpayable",
      "type": "function"
    },
    {
      "inputs": [
        {
          "internalType": "address",
          "name": "operator",
          "type": "address"
        },
        {
          "internalType": "bool",
          "name": "approved",
          "type": "bool"
        }
      ],
      "name": "setApprovalForAll",
      "outputs": [],
      "stateMutability": "nonpayable",
      "type": "function"
    },
    {
      "inputs": [
        {
          "internalType": "string",
          "name": "uri",
          "type": "string"
        }
      ],
      "name": "setBaseURI",
      "outputs": [],
      "stateMutability": "nonpayable",
      "type": "function"
    },
    {
      "inputs": [
        {
          "internalType": "address",
          "name": "receiver",
          "type": "address"
        },
        {
          "internalType": "uint96",
          "name": "bps",
          "type": "uint96"
        }
      ],
      "name": "setRoyalty",
      "outputs": [],
      "stateMutability": "nonpayable",
      "type": "function"
    },
    {
      "inputs": [
        {
          "internalType": "enum ERC8004ServiceNFT.Tier",
          "name": "tier",
          "type": "uint8"
        },
        {
          "internalType": "uint256",
          "name": "maxSupply",
          "type": "uint256"
        },
        {
          "internalType": "bool",
          "name": "transferable",
          "type": "bool"
        }
      ],
      "name": "setTierConfig",
      "outputs": [],
      "stateMutability": "nonpayable",
      "type": "function"
    },
    {
      "inputs": [
        {
          "internalType": "uint256",
          "name": "tokenId",
          "type": "uint256"
        },
        {
          "internalType": "string",
          "name": "uri",
          "type": "string"
        }
      ],
      "name": "setTokenURI",
      "outputs": [],
      "stateMutability": "nonpayable",
      "type": "function"
    },
    {
      "inputs": [
        {
          "internalType": "bytes4",
          "name": "interfaceId",
          "type": "bytes4"
        }
      ],
      "name": "supportsInterface",
      "outputs": [
        {
          "internalType": "bool",
          "name": "",
          "type": "bool"
        }
      ],
      "stateMutability": "pure",
      "type": "function"
    },
    {
      "inputs": [],
      "name": "symbol",
      "outputs": [
        {
          "internalType": "string",
          "name": "",
          "type": "string"
        }
      ],
      "stateMutability": "view",
      "type": "function"
    },
    {
      "inputs": [
        {
          "internalType": "enum ERC8004ServiceNFT.Tier",
          "name": "",
          "type": "uint8"
        }
      ],
      "name": "tierConfig",
      "outputs": [
        {
          "internalType": "uint256",
          "name": "maxSupply",
          "type": "uint256"
        },
        {
          "internalType": "uint256",
          "name": "minted",
          "type": "uint256"
        },
        {
          "internalType": "bool",
          "name": "transferable",
          "type": "bool"
        }
      ],
      "stateMutability": "view",
      "type": "function"
    },
    {
      "inputs": [
        {
          "internalType": "uint256",
          "name": "tokenId",
          "type": "uint256"
        }
      ],
      "name": "tokenData",
      "outputs": [
        {
          "internalType": "enum ERC8004ServiceNFT.Tier",
          "name": "tier",
          "type": "uint8"
        },
        {
          "internalType": "address",
          "name": "owner",
          "type": "address"
        },
        {
          "internalType": "uint48",
          "name": "mintedAt",
          "type": "uint48"
        }
      ],
      "stateMutability": "view",
      "type": "function"
    },
    {
      "inputs": [
        {
          "internalType": "uint256",
          "name": "tokenId",
          "type": "uint256"
        }
      ],
      "name": "tokenURI",
      "outputs": [
        {
          "internalType": "string",
          "name": "",
          "type": "string"
        }
      ],
      "stateMutability": "view",
      "type": "function"
    },
    {
      "inputs": [
        {
          "internalType": "address",
          "name": "owner",
          "type": "address"
        }
      ],
      "name": "tokensOfOwner",
      "outputs": [
        {
          "internalType": "uint256[]",
          "name": "",
          "type": "uint256[]"
        }
      ],
      "stateMutability": "view",
      "type": "function"
    },
    {
      "inputs": [],
      "name": "totalSupply",
      "outputs": [
        {
          "internalType": "uint256",
          "name": "",
          "type": "uint256"
        }
      ],
      "stateMutability": "view",
      "type": "function"
    },
    {
      "inputs": [
        {
          "internalType": "address",
          "name": "from",
          "type": "address"
        },
        {
          "internalType": "address",
          "name": "to",
          "type": "address"
        },
        {
          "internalType": "uint256",
          "name": "tokenId",
          "type": "uint256"
        }
      ],
      "name": "transferFrom",
      "outputs": [],
      "stateMutability": "nonpayable",
      "type": "function"
    },
    {
      "inputs": [
        {
          "internalType": "uint256",
          "name": "tokenId",
          "type": "uint256"
        },
        {
          "internalType": "enum ERC8004ServiceNFT.Tier",
          "name": "newTier",
          "type": "uint8"
        }
      ],
      "name": "upgradeTier",
      "outputs": [],
      "stateMutability": "nonpayable",
      "type": "function"
    }
  ],
  "bytecode": "0x608060405260016005553480156200001657600080fd5b506040518060400160405280601381526020017f455243383030342053657276696365204e465400000000000000000000000000815250600190816200005d919062000734565b506040518060400160405280600781526020017f535643383030340000000000000000000000000000000000000000000000000081525060029081620000a4919062000734565b50620000d77fa49807205ce4d355092ef5a8a18f56e8913cf4a201fbe287825b095693c21775336200040a60201b60201c565b620001097f9f2df0fed2c77648de5860a4cc508cd0818c85b8b8a1ab4ceeef8d981c8956a6336200040a60201b60201c565b6200013b7f8e6595ef9afb2a8f70320f393f567bb7a0e6c4ed483caee30f90cc5fcd6659b4336200040a60201b60201c565b33600d60006101000a81548173ffffffffffffffffffffffffffffffffffffffff021916908373ffffffffffffffffffffffffffffffffffffffff1602179055506101f4600d60146101000a8154816bffffffffffffffffffffffff02191690836bffffffffffffffffffffffff160217905550604051806060016040528061271081526020016000815260200160011515815250600c6000806003811115620001ea57620001e96200081b565b5b6003811115620001ff57620001fe6200081b565b5b8152602001908152602001600020600082015181600001556020820151816001015560408201518160020160006101000a81548160ff0219169083151502179055509050506040518060600160405280610bb881526020016000815260200160011515815250600c60006001600381111562000280576200027f6200081b565b5b60038111156200029557620002946200081b565b5b8152602001908152602001600020600082015181600001556020820151816001015560408201518160020160006101000a81548160ff02191690831515021790555090505060405180606001604052806101f481526020016000815260200160011515815250600c6000600260038111156200031657620003156200081b565b5b60038111156200032b576200032a6200081b565b5b8152602001908152602001600020600082015181600001556020820151816001015560408201518160020160006101000a81548160ff0219169083151502179055509050506040518060600160405280606481526020016000815260200160001515815250600c6000600380811115620003aa57620003a96200081b565b5b6003811115620003bf57620003be6200081b565b5b8152602001908152602001600020600082015181600001556020820151816001015560408201518160020160006101000a81548160ff0219169083151502179055509050506200084a565b600160008084815260200190815260200160002060008373ffffffffffffffffffffffffffffffffffffffff1673ffffffffffffffffffffffffffffffffffffffff16815260200190815260200160002060006101000a81548160ff0219169083151502179055508073ffffffffffffffffffffffffffffffffffffffff16827f2ae6a113c0ed5b78a53413ffbb7679881f11145ccfba4fb92e863dfcd5a1d2f360405160405180910390a35050565b600081519050919050565b7f4e487b7100000000000000000000000000000000000000000000000000000000600052604160045260246000fd5b7f4e487b7100000000000000000000000000000000000000000000000000000000600052602260045260246000fd5b600060028204905060018216806200053c57607f821691505b602082108103620005525762000551620004f4565b5b50919050565b60008190508160005260206000209050919050565b60006020601f8301049050919050565b600082821b905092915050565b600060088302620005bc7fffffffffffffffffffffffffffffffffffffffffffffffffffffffffffffffff826200057d565b620005c886836200057d565b95508019841693508086168417925050509392505050565b6000819050919050565b6000819050919050565b6000620006156200060f6200060984620005e0565b620005ea565b620005e0565b9050919050565b6000819050919050565b6200063183620005f4565b6200064962000640826200061c565b8484546200058a565b825550505050565b600090565b6200066062000651565b6200066d81848462000626565b505050565b5b8181101562000695576200068960008262000656565b60018101905062000673565b5050565b601f821115620006e457620006ae8162000558565b620006b9846200056d565b81016020851015620006c9578190505b620006e1620006d8856200056d565b83018262000672565b50505b505050565b600082821c905092915050565b60006200070960001984600802620006e9565b1980831691505092915050565b6000620007248383620006f6565b9150826002028217905092915050565b6200073f82620004ba565b67ffffffffffffffff8111156200075b576200075a620004c5565b5b62000767825462000523565b6200077482828562000699565b600060209050601f831160018114620007ac576000841562000797578287015190505b620007a3858262000716565b86555062000813565b601f198416620007bc8662000558565b60005b82811015620007e657848901518255600182019150602085019450602081019050620007bf565b8683101562000806578489015162000802601f891682620006f6565b8355505b6001600288020188555050505b505050505050565b7f4e487b7100000000000000000000000000000000000000000000000000000000600052602160045260246000fd5b6145ab806200085a6000396000f3fe608060405234801561001057600080fd5b50600436106102065760003560e01c80636c0360eb1161011a578063a22cb465116100ad578063c87b56dd1161007c578063c87b56dd14610614578063d539139314610644578063d547741f14610662578063e985e9c51461067e578063ed4e0e23146106ae57610206565b8063a22cb4651461058c578063b4b5b48f146105a8578063b88d4fde146105da578063c63adb2b146105f657610206565b80638f2fc60b116100e95780638f2fc60b1461050457806391d148541461052057806395d89b41146105505780639fbc87131461056e57610206565b80636c0360eb1461046857806370a082311461048657806375b238fc146104b65780638462151c146104d457610206565b8063295d81411161019d57806342842e0e1161016c57806342842e0e1461039e578063468b5425146103ba57806355f804b3146103ec5780636352211e14610408578063691562a01461043857610206565b8063295d8141146103195780632a55205a146103355780632f2ff15d1461036657806336f005aa1461038257610206565b80630ab5f32a116101d95780630ab5f32a146102a5578063162094c4146102c357806318160ddd146102df57806323b872dd146102fd57610206565b806301ffc9a71461020b57806306fdde031461023b578063081812fc14610259578063095ea7b314610289575b600080fd5b6102256004803603810190610220919061305f565b6106de565b60405161023291906130a7565b60405180910390f35b6102436107a0565b6040516102509190613152565b60405180910390f35b610273600480360381019061026e91906131aa565b61082e565b6040516102809190613218565b60405180910390f35b6102a3600480360381019061029e919061325f565b610914565b005b6102ad610a5a565b6040516102ba91906132b8565b60405180910390f35b6102dd60048036038101906102d89190613338565b610a7e565b005b6102e7610c4e565b6040516102f491906133a7565b60405180910390f35b610317600480360381019061031291906133c2565b610c54565b005b610333600480360381019061032e9190613466565b610cdd565b005b61034f600480360381019061034a91906134b9565b610e51565b60405161035d9291906134f9565b60405180910390f35b610380600480360381019061037b919061354e565b610ec3565b005b61039c6004803603810190610397919061358e565b610f93565b005b6103b860048036038101906103b391906133c2565b61131d565b005b6103d460048036038101906103cf91906135ce565b61133d565b6040516103e3939291906135fb565b60405180910390f35b61040660048036038101906104019190613632565b611374565b005b610422600480360381019061041d91906131aa565b611485565b60405161042f9190613218565b60405180910390f35b610452600480360381019061044d919061367f565b61156e565b60405161045f91906133a7565b60405180910390f35b6104706119c1565b60405161047d9190613152565b60405180910390f35b6104a0600480360381019061049b91906136bf565b611a4f565b6040516104ad91906133a7565b60405180910390f35b6104be611a67565b6040516104cb91906132b8565b60405180910390f35b6104ee60048036038101906104e991906136bf565b611a8b565b6040516104fb91906137aa565b60405180910390f35b61051e60048036038101906105199190613810565b611b22565b005b61053a6004803603810190610535919061354e565b611d4e565b60405161054791906130a7565b60405180910390f35b610558611db5565b6040516105659190613152565b60405180910390f35b610576611e43565b6040516105839190613218565b60405180910390f35b6105a660048036038101906105a19190613850565b611e69565b005b6105c260048036038101906105bd91906131aa565b611f66565b6040516105d193929190613928565b60405180910390f35b6105f460048036038101906105ef9190613a8f565b612087565b005b6105fe6120a4565b60405161060b9190613b21565b60405180910390f35b61062e600480360381019061062991906131aa565b6120c2565b60405161063b9190613152565b60405180910390f35b61064c612285565b60405161065991906132b8565b60405180910390f35b61067c6004803603810190610677919061354e565b6122a9565b005b61069860048036038101906106939190613b3c565b61241b565b6040516106a591906130a7565b60405180910390f35b6106c860048036038101906106c39190613b7c565b6124af565b6040516106d591906133a7565b60405180910390f35b60006380ac58cd60e01b827bffffffffffffffffffffffffffffffffffffffffffffffffffffffff191614806107395750635b5e139f60e01b827bffffffffffffffffffffffffffffffffffffffffffffffffffffffff1916145b806107695750632a55205a60e01b827bffffffffffffffffffffffffffffffffffffffffffffffffffffffff1916145b8061079957506301ffc9a760e01b827bffffffffffffffffffffffffffffffffffffffffffffffffffffffff1916145b9050919050565b600180546107ad90613c1f565b80601f01602080910402602001604051908101604052809291908181526020018280546107d990613c1f565b80156108265780601f106107fb57610100808354040283529160200191610826565b820191906000526020600020905b81548152906001019060200180831161080957829003601f168201915b505050505081565b600081600073ffffffffffffffffffffffffffffffffffffffff166006600083815260200190815260200160002060000160019054906101000a900473ffffffffffffffffffffffffffffffffffffffff1673ffffffffffffffffffffffffffffffffffffffff16036108d857806040517fc927e5bf0000000000000000000000000000000000000000000000000000000081526004016108cf91906133a7565b60405180910390fd5b6008600084815260200190815260200160002060009054906101000a900473ffffffffffffffffffffffffffffffffffffffff16915050919050565b600061091f82611485565b90508073ffffffffffffffffffffffffffffffffffffffff163373ffffffffffffffffffffffffffffffffffffffff16141580156109645750610962813361241b565b155b156109a85733826040517f26e6a53100000000000000000000000000000000000000000000000000000000815260040161099f9291906134f9565b60405180910390fd5b826008600084815260200190815260200160002060006101000a81548173ffffffffffffffffffffffffffffffffffffffff021916908373ffffffffffffffffffffffffffffffffffffffff160217905550818373ffffffffffffffffffffffffffffffffffffffff168273ffffffffffffffffffffffffffffffffffffffff167f8c5be1e5ebec7d5bd14f71427d1e84f3dd0314c0f7b2291e5b200ac8c7c3b92560405160405180910390a4505050565b7f8e6595ef9afb2a8f70320f393f567bb7a0e6c4ed483caee30f90cc5fcd6659b481565b7f8e6595ef9afb2a8f70320f393f567bb7a0e6c4ed483caee30f90cc5fcd6659b460008082815260200190815260200160002060003373ffffffffffffffffffffffffffffffffffffffff1673ffffffffffffffffffffffffffffffffffffffff16815260200190815260200160002060009054906101000a900460ff16610b3f5733816040517f245329c6000000000000000000000000000000000000000000000000000000008152600401610b36929190613c50565b60405180910390fd5b83600073ffffffffffffffffffffffffffffffffffffffff166006600083815260200190815260200160002060000160019054906101000a900473ffffffffffffffffffffffffffffffffffffffff1673ffffffffffffffffffffffffffffffffffffffff1603610be757806040517fc927e5bf000000000000000000000000000000000000000000000000000000008152600401610bde91906133a7565b60405180910390fd5b8383600660008881526020019081526020016000206001019182610c0c929190613e30565b50847fda84ca2183491f179a603e877b2cb058e42195041c2b9c53d746427e519a34df8585604051610c3f929190613f2d565b60405180910390a25050505050565b60045481565b600073ffffffffffffffffffffffffffffffffffffffff168273ffffffffffffffffffffffffffffffffffffffff1603610cba576040517fd92e233d00000000000000000000000000000000000000000000000000000000815260040160405180910390fd5b610cc4838261265b565b610ccd816127a6565b610cd883838361285d565b505050565b7fa49807205ce4d355092ef5a8a18f56e8913cf4a201fbe287825b095693c2177560008082815260200190815260200160002060003373ffffffffffffffffffffffffffffffffffffffff1673ffffffffffffffffffffffffffffffffffffffff16815260200190815260200160002060009054906101000a900460ff16610d9e5733816040517f245329c6000000000000000000000000000000000000000000000000000000008152600401610d95929190613c50565b60405180910390fd5b6000600c6000866003811115610db757610db6613890565b5b6003811115610dc957610dc8613890565b5b81526020019081526020016000209050838160000181905550828160020160006101000a81548160ff021916908315150217905550846003811115610e1157610e10613890565b5b7f1ff2fcda572ae5d5521d99b310036601eea7a811950ba264524b293bd283c1278585604051610e42929190613f51565b60405180910390a25050505050565b600080600d60009054906101000a900473ffffffffffffffffffffffffffffffffffffffff169150612710600d60149054906101000a90046bffffffffffffffffffffffff166bffffffffffffffffffffffff1684610eb09190613fa9565b610eba919061401a565b90509250929050565b7fa49807205ce4d355092ef5a8a18f56e8913cf4a201fbe287825b095693c2177560008082815260200190815260200160002060003373ffffffffffffffffffffffffffffffffffffffff1673ffffffffffffffffffffffffffffffffffffffff16815260200190815260200160002060009054906101000a900460ff16610f845733816040517f245329c6000000000000000000000000000000000000000000000000000000008152600401610f7b929190613c50565b60405180910390fd5b610f8e83836129fb565b505050565b7f9f2df0fed2c77648de5860a4cc508cd0818c85b8b8a1ab4ceeef8d981c8956a660008082815260200190815260200160002060003373ffffffffffffffffffffffffffffffffffffffff1673ffffffffffffffffffffffffffffffffffffffff16815260200190815260200160002060009054906101000a900460ff166110545733816040517f245329c600000000000000000000000000000000000000000000000000000000815260040161104b929190613c50565b60405180910390fd5b82600073ffffffffffffffffffffffffffffffffffffffff166006600083815260200190815260200160002060000160019054906101000a900473ffffffffffffffffffffffffffffffffffffffff1673ffffffffffffffffffffffffffffffffffffffff16036110fc57806040517fc927e5bf0000000000000000000000000000000000000000000000000000000081526004016110f391906133a7565b60405180910390fd5b60006006600086815260200190815260200160002060000160009054906101000a900460ff16905080600381111561113757611136613890565b5b60ff1684600381111561114d5761114c613890565b5b60ff16116111945780846040517f5bafcaa500000000000000000000000000000000000000000000000000000000815260040161118b92919061404b565b60405180910390fd5b6000600c60008660038111156111ad576111ac613890565b5b60038111156111bf576111be613890565b5b81526020019081526020016000209050600081600001541180156111eb57508060000154816001015410155b15611233578481600001546040517fd1b5446300000000000000000000000000000000000000000000000000000000815260040161122a929190614074565b60405180910390fd5b600c600083600381111561124a57611249613890565b5b600381111561125c5761125b613890565b5b8152602001908152602001600020600101600081548092919061127e9061409d565b9190505550806001016000815480929190611298906140c6565b9190505550846006600088815260200190815260200160002060000160006101000a81548160ff021916908360038111156112d6576112d5613890565b5b0217905550857f57ceb88011b120a0441a16383dc232e775510168ab27978582d21c610a6e4247838760405161130d92919061404b565b60405180910390a2505050505050565b61133883838360405180602001604052806000815250612087565b505050565b600c6020528060005260406000206000915090508060000154908060010154908060020160009054906101000a900460ff16905083565b7f8e6595ef9afb2a8f70320f393f567bb7a0e6c4ed483caee30f90cc5fcd6659b460008082815260200190815260200160002060003373ffffffffffffffffffffffffffffffffffffffff1673ffffffffffffffffffffffffffffffffffffffff16815260200190815260200160002060009054906101000a900460ff166114355733816040517f245329c600000000000000000000000000000000000000000000000000000000815260040161142c929190613c50565b60405180910390fd5b828260039182611446929190613e30565b507f6741b2fc379fad678116fe3d4d4b9a1a184ab53ba36b86ad0fa66340b1ab41ad8383604051611478929190613f2d565b60405180910390a1505050565b600081600073ffffffffffffffffffffffffffffffffffffffff166006600083815260200190815260200160002060000160019054906101000a900473ffffffffffffffffffffffffffffffffffffffff1673ffffffffffffffffffffffffffffffffffffffff160361152f57806040517fc927e5bf00000000000000000000000000000000000000000000000000000000815260040161152691906133a7565b60405180910390fd5b6006600084815260200190815260200160002060000160019054906101000a900473ffffffffffffffffffffffffffffffffffffffff16915050919050565b60007f9f2df0fed2c77648de5860a4cc508cd0818c85b8b8a1ab4ceeef8d981c8956a660008082815260200190815260200160002060003373ffffffffffffffffffffffffffffffffffffffff1673ffffffffffffffffffffffffffffffffffffffff16815260200190815260200160002060009054906101000a900460ff166116315733816040517f245329c6000000000000000000000000000000000000000000000000000000008152600401611628929190613c50565b60405180910390fd5b600073ffffffffffffffffffffffffffffffffffffffff168473ffffffffffffffffffffffffffffffffffffffff1603611697576040517fd92e233d00000000000000000000000000000000000000000000000000000000815260040160405180910390fd5b6000600c60008560038111156116b0576116af613890565b5b60038111156116c2576116c1613890565b5b81526020019081526020016000209050600081600001541180156116ee57508060000154816001015410155b15611736578381600001546040517fd1b5446300000000000000000000000000000000000000000000000000000000815260040161172d929190614074565b60405180910390fd5b60056000815480929190611749906140c6565b919050559250806001016000815480929190611764906140c6565b91905055506004600081548092919061177c906140c6565b9190505550604051806080016040528085600381111561179f5761179e613890565b5b81526020018673ffffffffffffffffffffffffffffffffffffffff1681526020016040518060200160405280600081525081526020014265ffffffffffff168152506006600085815260200190815260200160002060008201518160000160006101000a81548160ff0219169083600381111561181f5761181e613890565b5b021790555060208201518160000160016101000a81548173ffffffffffffffffffffffffffffffffffffffff021916908373ffffffffffffffffffffffffffffffffffffffff1602179055506040820151816001019081611880919061410e565b5060608201518160020160006101000a81548165ffffffffffff021916908365ffffffffffff1602179055509050506118b98584612aab565b600760008673ffffffffffffffffffffffffffffffffffffffff1673ffffffffffffffffffffffffffffffffffffffff1681526020019081526020016000206000815480929190611909906140c6565b9190505550828573ffffffffffffffffffffffffffffffffffffffff16600073ffffffffffffffffffffffffffffffffffffffff167fddf252ad1be2c89b69c2b068fc378daa952ba7f163c4a11628f55a4df523b3ef60405160405180910390a4828573ffffffffffffffffffffffffffffffffffffffff167f3c08bfb3719345b3cc6e85ffb3e02917ecf0b12ce1d787c7ac41a759b1bc5b1a866040516119b191906141e0565b60405180910390a3505092915050565b600380546119ce90613c1f565b80601f01602080910402602001604051908101604052809291908181526020018280546119fa90613c1f565b8015611a475780601f10611a1c57610100808354040283529160200191611a47565b820191906000526020600020905b815481529060010190602001808311611a2a57829003601f168201915b505050505081565b60076020528060005260406000206000915090505481565b7fa49807205ce4d355092ef5a8a18f56e8913cf4a201fbe287825b095693c2177581565b6060600a60008373ffffffffffffffffffffffffffffffffffffffff1673ffffffffffffffffffffffffffffffffffffffff168152602001908152602001600020805480602002602001604051908101604052809291908181526020018280548015611b1657602002820191906000526020600020905b815481526020019060010190808311611b02575b50505050509050919050565b7fa49807205ce4d355092ef5a8a18f56e8913cf4a201fbe287825b095693c2177560008082815260200190815260200160002060003373ffffffffffffffffffffffffffffffffffffffff1673ffffffffffffffffffffffffffffffffffffffff16815260200190815260200160002060009054906101000a900460ff16611be35733816040517f245329c6000000000000000000000000000000000000000000000000000000008152600401611bda929190613c50565b60405180910390fd5b600073ffffffffffffffffffffffffffffffffffffffff168373ffffffffffffffffffffffffffffffffffffffff1603611c49576040517fd92e233d00000000000000000000000000000000000000000000000000000000815260040160405180910390fd5b6103e8826bffffffffffffffffffffffff161115611c9e57816040517facab0b80000000000000000000000000000000000000000000000000000000008152600401611c959190613b21565b60405180910390fd5b82600d60006101000a81548173ffffffffffffffffffffffffffffffffffffffff021916908373ffffffffffffffffffffffffffffffffffffffff16021790555081600d60146101000a8154816bffffffffffffffffffffffff02191690836bffffffffffffffffffffffff1602179055507f8039bd6e4e7dba001c8840eb2e118d9d131246faa7d0d04335f7305127ec0b108383604051611d419291906141fb565b60405180910390a1505050565b600080600084815260200190815260200160002060008373ffffffffffffffffffffffffffffffffffffffff1673ffffffffffffffffffffffffffffffffffffffff16815260200190815260200160002060009054906101000a900460ff16905092915050565b60028054611dc290613c1f565b80601f0160208091040260200160405190810160405280929190818152602001828054611dee90613c1f565b8015611e3b5780601f10611e1057610100808354040283529160200191611e3b565b820191906000526020600020905b815481529060010190602001808311611e1e57829003601f168201915b505050505081565b600d60009054906101000a900473ffffffffffffffffffffffffffffffffffffffff1681565b80600960003373ffffffffffffffffffffffffffffffffffffffff1673ffffffffffffffffffffffffffffffffffffffff16815260200190815260200160002060008473ffffffffffffffffffffffffffffffffffffffff1673ffffffffffffffffffffffffffffffffffffffff16815260200190815260200160002060006101000a81548160ff0219169083151502179055508173ffffffffffffffffffffffffffffffffffffffff163373ffffffffffffffffffffffffffffffffffffffff167f17307eab39ab6107e8899845ad3d59bd9653f200f220920489ca2b5937696c3183604051611f5a91906130a7565b60405180910390a35050565b600080600083600073ffffffffffffffffffffffffffffffffffffffff166006600083815260200190815260200160002060000160019054906101000a900473ffffffffffffffffffffffffffffffffffffffff1673ffffffffffffffffffffffffffffffffffffffff160361201357806040517fc927e5bf00000000000000000000000000000000000000000000000000000000815260040161200a91906133a7565b60405180910390fd5b60006006600087815260200190815260200160002090508060000160009054906101000a900460ff168160000160019054906101000a900473ffffffffffffffffffffffffffffffffffffffff168260020160009054906101000a900465ffffffffffff1694509450945050509193909250565b612092848484610c54565b61209e84848484612b6f565b50505050565b600d60149054906101000a90046bffffffffffffffffffffffff1681565b606081600073ffffffffffffffffffffffffffffffffffffffff166006600083815260200190815260200160002060000160019054906101000a900473ffffffffffffffffffffffffffffffffffffffff1673ffffffffffffffffffffffffffffffffffffffff160361216c57806040517fc927e5bf00000000000000000000000000000000000000000000000000000000815260040161216391906133a7565b60405180910390fd5b600060066000858152602001908152602001600020600101805461218f90613c1f565b80601f01602080910402602001604051908101604052809291908181526020018280546121bb90613c1f565b80156122085780601f106121dd57610100808354040283529160200191612208565b820191906000526020600020905b8154815290600101906020018083116121eb57829003601f168201915b50505050509050600081511115612222578092505061227f565b60006003805461223190613c1f565b905003612250576040518060200160405280600081525092505061227f565b600361225b85612cc6565b60405160200161226c9291906142e3565b6040516020818303038152906040529250505b50919050565b7f9f2df0fed2c77648de5860a4cc508cd0818c85b8b8a1ab4ceeef8d981c8956a681565b7fa49807205ce4d355092ef5a8a18f56e8913cf4a201fbe287825b095693c2177560008082815260200190815260200160002060003373ffffffffffffffffffffffffffffffffffffffff1673ffffffffffffffffffffffffffffffffffffffff16815260200190815260200160002060009054906101000a900460ff1661236a5733816040517f245329c6000000000000000000000000000000000000000000000000000000008152600401612361929190613c50565b60405180910390fd5b600080600085815260200190815260200160002060008473ffffffffffffffffffffffffffffffffffffffff1673ffffffffffffffffffffffffffffffffffffffff16815260200190815260200160002060006101000a81548160ff0219169083151502179055508173ffffffffffffffffffffffffffffffffffffffff16837f155aaafb6329a2098580462df33ec4b7441b19729b9601c5fc17ae1cf99a8a5260405160405180910390a3505050565b6000600960008473ffffffffffffffffffffffffffffffffffffffff1673ffffffffffffffffffffffffffffffffffffffff16815260200190815260200160002060008373ffffffffffffffffffffffffffffffffffffffff1673ffffffffffffffffffffffffffffffffffffffff16815260200190815260200160002060009054906101000a900460ff16905092915050565b60007f9f2df0fed2c77648de5860a4cc508cd0818c85b8b8a1ab4ceeef8d981c8956a660008082815260200190815260200160002060003373ffffffffffffffffffffffffffffffffffffffff1673ffffffffffffffffffffffffffffffffffffffff16815260200190815260200160002060009054906101000a900460ff166125725733816040517f245329c6000000000000000000000000000000000000000000000000000000008152600401612569929190613c50565b60405180910390fd5b3073ffffffffffffffffffffffffffffffffffffffff1663691562a087876040518363ffffffff1660e01b81526004016125ad929190614307565b6020604051808303816000875af11580156125cc573d6000803e3d6000fd5b505050506040513d601f19601f820116820180604052508101906125f09190614345565b91508383600660008581526020019081526020016000206001019182612617929190613e30565b50817fda84ca2183491f179a603e877b2cb058e42195041c2b9c53d746427e519a34df858560405161264a929190613f2d565b60405180910390a250949350505050565b600061266682611485565b90508073ffffffffffffffffffffffffffffffffffffffff168373ffffffffffffffffffffffffffffffffffffffff16146126da5782826040517f26e6a5310000000000000000000000000000000000000000000000000000000081526004016126d19291906134f9565b60405180910390fd5b8073ffffffffffffffffffffffffffffffffffffffff163373ffffffffffffffffffffffffffffffffffffffff161415801561271d575061271b813361241b565b155b801561275d57503373ffffffffffffffffffffffffffffffffffffffff166127448361082e565b73ffffffffffffffffffffffffffffffffffffffff1614155b156127a15733826040517f26e6a5310000000000000000000000000000000000000000000000000000000081526004016127989291906134f9565b60405180910390fd5b505050565b60006006600083815260200190815260200160002060000160009054906101000a900460ff169050600c60008260038111156127e5576127e4613890565b5b60038111156127f7576127f6613890565b5b815260200190815260200160002060020160009054906101000a900460ff166128595781816040517f0a0eeaba000000000000000000000000000000000000000000000000000000008152600401612850929190614372565b60405180910390fd5b5050565b816006600083815260200190815260200160002060000160016101000a81548173ffffffffffffffffffffffffffffffffffffffff021916908373ffffffffffffffffffffffffffffffffffffffff1602179055506008600082815260200190815260200160002060006101000a81549073ffffffffffffffffffffffffffffffffffffffff02191690556128f28382612e25565b6128fc8282612aab565b600760008473ffffffffffffffffffffffffffffffffffffffff1673ffffffffffffffffffffffffffffffffffffffff1681526020019081526020016000206000815480929190600190039190505550600760008373ffffffffffffffffffffffffffffffffffffffff1673ffffffffffffffffffffffffffffffffffffffff16815260200190815260200160002060008154809291906001019190505550808273ffffffffffffffffffffffffffffffffffffffff168473ffffffffffffffffffffffffffffffffffffffff167fddf252ad1be2c89b69c2b068fc378daa952ba7f163c4a11628f55a4df523b3ef60405160405180910390a4505050565b600160008084815260200190815260200160002060008373ffffffffffffffffffffffffffffffffffffffff1673ffffffffffffffffffffffffffffffffffffffff16815260200190815260200160002060006101000a81548160ff0219169083151502179055508073ffffffffffffffffffffffffffffffffffffffff16827f2ae6a113c0ed5b78a53413ffbb7679881f11145ccfba4fb92e863dfcd5a1d2f360405160405180910390a35050565b600a60008373ffffffffffffffffffffffffffffffffffffffff1673ffffffffffffffffffffffffffffffffffffffff16815260200190815260200160002080549050600b600083815260200190815260200160002081905550600a60008373ffffffffffffffffffffffffffffffffffffffff1673ffffffffffffffffffffffffffffffffffffffff1681526020019081526020016000208190806001815401808255809150506001900390600052602060002001600090919091909150555050565b60008373ffffffffffffffffffffffffffffffffffffffff163b1115612cc0578273ffffffffffffffffffffffffffffffffffffffff1663150b7a02338685856040518563ffffffff1660e01b8152600401612bce94939291906143f0565b6020604051808303816000875af1925050508015612c0a57506040513d601f19601f82011682018060405250810190612c079190614451565b60015b612c40576040517f6996ae6b00000000000000000000000000000000000000000000000000000000815260040160405180910390fd5b63150b7a0260e01b7bffffffffffffffffffffffffffffffffffffffffffffffffffffffff1916817bffffffffffffffffffffffffffffffffffffffffffffffffffffffff191614612cbe576040517f6996ae6b00000000000000000000000000000000000000000000000000000000815260040160405180910390fd5b505b50505050565b606060008203612d0d576040518060400160405280600181526020017f30000000000000000000000000000000000000000000000000000000000000008152509050612e20565b600082905060005b60008214612d3f578080612d28906140c6565b915050600a82612d38919061401a565b9150612d15565b60008167ffffffffffffffff811115612d5b57612d5a613964565b5b6040519080825280601f01601f191660200182016040528015612d8d5781602001600182028036833780820191505090505b5090505b60008514612e19578180612da49061409d565b925050600a85612db4919061447e565b6030612dc091906144af565b60f81b818381518110612dd657612dd56144e3565b5b60200101907effffffffffffffffffffffffffffffffffffffffffffffffffffffffffffff1916908160001a905350600a85612e12919061401a565b9450612d91565b8093505050505b919050565b60006001600a60008573ffffffffffffffffffffffffffffffffffffffff1673ffffffffffffffffffffffffffffffffffffffff16815260200190815260200160002080549050612e769190614512565b90506000600b6000848152602001908152602001600020549050818114612f71576000600a60008673ffffffffffffffffffffffffffffffffffffffff1673ffffffffffffffffffffffffffffffffffffffff1681526020019081526020016000208381548110612eea57612ee96144e3565b5b9060005260206000200154905080600a60008773ffffffffffffffffffffffffffffffffffffffff1673ffffffffffffffffffffffffffffffffffffffff1681526020019081526020016000208381548110612f4957612f486144e3565b5b906000526020600020018190555081600b600083815260200190815260200160002081905550505b600a60008573ffffffffffffffffffffffffffffffffffffffff1673ffffffffffffffffffffffffffffffffffffffff168152602001908152602001600020805480612fc057612fbf614546565b5b60019003818190600052602060002001600090559055600b60008481526020019081526020016000206000905550505050565b6000604051905090565b600080fd5b600080fd5b60007fffffffff0000000000000000000000000000000000000000000000000000000082169050919050565b61303c81613007565b811461304757600080fd5b50565b60008135905061305981613033565b92915050565b60006020828403121561307557613074612ffd565b5b60006130838482850161304a565b91505092915050565b60008115159050919050565b6130a18161308c565b82525050565b60006020820190506130bc6000830184613098565b92915050565b600081519050919050565b600082825260208201905092915050565b60005b838110156130fc5780820151818401526020810190506130e1565b60008484015250505050565b6000601f19601f8301169050919050565b6000613124826130c2565b61312e81856130cd565b935061313e8185602086016130de565b61314781613108565b840191505092915050565b6000602082019050818103600083015261316c8184613119565b905092915050565b6000819050919050565b61318781613174565b811461319257600080fd5b50565b6000813590506131a48161317e565b92915050565b6000602082840312156131c0576131bf612ffd565b5b60006131ce84828501613195565b91505092915050565b600073ffffffffffffffffffffffffffffffffffffffff82169050919050565b6000613202826131d7565b9050919050565b613212816131f7565b82525050565b600060208201905061322d6000830184613209565b92915050565b61323c816131f7565b811461324757600080fd5b50565b60008135905061325981613233565b92915050565b6000806040838503121561327657613275612ffd565b5b60006132848582860161324a565b925050602061329585828601613195565b9150509250929050565b6000819050919050565b6132b28161329f565b82525050565b60006020820190506132cd60008301846132a9565b92915050565b600080fd5b600080fd5b600080fd5b60008083601f8401126132f8576132f76132d3565b5b8235905067ffffffffffffffff811115613315576133146132d8565b5b602083019150836001820283011115613331576133306132dd565b5b9250929050565b60008060006040848603121561335157613350612ffd565b5b600061335f86828701613195565b935050602084013567ffffffffffffffff8111156133805761337f613002565b5b61338c868287016132e2565b92509250509250925092565b6133a181613174565b82525050565b60006020820190506133bc6000830184613398565b92915050565b6000806000606084860312156133db576133da612ffd565b5b60006133e98682870161324a565b93505060206133fa8682870161324a565b925050604061340b86828701613195565b9150509250925092565b6004811061342257600080fd5b50565b60008135905061343481613415565b92915050565b6134438161308c565b811461344e57600080fd5b50565b6000813590506134608161343a565b92915050565b60008060006060848603121561347f5761347e612ffd565b5b600061348d86828701613425565b935050602061349e86828701613195565b92505060406134af86828701613451565b9150509250925092565b600080604083850312156134d0576134cf612ffd565b5b60006134de85828601613195565b92505060206134ef85828601613195565b9150509250929050565b600060408201905061350e6000830185613209565b61351b6020830184613398565b9392505050565b61352b8161329f565b811461353657600080fd5b50565b60008135905061354881613522565b92915050565b6000806040838503121561356557613564612ffd565b5b600061357385828601613539565b92505060206135848582860161324a565b9150509250929050565b600080604083850312156135a5576135a4612ffd565b5b60006135b385828601613195565b92505060206135c485828601613425565b9150509250929050565b6000602082840312156135e4576135e3612ffd565b5b60006135f284828501613425565b91505092915050565b60006060820190506136106000830186613398565b61361d6020830185613398565b61362a6040830184613098565b949350505050565b6000806020838503121561364957613648612ffd565b5b600083013567ffffffffffffffff81111561366757613666613002565b5b613673858286016132e2565b92509250509250929050565b6000806040838503121561369657613695612ffd565b5b60006136a48582860161324a565b92505060206136b585828601613425565b9150509250929050565b6000602082840312156136d5576136d4612ffd565b5b60006136e38482850161324a565b91505092915050565b600081519050919050565b600082825260208201905092915050565b6000819050602082019050919050565b61372181613174565b82525050565b60006137338383613718565b60208301905092915050565b6000602082019050919050565b6000613757826136ec565b61376181856136f7565b935061376c83613708565b8060005b8381101561379d5781516137848882613727565b975061378f8361373f565b925050600181019050613770565b5085935050505092915050565b600060208201905081810360008301526137c4818461374c565b905092915050565b60006bffffffffffffffffffffffff82169050919050565b6137ed816137cc565b81146137f857600080fd5b50565b60008135905061380a816137e4565b92915050565b6000806040838503121561382757613826612ffd565b5b60006138358582860161324a565b9250506020613846858286016137fb565b9150509250929050565b6000806040838503121561386757613866612ffd565b5b60006138758582860161324a565b925050602061388685828601613451565b9150509250929050565b7f4e487b7100000000000000000000000000000000000000000000000000000000600052602160045260246000fd5b600481106138d0576138cf613890565b5b50565b60008190506138e1826138bf565b919050565b60006138f1826138d3565b9050919050565b613901816138e6565b82525050565b600065ffffffffffff82169050919050565b61392281613907565b82525050565b600060608201905061393d60008301866138f8565b61394a6020830185613209565b6139576040830184613919565b949350505050565b600080fd5b7f4e487b7100000000000000000000000000000000000000000000000000000000600052604160045260246000fd5b61399c82613108565b810181811067ffffffffffffffff821117156139bb576139ba613964565b5b80604052505050565b60006139ce612ff3565b90506139da8282613993565b919050565b600067ffffffffffffffff8211156139fa576139f9613964565b5b613a0382613108565b9050602081019050919050565b82818337600083830152505050565b6000613a32613a2d846139df565b6139c4565b905082815260208101848484011115613a4e57613a4d61395f565b5b613a59848285613a10565b509392505050565b600082601f830112613a7657613a756132d3565b5b8135613a86848260208601613a1f565b91505092915050565b60008060008060808587031215613aa957613aa8612ffd565b5b6000613ab78782880161324a565b9450506020613ac88782880161324a565b9350506040613ad987828801613195565b925050606085013567ffffffffffffffff811115613afa57613af9613002565b5b613b0687828801613a61565b91505092959194509250565b613b1b816137cc565b82525050565b6000602082019050613b366000830184613b12565b92915050565b60008060408385031215613b5357613b52612ffd565b5b6000613b618582860161324a565b9250506020613b728582860161324a565b9150509250929050565b60008060008060608587031215613b9657613b95612ffd565b5b6000613ba48782880161324a565b9450506020613bb587828801613425565b935050604085013567ffffffffffffffff811115613bd657613bd5613002565b5b613be2878288016132e2565b925092505092959194509250565b7f4e487b7100000000000000000000000000000000000000000000000000000000600052602260045260246000fd5b60006002820490506001821680613c3757607f821691505b602082108103613c4a57613c49613bf0565b5b50919050565b6000604082019050613c656000830185613209565b613c7260208301846132a9565b9392505050565b600082905092915050565b60008190508160005260206000209050919050565b60006020601f8301049050919050565b600082821b905092915050565b600060088302613ce67fffffffffffffffffffffffffffffffffffffffffffffffffffffffffffffffff82613ca9565b613cf08683613ca9565b95508019841693508086168417925050509392505050565b6000819050919050565b6000613d2d613d28613d2384613174565b613d08565b613174565b9050919050565b6000819050919050565b613d4783613d12565b613d5b613d5382613d34565b848454613cb6565b825550505050565b600090565b613d70613d63565b613d7b818484613d3e565b505050565b5b81811015613d9f57613d94600082613d68565b600181019050613d81565b5050565b601f821115613de457613db581613c84565b613dbe84613c99565b81016020851015613dcd578190505b613de1613dd985613c99565b830182613d80565b50505b505050565b600082821c905092915050565b6000613e0760001984600802613de9565b1980831691505092915050565b6000613e208383613df6565b9150826002028217905092915050565b613e3a8383613c79565b67ffffffffffffffff811115613e5357613e52613964565b5b613e5d8254613c1f565b613e68828285613da3565b6000601f831160018114613e975760008415613e85578287013590505b613e8f8582613e14565b865550613ef7565b601f198416613ea586613c84565b60005b82811015613ecd57848901358255600182019150602085019450602081019050613ea8565b86831015613eea5784890135613ee6601f891682613df6565b8355505b6001600288020188555050505b50505050505050565b6000613f0c83856130cd565b9350613f19838584613a10565b613f2283613108565b840190509392505050565b60006020820190508181036000830152613f48818486613f00565b90509392505050565b6000604082019050613f666000830185613398565b613f736020830184613098565b9392505050565b7f4e487b7100000000000000000000000000000000000000000000000000000000600052601160045260246000fd5b6000613fb482613174565b9150613fbf83613174565b9250828202613fcd81613174565b91508282048414831517613fe457613fe3613f7a565b5b5092915050565b7f4e487b7100000000000000000000000000000000000000000000000000000000600052601260045260246000fd5b600061402582613174565b915061403083613174565b9250826140405761403f613feb565b5b828204905092915050565b600060408201905061406060008301856138f8565b61406d60208301846138f8565b9392505050565b600060408201905061408960008301856138f8565b6140966020830184613398565b9392505050565b60006140a882613174565b9150600082036140bb576140ba613f7a565b5b600182039050919050565b60006140d182613174565b91507fffffffffffffffffffffffffffffffffffffffffffffffffffffffffffffffff820361410357614102613f7a565b5b600182019050919050565b614117826130c2565b67ffffffffffffffff8111156141305761412f613964565b5b61413a8254613c1f565b614145828285613da3565b600060209050601f8311600181146141785760008415614166578287015190505b6141708582613e14565b8655506141d8565b601f19841661418686613c84565b60005b828110156141ae57848901518255600182019150602085019450602081019050614189565b868310156141cb57848901516141c7601f891682613df6565b8355505b6001600288020188555050505b505050505050565b60006020820190506141f560008301846138f8565b92915050565b60006040820190506142106000830185613209565b61421d6020830184613b12565b9392505050565b600081905092915050565b6000815461423c81613c1f565b6142468186614224565b945060018216600081146142615760018114614276576142a9565b60ff19831686528115158202860193506142a9565b61427f85613c84565b60005b838110156142a157815481890152600182019150602081019050614282565b838801955050505b50505092915050565b60006142bd826130c2565b6142c78185614224565b93506142d78185602086016130de565b80840191505092915050565b60006142ef828561422f565b91506142fb82846142b2565b91508190509392505050565b600060408201905061431c6000830185613209565b61432960208301846138f8565b9392505050565b60008151905061433f8161317e565b92915050565b60006020828403121561435b5761435a612ffd565b5b600061436984828501614330565b91505092915050565b60006040820190506143876000830185613398565b61439460208301846138f8565b9392505050565b600081519050919050565b600082825260208201905092915050565b60006143c28261439b565b6143cc81856143a6565b93506143dc8185602086016130de565b6143e581613108565b840191505092915050565b60006080820190506144056000830187613209565b6144126020830186613209565b61441f6040830185613398565b818103606083015261443181846143b7565b905095945050505050565b60008151905061444b81613033565b92915050565b60006020828403121561446757614466612ffd565b5b60006144758482850161443c565b91505092915050565b600061448982613174565b915061449483613174565b9250826144a4576144a3613feb565b5b828206905092915050565b60006144ba82613174565b91506144c583613174565b92508282019050808211156144dd576144dc613f7a565b5b92915050565b7f4e487b7100000000000000000000000000000000000000000000000000000000600052603260045260246000fd5b600061451d82613174565b915061452883613174565b92508282039050818111156145405761453f613f7a565b5b92915050565b7f4e487b7100000000000000000000000000000000000000000000000000000000600052603160045260246000fdfea26469706673582212207af912fc910f865e50a2f7b9a1f53a7641d20323d14d2a3651c6218e168694c764736f6c63430008180033",
  "linkReferences": {},
  "deployedLinkReferences": {}
}