{
  "_format": "hh-sol-artifact-1",
  "contractName": "SecureVault",
  "sourceName": "contracts/SecureVault.sol",
  "abi": [
    {
      "inputs": [
        {
          "internalType": "address",
          "name": "_owner",
          "type": "address"
        }
      ],
      "stateMutability": "nonpayable",
      "type": "constructor"
    },
    {
      "inputs": [],
      "name": "ETHTransferFailed",
      "type": "error"
    },
    {
      "inputs": [],
      "name": "ExecutorNotSet",
      "type": "error"
    },
    {
      "inputs": [
        {
          "internalType": "address",
          "name": "token",
          "type": "address"
        },
        {
          "internalType": "uint256",
          "name": "have",
          "type": "uint256"
        },
        {
          "internalType": "uint256",
          "name": "need",
          "type": "uint256"
        }
      ],
      "name": "InsufficientVaultBalance",
      "type": "error"
    },
    {
      "inputs": [],
      "name": "InvalidAmount",
      "type": "error"
    },
    {
      "inputs": [],
      "name": "InvalidSignature",
      "type": "error"
    },
    {
      "inputs": [
        {
          "internalType": "uint256",
          "name": "nonce",
          "type": "uint256"
        }
      ],
      "name": "NonceAlreadyUsed",
      "type": "error"
    },
    {
      "inputs": [
        {
          "internalType": "address",
          "name": "caller",
          "type": "address"
        }
      ],
      "name": "NotExecutor",
      "type": "error"
    },
    {
      "inputs": [
        {
          "internalType": "address",
          "name": "caller",
          "type": "address"
        }
      ],
      "name": "NotGuardian",
      "type": "error"
    },
    {
      "inputs": [
        {
          "internalType": "address",
          "name": "caller",
          "type": "address"
        }
      ],
      "name": "NotOwner",
      "type": "error"
    },
    {
      "inputs": [],
      "name": "ReentrancyBlocked",
      "type": "error"
    },
    {
      "inputs": [
        {
          "internalType": "uint256",
          "name": "deadline",
          "type": "uint256"
        },
        {
          "internalType": "uint256",
          "name": "current",
          "type": "uint256"
        }
      ],
      "name": "RequestExpired",
      "type": "error"
    },
    {
      "inputs": [
        {
          "internalType": "address",
          "name": "target",
          "type": "address"
        }
      ],
      "name": "TargetNotAllowed",
      "type": "error"
    },
    {
      "inputs": [],
      "name": "TokenTransferFailed",
      "type": "error"
    },
    {
      "inputs": [],
      "name": "VaultIsPaused",
      "type": "error"
    },
    {
      "inputs": [],
      "name": "ZeroAddress",
      "type": "error"
    },
    {
      "inputs": [],
      "name": "ZeroAmount",
      "type": "error"
    },
    {
      "anonymous": false,
      "inputs": [
        {
          "indexed": true,
          "internalType": "address",
          "name": "token",
          "type": "address"
        },
        {
          "indexed": true,
          "internalType": "address",
          "name": "from",
          "type": "address"
        },
        {
          "indexed": false,
          "internalType": "uint256",
          "name": "amount",
          "type": "uint256"
        }
      ],
      "name": "Deposited",
      "type": "event"
    },
    {
      "anonymous": false,
      "inputs": [
        {
          "indexed": true,
          "internalType": "address",
          "name": "from",
          "type": "address"
        },
        {
          "indexed": false,
          "internalType": "uint256",
          "name": "amount",
          "type": "uint256"
        }
      ],
      "name": "ETHDeposited",
      "type": "event"
    },
    {
      "anonymous": false,
      "inputs": [
        {
          "indexed": true,
          "internalType": "address",
          "name": "to",
          "type": "address"
        },
        {
          "indexed": false,
          "internalType": "uint256",
          "name": "amount",
          "type": "uint256"
        },
        {
          "indexed": false,
          "internalType": "uint256",
          "name": "nonce",
          "type": "uint256"
        }
      ],
      "name": "ETHWithdrawn",
      "type": "event"
    },
    {
      "anonymous": false,
      "inputs": [
        {
          "indexed": true,
          "internalType": "address",
          "name": "token",
          "type": "address"
        },
        {
          "indexed": true,
          "internalType": "address",
          "name": "to",
          "type": "address"
        },
        {
          "indexed": false,
          "internalType": "uint256",
          "name": "amount",
          "type": "uint256"
        }
      ],
      "name": "EmergencyWithdraw",
      "type": "event"
    },
    {
      "anonymous": false,
      "inputs": [
        {
          "indexed": true,
          "internalType": "address",
          "name": "executor",
          "type": "address"
        }
      ],
      "name": "ExecutorSet",
      "type": "event"
    },
    {
      "anonymous": false,
      "inputs": [
        {
          "indexed": true,
          "internalType": "address",
          "name": "guardian",
          "type": "address"
        }
      ],
      "name": "GuardianSet",
      "type": "event"
    },
    {
      "anonymous": false,
      "inputs": [
        {
          "indexed": true,
          "internalType": "address",
          "name": "oldOwner",
          "type": "address"
        },
        {
          "indexed": true,
          "internalType": "address",
          "name": "newOwner",
          "type": "address"
        }
      ],
      "name": "OwnershipTransferred",
      "type": "event"
    },
    {
      "anonymous": false,
      "inputs": [
        {
          "indexed": true,
          "internalType": "address",
          "name": "target",
          "type": "address"
        },
        {
          "indexed": false,
          "internalType": "bool",
          "name": "allowed",
          "type": "bool"
        }
      ],
      "name": "TargetAllowed",
      "type": "event"
    },
    {
      "anonymous": false,
      "inputs": [
        {
          "indexed": true,
          "internalType": "address",
          "name": "by",
          "type": "address"
        }
      ],
      "name": "VaultPaused",
      "type": "event"
    },
    {
      "anonymous": false,
      "inputs": [
        {
          "indexed": true,
          "internalType": "address",
          "name": "by",
          "type": "address"
        }
      ],
      "name": "VaultUnpaused",
      "type": "event"
    },
    {
      "anonymous": false,
      "inputs": [
        {
          "indexed": true,
          "internalType": "address",
          "name": "token",
          "type": "address"
        },
        {
          "indexed": true,
          "internalType": "address",
          "name": "to",
          "type": "address"
        },
        {
          "indexed": false,
          "internalType": "uint256",
          "name": "amount",
          "type": "uint256"
        },
        {
          "indexed": false,
          "internalType": "uint256",
          "name": "nonce",
          "type": "uint256"
        }
      ],
      "name": "Withdrawn",
      "type": "event"
    },
    {
      "inputs": [],
      "name": "DOMAIN_SEPARATOR",
      "outputs": [
        {
          "internalType": "bytes32",
          "name": "",
          "type": "bytes32"
        }
      ],
      "stateMutability": "view",
      "type": "function"
    },
    {
      "inputs": [],
      "name": "ETH_TRANSFER_TYPEHASH",
      "outputs": [
        {
          "internalType": "bytes32",
          "name": "",
          "type": "bytes32"
        }
      ],
      "stateMutability": "view",
      "type": "function"
    },
    {
      "inputs": [],
      "name": "TRANSFER_TYPEHASH",
      "outputs": [
        {
          "internalType": "bytes32",
          "name": "",
          "type": "bytes32"
        }
      ],
      "stateMutability": "view",
      "type": "function"
    },
    {
      "inputs": [
        {
          "internalType": "address",
          "name": "",
          "type": "address"
        }
      ],
      "name": "allowedTargets",
      "outputs": [
        {
          "internalType": "bool",
          "name": "",
          "type": "bool"
        }
      ],
      "stateMutability": "view",
      "type": "function"
    },
    {
      "inputs": [
        {
          "internalType": "address",
          "name": "token",
          "type": "address"
        },
        {
          "internalType": "uint256",
          "name": "amount",
          "type": "uint256"
        }
      ],
      "name": "deposit",
      "outputs": [],
      "stateMutability": "nonpayable",
      "type": "function"
    },
    {
      "inputs": [
        {
          "internalType": "address",
          "name": "to",
          "type": "address"
        },
        {
          "internalType": "uint256",
          "name": "amount",
          "type": "uint256"
        }
      ],
      "name": "emergencyWithdrawETH",
      "outputs": [],
      "stateMutability": "nonpayable",
      "type": "function"
    },
    {
      "inputs": [
        {
          "internalType": "address",
          "name": "token",
          "type": "address"
        },
        {
          "internalType": "address",
          "name": "to",
          "type": "address"
        },
        {
          "internalType": "uint256",
          "name": "amount",
          "type": "uint256"
        }
      ],
      "name": "emergencyWithdrawToken",
      "outputs": [],
      "stateMutability": "nonpayable",
      "type": "function"
    },
    {
      "inputs": [],
      "name": "ethBalance",
      "outputs": [
        {
          "internalType": "uint256",
          "name": "",
          "type": "uint256"
        }
      ],
      "stateMutability": "view",
      "type": "function"
    },
    {
      "inputs": [
        {
          "internalType": "address",
          "name": "to",
          "type": "address"
        },
        {
          "internalType": "uint256",
          "name": "amount",
          "type": "uint256"
        },
        {
          "internalType": "uint256",
          "name": "nonce",
          "type": "uint256"
        },
        {
          "internalType": "uint256",
          "name": "deadline",
          "type": "uint256"
        },
        {
          "internalType": "bytes",
          "name": "signature",
          "type": "bytes"
        }
      ],
      "name": "executeETHTransfer",
      "outputs": [],
      "stateMutability": "nonpayable",
      "type": "function"
    },
    {
      "inputs": [
        {
          "internalType": "address",
          "name": "token",
          "type": "address"
        },
        {
          "internalType": "address",
          "name": "to",
          "type": "address"
        },
        {
          "internalType": "uint256",
          "name": "amount",
          "type": "uint256"
        },
        {
          "internalType": "uint256",
          "name": "nonce",
          "type": "uint256"
        },
        {
          "internalType": "uint256",
          "name": "deadline",
          "type": "uint256"
        },
        {
          "internalType": "bytes",
          "name": "signature",
          "type": "bytes"
        }
      ],
      "name": "executeTransfer",
      "outputs": [],
      "stateMutability": "nonpayable",
      "type": "function"
    },
    {
      "inputs": [],
      "name": "executor",
      "outputs": [
        {
          "internalType": "address",
          "name": "",
          "type": "address"
        }
      ],
      "stateMutability": "view",
      "type": "function"
    },
    {
      "inputs": [],
      "name": "guardian",
      "outputs": [
        {
          "internalType": "address",
          "name": "",
          "type": "address"
        }
      ],
      "stateMutability": "view",
      "type": "function"
    },
    {
      "inputs": [
        {
          "internalType": "address",
          "name": "to",
          "type": "address"
        },
        {
          "internalType": "uint256",
          "name": "amount",
          "type": "uint256"
        },
        {
          "internalType": "uint256",
          "name": "nonce",
          "type": "uint256"
        },
        {
          "internalType": "uint256",
          "name": "deadline",
          "type": "uint256"
        }
      ],
      "name": "hashETHTransferRequest",
      "outputs": [
        {
          "internalType": "bytes32",
          "name": "",
          "type": "bytes32"
        }
      ],
      "stateMutability": "view",
      "type": "function"
    },
    {
      "inputs": [
        {
          "internalType": "address",
          "name": "token",
          "type": "address"
        },
        {
          "internalType": "address",
          "name": "to",
          "type": "address"
        },
        {
          "internalType": "uint256",
          "name": "amount",
          "type": "uint256"
        },
        {
          "internalType": "uint256",
          "name": "nonce",
          "type": "uint256"
        },
        {
          "internalType": "uint256",
          "name": "deadline",
          "type": "uint256"
        }
      ],
      "name": "hashTransferRequest",
      "outputs": [
        {
          "internalType": "bytes32",
          "name": "",
          "type": "bytes32"
        }
      ],
      "stateMutability": "view",
      "type": "function"
    },
    {
      "inputs": [
        {
          "internalType": "uint256",
          "name": "nonce",
          "type": "uint256"
        }
      ],
      "name": "isNonceUsed",
      "outputs": [
        {
          "internalType": "bool",
          "name": "",
          "type": "bool"
        }
      ],
      "stateMutability": "view",
      "type": "function"
    },
    {
      "inputs": [],
      "name": "owner",
      "outputs": [
        {
          "internalType": "address",
          "name": "",
          "type": "address"
        }
      ],
      "stateMutability": "view",
      "type": "function"
    },
    {
      "inputs": [],
      "name": "pause",
      "outputs": [],
      "stateMutability": "nonpayable",
      "type": "function"
    },
    {
      "inputs": [],
      "name": "paused",
      "outputs": [
        {
          "internalType": "bool",
          "name": "",
          "type": "bool"
        }
      ],
      "stateMutability": "view",
      "type": "function"
    },
    {
      "inputs": [
        {
          "internalType": "address",
          "name": "target",
          "type": "address"
        },
        {
          "internalType": "bool",
          "name": "allowed",
          "type": "bool"
        }
      ],
      "name": "setAllowedTarget",
      "outputs": [],
      "stateMutability": "nonpayable",
      "type": "function"
    },
    {
      "inputs": [
        {
          "internalType": "address[]",
          "name": "targets",
          "type": "address[]"
        },
        {
          "internalType": "bool",
          "name": "allowed",
          "type": "bool"
        }
      ],
      "name": "setAllowedTargetBatch",
      "outputs": [],
      "stateMutability": "nonpayable",
      "type": "function"
    },
    {
      "inputs": [
        {
          "internalType": "address",
          "name": "_executor",
          "type": "address"
        }
      ],
      "name": "setExecutor",
      "outputs": [],
      "stateMutability": "nonpayable",
      "type": "function"
    },
    {
      "inputs": [
        {
          "internalType": "address",
          "name": "_guardian",
          "type": "address"
        }
      ],
      "name": "setGuardian",
      "outputs": [],
      "stateMutability": "nonpayable",
      "type": "function"
    },
    {
      "inputs": [
        {
          "internalType": "address",
          "name": "newOwner",
          "type": "address"
        }
      ],
      "name": "transferOwnership",
      "outputs": [],
      "stateMutability": "nonpayable",
      "type": "function"
    },
    {
      "inputs": [],
      "name": "unpause",
      "outputs": [],
      "stateMutability": "nonpayable",
      "type": "function"
    },
    {
      "inputs": [
        {
          "internalType": "uint256",
          "name": "",
          "type": "uint256"
        }
      ],
      "name": "usedNonces",
      "outputs": [
        {
          "internalType": "bool",
          "name": "",
          "type": "bool"
        }
      ],
      "stateMutability": "view",
      "type": "function"
    },
    {
      "inputs": [
        {
          "internalType": "address",
          "name": "",
          "type": "address"
        }
      ],
      "name": "vaultBalance",
      "outputs": [
        {
          "internalType": "uint256",
          "name": "",
          "type": "uint256"
        }
      ],
      "stateMutability": "view",
      "type": "function"
    },
    {
      "stateMutability": "payable",
      "type": "receive"
    }
  ],
  "bytecode": "0x60a06040523480156200001157600080fd5b506040516200394038038062003940833981810160405281019062000037919062000268565b600073ffffffffffffffffffffffffffffffffffffffff168173ffffffffffffffffffffffffffffffffffffffff16036200009e576040517fd92e233d00000000000000000000000000000000000000000000000000000000815260040160405180910390fd5b806000806101000a81548173ffffffffffffffffffffffffffffffffffffffff021916908373ffffffffffffffffffffffffffffffffffffffff16021790555080600160006101000a81548173ffffffffffffffffffffffffffffffffffffffff021916908373ffffffffffffffffffffffffffffffffffffffff16021790555060016003819055507f8b73c3c69bb8fe3d512ecc4cf759cc79239f7b179b0ffacaa9a75d522b39400f6040518060400160405280600d81526020017f455243383030345f5641554c5400000000000000000000000000000000000000815250805190602001206040518060400160405280600181526020017f3100000000000000000000000000000000000000000000000000000000000000815250805190602001204630604051602001620001da959493929190620002e1565b6040516020818303038152906040528051906020012060808181525050506200033e565b600080fd5b600073ffffffffffffffffffffffffffffffffffffffff82169050919050565b6000620002308262000203565b9050919050565b620002428162000223565b81146200024e57600080fd5b50565b600081519050620002628162000237565b92915050565b600060208284031215620002815762000280620001fe565b5b6000620002918482850162000251565b91505092915050565b6000819050919050565b620002af816200029a565b82525050565b6000819050919050565b620002ca81620002b5565b82525050565b620002db8162000223565b82525050565b600060a082019050620002f86000830188620002a4565b620003076020830187620002a4565b620003166040830186620002a4565b620003256060830185620002bf565b620003346080830184620002d0565b9695505050505050565b6080516135d16200036f60003960008181611192015281816111e60152818161190f015261298c01526135d16000f3fe6080604052600436106101845760003560e01c80636717e41c116100d1578063b8fe8d5f1161008a578063d79e856711610064578063d79e8567146105fe578063ed0fe41614610627578063f2fde38b14610664578063fb90ef841461068d57610223565b8063b8fe8d5f1461056d578063c34c08e5146105aa578063ca1dd22e146105d557610223565b80636717e41c1461045d57806374cae4111461049a5780638456cb59146104d75780638a0dac4a146104ee5780638da5cb5b14610517578063a480df851461054257610223565b80633dd4bdd81161013e57806347e7ef241161011857806347e7ef24146103a15780634e6630b0146103ca5780635c975abb146103f55780635d00bb121461042057610223565b80633dd4bdd8146103365780633f4ba83a1461035f578063452a93201461037657610223565b8062bf26f414610228578063035c404a146102535780631c3c0ea81461027c578063277327a5146102a55780633127e3df146102ce5780633644e5151461030b57610223565b3661022357600034036101c3576040517f1f2a200500000000000000000000000000000000000000000000000000000000815260040160405180910390fd5b346007600082825401925050819055503373ffffffffffffffffffffffffffffffffffffffff167f6c703791f399558807424f489ccd811c72b4ff0b74af547264fad7c646776df0346040516102199190612c1b565b60405180910390a2005b600080fd5b34801561023457600080fd5b5061023d6106b6565b60405161024a9190612c4f565b60405180910390f35b34801561025f57600080fd5b5061027a60048036038101906102759190612d63565b6106da565b005b34801561028857600080fd5b506102a3600480360381019061029e9190612dfd565b610c44565b005b3480156102b157600080fd5b506102cc60048036038101906102c79190612e2a565b610d5b565b005b3480156102da57600080fd5b506102f560048036038101906102f09190612e7d565b61113c565b6040516103029190612c4f565b60405180910390f35b34801561031757600080fd5b506103206111e4565b60405161032d9190612c4f565b60405180910390f35b34801561034257600080fd5b5061035d60048036038101906103589190612f72565b611208565b005b34801561036b57600080fd5b5061037461143d565b005b34801561038257600080fd5b5061038b611589565b6040516103989190612fe1565b60405180910390f35b3480156103ad57600080fd5b506103c860048036038101906103c39190612ffc565b6115af565b005b3480156103d657600080fd5b506103df611854565b6040516103ec9190612c1b565b60405180910390f35b34801561040157600080fd5b5061040a61185a565b604051610417919061304b565b60405180910390f35b34801561042c57600080fd5b5061044760048036038101906104429190613066565b61186d565b604051610454919061304b565b60405180910390f35b34801561046957600080fd5b50610484600480360381019061047f9190613066565b611897565b604051610491919061304b565b60405180910390f35b3480156104a657600080fd5b506104c160048036038101906104bc9190613093565b6118b7565b6040516104ce9190612c4f565b60405180910390f35b3480156104e357600080fd5b506104ec611962565b005b3480156104fa57600080fd5b5061051560048036038101906105109190612dfd565b611aae565b005b34801561052357600080fd5b5061052c611c2b565b6040516105399190612fe1565b60405180910390f35b34801561054e57600080fd5b50610557611c4f565b6040516105649190612c4f565b60405180910390f35b34801561057957600080fd5b50610594600480360381019061058f9190612dfd565b611c73565b6040516105a1919061304b565b60405180910390f35b3480156105b657600080fd5b506105bf611c93565b6040516105cc9190612fe1565b60405180910390f35b3480156105e157600080fd5b506105fc60048036038101906105f7919061310e565b611cb9565b005b34801561060a57600080fd5b5061062560048036038101906106209190612ffc565b611e58565b005b34801561063357600080fd5b5061064e60048036038101906106499190612dfd565b612140565b60405161065b9190612c1b565b60405180910390f35b34801561067057600080fd5b5061068b60048036038101906106869190612dfd565b612158565b005b34801561069957600080fd5b506106b460048036038101906106af919061314e565b61230b565b005b7fb258b36442f243824d867fa32927dab898fcbeae368aa1b632e6785962dfa41781565b600073ffffffffffffffffffffffffffffffffffffffff16600260009054906101000a900473ffffffffffffffffffffffffffffffffffffffff1673ffffffffffffffffffffffffffffffffffffffff1603610762576040517faf47ef4300000000000000000000000000000000000000000000000000000000815260040160405180910390fd5b600260009054906101000a900473ffffffffffffffffffffffffffffffffffffffff1673ffffffffffffffffffffffffffffffffffffffff163373ffffffffffffffffffffffffffffffffffffffff16146107f457336040517f5cf20d630000000000000000000000000000000000000000000000000000000081526004016107eb9190612fe1565b60405180910390fd5b600260149054906101000a900460ff161561083b576040517f6c0739b600000000000000000000000000000000000000000000000000000000815260040160405180910390fd5b600260035403610877576040517f0e62d69f00000000000000000000000000000000000000000000000000000000815260040160405180910390fd5b6002600381905550600073ffffffffffffffffffffffffffffffffffffffff168673ffffffffffffffffffffffffffffffffffffffff16036108e5576040517fd92e233d00000000000000000000000000000000000000000000000000000000815260040160405180910390fd5b6000850361091f576040517f1f2a200500000000000000000000000000000000000000000000000000000000815260040160405180910390fd5b824211156109665782426040517f6bdd243600000000000000000000000000000000000000000000000000000000815260040161095d9291906131fd565b60405180910390fd5b6004600085815260200190815260200160002060009054906101000a900460ff16156109c957836040517f91cab5040000000000000000000000000000000000000000000000000000000081526004016109c09190612c1b565b60405180910390fd5b600560008773ffffffffffffffffffffffffffffffffffffffff1673ffffffffffffffffffffffffffffffffffffffff16815260200190815260200160002060009054906101000a900460ff16610a5757856040517fe356c1d3000000000000000000000000000000000000000000000000000000008152600401610a4e9190612fe1565b60405180910390fd5b846007541015610aa5576000600754866040517fa343d5e0000000000000000000000000000000000000000000000000000000008152600401610a9c93929190613226565b60405180910390fd5b60007fb965b4ddaf94da24d6b04e90500b1c99ca8384ed0ed4dd8aa538ffcd627989a787878787604051602001610ae095949392919061325d565b604051602081830303815290604052805190602001209050610b03818484612988565b60016004600087815260200190815260200160002060006101000a81548160ff0219169083151502179055508560076000828254039250508190555060008773ffffffffffffffffffffffffffffffffffffffff1687604051610b65906132e1565b60006040518083038185875af1925050503d8060008114610ba2576040519150601f19603f3d011682016040523d82523d6000602084013e610ba7565b606091505b5050905080610be2576040517fb12d13eb00000000000000000000000000000000000000000000000000000000815260040160405180910390fd5b8773ffffffffffffffffffffffffffffffffffffffff167fd3605746397fcbe273096353855da8c40c332aa45d2d97a5e19130a238e9e3bc8888604051610c2a9291906131fd565b60405180910390a250506001600381905550505050505050565b60008054906101000a900473ffffffffffffffffffffffffffffffffffffffff1673ffffffffffffffffffffffffffffffffffffffff163373ffffffffffffffffffffffffffffffffffffffff1614610cd457336040517f245aecd3000000000000000000000000000000000000000000000000000000008152600401610ccb9190612fe1565b60405180910390fd5b80600260006101000a81548173ffffffffffffffffffffffffffffffffffffffff021916908373ffffffffffffffffffffffffffffffffffffffff1602179055508073ffffffffffffffffffffffffffffffffffffffff167f3e3c5e6d5b512eaa5d5a80669846cfbaf8bde70fc6f7a3be9828cffc9ba5f1db60405160405180910390a250565b60008054906101000a900473ffffffffffffffffffffffffffffffffffffffff1673ffffffffffffffffffffffffffffffffffffffff163373ffffffffffffffffffffffffffffffffffffffff1614610deb57336040517f245aecd3000000000000000000000000000000000000000000000000000000008152600401610de29190612fe1565b60405180910390fd5b600260035403610e27576040517f0e62d69f00000000000000000000000000000000000000000000000000000000815260040160405180910390fd5b6002600381905550600073ffffffffffffffffffffffffffffffffffffffff168373ffffffffffffffffffffffffffffffffffffffff1603610e95576040517fd92e233d00000000000000000000000000000000000000000000000000000000815260040160405180910390fd5b600073ffffffffffffffffffffffffffffffffffffffff168273ffffffffffffffffffffffffffffffffffffffff1603610efb576040517fd92e233d00000000000000000000000000000000000000000000000000000000815260040160405180910390fd5b60008103610f35576040517f1f2a200500000000000000000000000000000000000000000000000000000000815260040160405180910390fd5b6000600660008573ffffffffffffffffffffffffffffffffffffffff1673ffffffffffffffffffffffffffffffffffffffff16815260200190815260200160002054905081811015610fc2578381836040517fa343d5e0000000000000000000000000000000000000000000000000000000008152600401610fb993929190613226565b60405180910390fd5b81600660008673ffffffffffffffffffffffffffffffffffffffff1673ffffffffffffffffffffffffffffffffffffffff1681526020019081526020016000206000828254039250508190555060008473ffffffffffffffffffffffffffffffffffffffff1663a9059cbb85856040518363ffffffff1660e01b815260040161104c9291906132f6565b6020604051808303816000875af115801561106b573d6000803e3d6000fd5b505050506040513d601f19601f8201168201806040525081019061108f9190613334565b9050806110c8576040517f045c4b0200000000000000000000000000000000000000000000000000000000815260040160405180910390fd5b8373ffffffffffffffffffffffffffffffffffffffff168573ffffffffffffffffffffffffffffffffffffffff167ff24ef89f38eadc1bde50701ad6e4d6d11a2dc24f7cf834a486991f3883328504856040516111259190612c1b565b60405180910390a350506001600381905550505050565b6000807fb965b4ddaf94da24d6b04e90500b1c99ca8384ed0ed4dd8aa538ffcd627989a78686868660405160200161117895949392919061325d565b6040516020818303038152906040528051906020012090507f0000000000000000000000000000000000000000000000000000000000000000816040516020016111c39291906133d9565b60405160208183030381529060405280519060200120915050949350505050565b7f000000000000000000000000000000000000000000000000000000000000000081565b60008054906101000a900473ffffffffffffffffffffffffffffffffffffffff1673ffffffffffffffffffffffffffffffffffffffff163373ffffffffffffffffffffffffffffffffffffffff161461129857336040517f245aecd300000000000000000000000000000000000000000000000000000000815260040161128f9190612fe1565b60405180910390fd5b600083839050905060005b8181101561143657600073ffffffffffffffffffffffffffffffffffffffff168585838181106112d6576112d5613410565b5b90506020020160208101906112eb9190612dfd565b73ffffffffffffffffffffffffffffffffffffffff1603611338576040517fd92e233d00000000000000000000000000000000000000000000000000000000815260040160405180910390fd5b82600560008787858181106113505761134f613410565b5b90506020020160208101906113659190612dfd565b73ffffffffffffffffffffffffffffffffffffffff1673ffffffffffffffffffffffffffffffffffffffff16815260200190815260200160002060006101000a81548160ff0219169083151502179055508484828181106113c9576113c8613410565b5b90506020020160208101906113de9190612dfd565b73ffffffffffffffffffffffffffffffffffffffff167fa15b89ddfd4f8f39b42c00d0e35440aa574da8d20d9e1d886e42edf16ce9ad4c84604051611423919061304b565b60405180910390a28060010190506112a3565b5050505050565b600160009054906101000a900473ffffffffffffffffffffffffffffffffffffffff1673ffffffffffffffffffffffffffffffffffffffff163373ffffffffffffffffffffffffffffffffffffffff16141580156114e7575060008054906101000a900473ffffffffffffffffffffffffffffffffffffffff1673ffffffffffffffffffffffffffffffffffffffff163373ffffffffffffffffffffffffffffffffffffffff1614155b1561152957336040517fa252c1510000000000000000000000000000000000000000000000000000000081526004016115209190612fe1565b60405180910390fd5b6000600260146101000a81548160ff0219169083151502179055503373ffffffffffffffffffffffffffffffffffffffff167fcf1b4127793ff168d18689e30ebd56f02dc076b536aab2a7fd836bea6776101760405160405180910390a2565b600160009054906101000a900473ffffffffffffffffffffffffffffffffffffffff1681565b600260149054906101000a900460ff16156115f6576040517f6c0739b600000000000000000000000000000000000000000000000000000000815260040160405180910390fd5b600260035403611632576040517f0e62d69f00000000000000000000000000000000000000000000000000000000815260040160405180910390fd5b6002600381905550600073ffffffffffffffffffffffffffffffffffffffff168273ffffffffffffffffffffffffffffffffffffffff16036116a0576040517fd92e233d00000000000000000000000000000000000000000000000000000000815260040160405180910390fd5b600081036116da576040517f1f2a200500000000000000000000000000000000000000000000000000000000815260040160405180910390fd5b60008273ffffffffffffffffffffffffffffffffffffffff166323b872dd3330856040518463ffffffff1660e01b81526004016117199392919061343f565b6020604051808303816000875af1158015611738573d6000803e3d6000fd5b505050506040513d601f19601f8201168201806040525081019061175c9190613334565b905080611795576040517f045c4b0200000000000000000000000000000000000000000000000000000000815260040160405180910390fd5b81600660008573ffffffffffffffffffffffffffffffffffffffff1673ffffffffffffffffffffffffffffffffffffffff168152602001908152602001600020600082825401925050819055503373ffffffffffffffffffffffffffffffffffffffff168373ffffffffffffffffffffffffffffffffffffffff167f8752a472e571a816aea92eec8dae9baf628e840f4929fbcc2d155e6233ff68a78460405161183f9190612c1b565b60405180910390a35060016003819055505050565b60075481565b600260149054906101000a900460ff1681565b60006004600083815260200190815260200160002060009054906101000a900460ff169050919050565b60046020528060005260406000206000915054906101000a900460ff1681565b6000807fb258b36442f243824d867fa32927dab898fcbeae368aa1b632e6785962dfa41787878787876040516020016118f596959493929190613476565b6040516020818303038152906040528051906020012090507f0000000000000000000000000000000000000000000000000000000000000000816040516020016119409291906133d9565b6040516020818303038152906040528051906020012091505095945050505050565b600160009054906101000a900473ffffffffffffffffffffffffffffffffffffffff1673ffffffffffffffffffffffffffffffffffffffff163373ffffffffffffffffffffffffffffffffffffffff1614158015611a0c575060008054906101000a900473ffffffffffffffffffffffffffffffffffffffff1673ffffffffffffffffffffffffffffffffffffffff163373ffffffffffffffffffffffffffffffffffffffff1614155b15611a4e57336040517fa252c151000000000000000000000000000000000000000000000000000000008152600401611a459190612fe1565b60405180910390fd5b6001600260146101000a81548160ff0219169083151502179055503373ffffffffffffffffffffffffffffffffffffffff167fdffada2889ebfab9224c24069d833f3de835d8cf99872d49e7b7ba5fccb7a46f60405160405180910390a2565b60008054906101000a900473ffffffffffffffffffffffffffffffffffffffff1673ffffffffffffffffffffffffffffffffffffffff163373ffffffffffffffffffffffffffffffffffffffff1614611b3e57336040517f245aecd3000000000000000000000000000000000000000000000000000000008152600401611b359190612fe1565b60405180910390fd5b600073ffffffffffffffffffffffffffffffffffffffff168173ffffffffffffffffffffffffffffffffffffffff1603611ba4576040517fd92e233d00000000000000000000000000000000000000000000000000000000815260040160405180910390fd5b80600160006101000a81548173ffffffffffffffffffffffffffffffffffffffff021916908373ffffffffffffffffffffffffffffffffffffffff1602179055508073ffffffffffffffffffffffffffffffffffffffff167fe6c09ffe4572dc9ceaa5ddde4ae41befa655d6fdfe8052077af0970f700e942e60405160405180910390a250565b60008054906101000a900473ffffffffffffffffffffffffffffffffffffffff1681565b7fb965b4ddaf94da24d6b04e90500b1c99ca8384ed0ed4dd8aa538ffcd627989a781565b60056020528060005260406000206000915054906101000a900460ff1681565b600260009054906101000a900473ffffffffffffffffffffffffffffffffffffffff1681565b60008054906101000a900473ffffffffffffffffffffffffffffffffffffffff1673ffffffffffffffffffffffffffffffffffffffff163373ffffffffffffffffffffffffffffffffffffffff1614611d4957336040517f245aecd3000000000000000000000000000000000000000000000000000000008152600401611d409190612fe1565b60405180910390fd5b600073ffffffffffffffffffffffffffffffffffffffff168273ffffffffffffffffffffffffffffffffffffffff1603611daf576040517fd92e233d00000000000000000000000000000000000000000000000000000000815260040160405180910390fd5b80600560008473ffffffffffffffffffffffffffffffffffffffff1673ffffffffffffffffffffffffffffffffffffffff16815260200190815260200160002060006101000a81548160ff0219169083151502179055508173ffffffffffffffffffffffffffffffffffffffff167fa15b89ddfd4f8f39b42c00d0e35440aa574da8d20d9e1d886e42edf16ce9ad4c82604051611e4c919061304b565b60405180910390a25050565b60008054906101000a900473ffffffffffffffffffffffffffffffffffffffff1673ffffffffffffffffffffffffffffffffffffffff163373ffffffffffffffffffffffffffffffffffffffff1614611ee857336040517f245aecd3000000000000000000000000000000000000000000000000000000008152600401611edf9190612fe1565b60405180910390fd5b600260035403611f24576040517f0e62d69f00000000000000000000000000000000000000000000000000000000815260040160405180910390fd5b6002600381905550600073ffffffffffffffffffffffffffffffffffffffff168273ffffffffffffffffffffffffffffffffffffffff1603611f92576040517fd92e233d00000000000000000000000000000000000000000000000000000000815260040160405180910390fd5b60008103611fcc576040517f1f2a200500000000000000000000000000000000000000000000000000000000815260040160405180910390fd5b80600754101561201a576000600754826040517fa343d5e000000000000000000000000000000000000000000000000000000000815260040161201193929190613226565b60405180910390fd5b8060076000828254039250508190555060008273ffffffffffffffffffffffffffffffffffffffff1682604051612050906132e1565b60006040518083038185875af1925050503d806000811461208d576040519150601f19603f3d011682016040523d82523d6000602084013e612092565b606091505b50509050806120cd576040517fb12d13eb00000000000000000000000000000000000000000000000000000000815260040160405180910390fd5b8273ffffffffffffffffffffffffffffffffffffffff16600073ffffffffffffffffffffffffffffffffffffffff167ff24ef89f38eadc1bde50701ad6e4d6d11a2dc24f7cf834a486991f38833285048460405161212b9190612c1b565b60405180910390a35060016003819055505050565b60066020528060005260406000206000915090505481565b60008054906101000a900473ffffffffffffffffffffffffffffffffffffffff1673ffffffffffffffffffffffffffffffffffffffff163373ffffffffffffffffffffffffffffffffffffffff16146121e857336040517f245aecd30000000000000000000000000000000000000000000000000000000081526004016121df9190612fe1565b60405180910390fd5b600073ffffffffffffffffffffffffffffffffffffffff168173ffffffffffffffffffffffffffffffffffffffff160361224e576040517fd92e233d00000000000000000000000000000000000000000000000000000000815260040160405180910390fd5b8073ffffffffffffffffffffffffffffffffffffffff1660008054906101000a900473ffffffffffffffffffffffffffffffffffffffff1673ffffffffffffffffffffffffffffffffffffffff167f8be0079c531659141344cd1fd0a4f28419497f9722a3daafe3b4186f6b6457e060405160405180910390a3806000806101000a81548173ffffffffffffffffffffffffffffffffffffffff021916908373ffffffffffffffffffffffffffffffffffffffff16021790555050565b600073ffffffffffffffffffffffffffffffffffffffff16600260009054906101000a900473ffffffffffffffffffffffffffffffffffffffff1673ffffffffffffffffffffffffffffffffffffffff1603612393576040517faf47ef4300000000000000000000000000000000000000000000000000000000815260040160405180910390fd5b600260009054906101000a900473ffffffffffffffffffffffffffffffffffffffff1673ffffffffffffffffffffffffffffffffffffffff163373ffffffffffffffffffffffffffffffffffffffff161461242557336040517f5cf20d6300000000000000000000000000000000000000000000000000000000815260040161241c9190612fe1565b60405180910390fd5b600260149054906101000a900460ff161561246c576040517f6c0739b600000000000000000000000000000000000000000000000000000000815260040160405180910390fd5b6002600354036124a8576040517f0e62d69f00000000000000000000000000000000000000000000000000000000815260040160405180910390fd5b6002600381905550600073ffffffffffffffffffffffffffffffffffffffff168773ffffffffffffffffffffffffffffffffffffffff1603612516576040517fd92e233d00000000000000000000000000000000000000000000000000000000815260040160405180910390fd5b600073ffffffffffffffffffffffffffffffffffffffff168673ffffffffffffffffffffffffffffffffffffffff160361257c576040517fd92e233d00000000000000000000000000000000000000000000000000000000815260040160405180910390fd5b600085036125b6576040517f1f2a200500000000000000000000000000000000000000000000000000000000815260040160405180910390fd5b824211156125fd5782426040517f6bdd24360000000000000000000000000000000000000000000000000000000081526004016125f49291906131fd565b60405180910390fd5b6004600085815260200190815260200160002060009054906101000a900460ff161561266057836040517f91cab5040000000000000000000000000000000000000000000000000000000081526004016126579190612c1b565b60405180910390fd5b600560008773ffffffffffffffffffffffffffffffffffffffff1673ffffffffffffffffffffffffffffffffffffffff16815260200190815260200160002060009054906101000a900460ff166126ee57856040517fe356c1d30000000000000000000000000000000000000000000000000000000081526004016126e59190612fe1565b60405180910390fd5b6000600660008973ffffffffffffffffffffffffffffffffffffffff1673ffffffffffffffffffffffffffffffffffffffff1681526020019081526020016000205490508581101561277b578781876040517fa343d5e000000000000000000000000000000000000000000000000000000000815260040161277293929190613226565b60405180910390fd5b60007fb258b36442f243824d867fa32927dab898fcbeae368aa1b632e6785962dfa41789898989896040516020016127b896959493929190613476565b6040516020818303038152906040528051906020012090506127db818585612988565b60016004600088815260200190815260200160002060006101000a81548160ff02191690831515021790555086600660008b73ffffffffffffffffffffffffffffffffffffffff1673ffffffffffffffffffffffffffffffffffffffff1681526020019081526020016000206000828254039250508190555060008973ffffffffffffffffffffffffffffffffffffffff1663a9059cbb8a8a6040518363ffffffff1660e01b81526004016128919291906132f6565b6020604051808303816000875af11580156128b0573d6000803e3d6000fd5b505050506040513d601f19601f820116820180604052508101906128d49190613334565b90508061290d576040517f045c4b0200000000000000000000000000000000000000000000000000000000815260040160405180910390fd5b8873ffffffffffffffffffffffffffffffffffffffff168a73ffffffffffffffffffffffffffffffffffffffff167f91fb9d98b786c57d74c099ccd2beca1739e9f6a81fb49001ca465c4b7591bbe28a8a60405161296c9291906131fd565b60405180910390a3505050600160038190555050505050505050565b60007f0000000000000000000000000000000000000000000000000000000000000000846040516020016129bd9291906133d9565b604051602081830303815290604052805190602001209050600060418484905003612a555760008060008635925060208701359150604087013560001a905060018582858560405160008152602001604052604051612a1f94939291906134f3565b6020604051602081039080840390855afa158015612a41573d6000803e3d6000fd5b505050602060405103519350505050612b3d565b60408484905003612b0a57600080853591506020860135905060007f7fffffffffffffffffffffffffffffffffffffffffffffffffffffffffffffff60001b821690506000601b60ff8460001c901c612aae9190613567565b905060018682868560405160008152602001604052604051612ad394939291906134f3565b6020604051602081039080840390855afa158015612af5573d6000803e3d6000fd5b50505060206040510351945050505050612b3c565b6040517f8baa579f00000000000000000000000000000000000000000000000000000000815260040160405180910390fd5b5b600073ffffffffffffffffffffffffffffffffffffffff168173ffffffffffffffffffffffffffffffffffffffff161480612bc4575060008054906101000a900473ffffffffffffffffffffffffffffffffffffffff1673ffffffffffffffffffffffffffffffffffffffff168173ffffffffffffffffffffffffffffffffffffffff1614155b15612bfb576040517f8baa579f00000000000000000000000000000000000000000000000000000000815260040160405180910390fd5b5050505050565b6000819050919050565b612c1581612c02565b82525050565b6000602082019050612c306000830184612c0c565b92915050565b6000819050919050565b612c4981612c36565b82525050565b6000602082019050612c646000830184612c40565b92915050565b600080fd5b600080fd5b600073ffffffffffffffffffffffffffffffffffffffff82169050919050565b6000612c9f82612c74565b9050919050565b612caf81612c94565b8114612cba57600080fd5b50565b600081359050612ccc81612ca6565b92915050565b612cdb81612c02565b8114612ce657600080fd5b50565b600081359050612cf881612cd2565b92915050565b600080fd5b600080fd5b600080fd5b60008083601f840112612d2357612d22612cfe565b5b8235905067ffffffffffffffff811115612d4057612d3f612d03565b5b602083019150836001820283011115612d5c57612d5b612d08565b5b9250929050565b60008060008060008060a08789031215612d8057612d7f612c6a565b5b6000612d8e89828a01612cbd565b9650506020612d9f89828a01612ce9565b9550506040612db089828a01612ce9565b9450506060612dc189828a01612ce9565b935050608087013567ffffffffffffffff811115612de257612de1612c6f565b5b612dee89828a01612d0d565b92509250509295509295509295565b600060208284031215612e1357612e12612c6a565b5b6000612e2184828501612cbd565b91505092915050565b600080600060608486031215612e4357612e42612c6a565b5b6000612e5186828701612cbd565b9350506020612e6286828701612cbd565b9250506040612e7386828701612ce9565b9150509250925092565b60008060008060808587031215612e9757612e96612c6a565b5b6000612ea587828801612cbd565b9450506020612eb687828801612ce9565b9350506040612ec787828801612ce9565b9250506060612ed887828801612ce9565b91505092959194509250565b60008083601f840112612efa57612ef9612cfe565b5b8235905067ffffffffffffffff811115612f1757612f16612d03565b5b602083019150836020820283011115612f3357612f32612d08565b5b9250929050565b60008115159050919050565b612f4f81612f3a565b8114612f5a57600080fd5b50565b600081359050612f6c81612f46565b92915050565b600080600060408486031215612f8b57612f8a612c6a565b5b600084013567ffffffffffffffff811115612fa957612fa8612c6f565b5b612fb586828701612ee4565b93509350506020612fc886828701612f5d565b9150509250925092565b612fdb81612c94565b82525050565b6000602082019050612ff66000830184612fd2565b92915050565b6000806040838503121561301357613012612c6a565b5b600061302185828601612cbd565b925050602061303285828601612ce9565b9150509250929050565b61304581612f3a565b82525050565b6000602082019050613060600083018461303c565b92915050565b60006020828403121561307c5761307b612c6a565b5b600061308a84828501612ce9565b91505092915050565b600080600080600060a086880312156130af576130ae612c6a565b5b60006130bd88828901612cbd565b95505060206130ce88828901612cbd565b94505060406130df88828901612ce9565b93505060606130f088828901612ce9565b925050608061310188828901612ce9565b9150509295509295909350565b6000806040838503121561312557613124612c6a565b5b600061313385828601612cbd565b925050602061314485828601612f5d565b9150509250929050565b600080600080600080600060c0888a03121561316d5761316c612c6a565b5b600061317b8a828b01612cbd565b975050602061318c8a828b01612cbd565b965050604061319d8a828b01612ce9565b95505060606131ae8a828b01612ce9565b94505060806131bf8a828b01612ce9565b93505060a088013567ffffffffffffffff8111156131e0576131df612c6f565b5b6131ec8a828b01612d0d565b925092505092959891949750929550565b60006040820190506132126000830185612c0c565b61321f6020830184612c0c565b9392505050565b600060608201905061323b6000830186612fd2565b6132486020830185612c0c565b6132556040830184612c0c565b949350505050565b600060a0820190506132726000830188612c40565b61327f6020830187612fd2565b61328c6040830186612c0c565b6132996060830185612c0c565b6132a66080830184612c0c565b9695505050505050565b600081905092915050565b50565b60006132cb6000836132b0565b91506132d6826132bb565b600082019050919050565b60006132ec826132be565b9150819050919050565b600060408201905061330b6000830185612fd2565b6133186020830184612c0c565b9392505050565b60008151905061332e81612f46565b92915050565b60006020828403121561334a57613349612c6a565b5b60006133588482850161331f565b91505092915050565b600081905092915050565b7f1901000000000000000000000000000000000000000000000000000000000000600082015250565b60006133a2600283613361565b91506133ad8261336c565b600282019050919050565b6000819050919050565b6133d36133ce82612c36565b6133b8565b82525050565b60006133e482613395565b91506133f082856133c2565b60208201915061340082846133c2565b6020820191508190509392505050565b7f4e487b7100000000000000000000000000000000000000000000000000000000600052603260045260246000fd5b60006060820190506134546000830186612fd2565b6134616020830185612fd2565b61346e6040830184612c0c565b949350505050565b600060c08201905061348b6000830189612c40565b6134986020830188612fd2565b6134a56040830187612fd2565b6134b26060830186612c0c565b6134bf6080830185612c0c565b6134cc60a0830184612c0c565b979650505050505050565b600060ff82169050919050565b6134ed816134d7565b82525050565b60006080820190506135086000830187612c40565b61351560208301866134e4565b6135226040830185612c40565b61352f6060830184612c40565b95945050505050565b7f4e487b7100000000000000000000000000000000000000000000000000000000600052601160045260246000fd5b600061357282612c02565b915061357d83612c02565b925082820190508082111561359557613594613538565b5b9291505056fea2646970667358221220be9838e073df83b5221e505f4ca74413206c972b55559774f54101db7ede781f64736f6c63430008180033",
  "linkReferences": {},
  "deployedLinkReferences": {}
}